{
  "_format": "hh-sol-artifact-1",
  "contractName": "AtomicSwap",
  "sourceName": "contracts/atomicSwap.sol",
  "abi": [
    {
      "inputs": [
        {
          "internalType": "address",
          "name": "_weth",
          "type": "address"
        }
      ],
      "stateMutability": "nonpayable",
      "type": "constructor"
    },
    {
      "stateMutability": "payable",
      "type": "fallback"
    },
    {
      "inputs": [],
      "name": "WETH",
      "outputs": [
        {
          "internalType": "address",
          "name": "",
          "type": "address"
        }
      ],
      "stateMutability": "view",
      "type": "function"
    },
    {
      "inputs": [
        {
          "internalType": "address",
          "name": "_tokenArb",
          "type": "address"
        },
        {
          "internalType": "address",
          "name": "_tokenSettle",
          "type": "address"
        },
        {
          "internalType": "address",
          "name": "_startFactory",
          "type": "address"
        },
        {
          "internalType": "address",
          "name": "_endFactory",
          "type": "address"
        },
        {
          "internalType": "address",
          "name": "_pairStart",
          "type": "address"
        },
        {
          "internalType": "address",
          "name": "_pairEnd",
          "type": "address"
        },
        {
          "internalType": "uint256",
          "name": "_amountIn",
          "type": "uint256"
        }
      ],
      "name": "arb",
      "outputs": [
        {
          "internalType": "uint256",
          "name": "amountOut",
          "type": "uint256"
        }
      ],
      "stateMutability": "nonpayable",
      "type": "function"
    },
    {
      "inputs": [
        {
          "internalType": "address",
          "name": "_token",
          "type": "address"
        },
        {
          "internalType": "address",
          "name": "_startFactory",
          "type": "address"
        },
        {
          "internalType": "address",
          "name": "_endFactory",
          "type": "address"
        },
        {
          "internalType": "uint256",
          "name": "_amountIn",
          "type": "uint256"
        }
      ],
      "name": "backrun",
      "outputs": [],
      "stateMutability": "nonpayable",
      "type": "function"
    },
    {
      "inputs": [],
      "name": "liquidate",
      "outputs": [],
      "stateMutability": "nonpayable",
      "type": "function"
    },
    {
      "inputs": [
        {
          "internalType": "address[]",
          "name": "path",
          "type": "address[]"
        },
        {
          "internalType": "uint256",
          "name": "amountIn",
          "type": "uint256"
        },
        {
          "internalType": "address",
          "name": "factory",
          "type": "address"
        },
        {
          "internalType": "address",
          "name": "recipient",
          "type": "address"
        },
        {
          "internalType": "bool",
          "name": "fromThis",
          "type": "bool"
        }
      ],
      "name": "swap",
      "outputs": [],
      "stateMutability": "nonpayable",
      "type": "function"
    },
    {
      "inputs": [
        {
          "internalType": "address[]",
          "name": "path",
          "type": "address[]"
        },
        {
          "internalType": "uint256",
          "name": "amountIn",
          "type": "uint256"
        },
        {
          "internalType": "address",
          "name": "factory",
          "type": "address"
        },
        {
          "internalType": "address",
          "name": "recipient",
          "type": "address"
        },
        {
          "internalType": "address",
          "name": "_pair",
          "type": "address"
        },
        {
          "internalType": "bool",
          "name": "fromThis",
          "type": "bool"
        }
      ],
      "name": "swapCheaper",
      "outputs": [
        {
          "internalType": "uint256",
          "name": "amountOut",
          "type": "uint256"
        }
      ],
      "stateMutability": "nonpayable",
      "type": "function"
    },
    {
      "stateMutability": "payable",
      "type": "receive"
    }
  ],
  "bytecode": "0x60806040523480156200001157600080fd5b5060405162002c3938038062002c3983398181016040528101906200003791906200016a565b806000806101000a81548173ffffffffffffffffffffffffffffffffffffffff021916908373ffffffffffffffffffffffffffffffffffffffff16021790555080600260006101000a81548173ffffffffffffffffffffffffffffffffffffffff021916908373ffffffffffffffffffffffffffffffffffffffff16021790555033600160006101000a81548173ffffffffffffffffffffffffffffffffffffffff021916908373ffffffffffffffffffffffffffffffffffffffff160217905550506200019c565b600080fd5b600073ffffffffffffffffffffffffffffffffffffffff82169050919050565b6000620001328262000105565b9050919050565b620001448162000125565b81146200015057600080fd5b50565b600081519050620001648162000139565b92915050565b60006020828403121562000183576200018262000100565b5b6000620001938482850162000153565b91505092915050565b612a8d80620001ac6000396000f3fe6080604052600436106100595760003560e01c80630cc732631461006257806328a070251461008b5780633437a611146100a25780637e372601146100df57806386f89bd21461011c578063ad5c46481461014557610060565b3661006057005b005b34801561006e57600080fd5b5061008960048036038101906100849190611e60565b610170565b005b34801561009757600080fd5b506100a0610459565b005b3480156100ae57600080fd5b506100c960048036038101906100c49190611ef7565b610649565b6040516100d69190611fa8565b60405180910390f35b3480156100eb57600080fd5b5061010660048036038101906101019190611fc3565b6108cf565b6040516101139190611fa8565b60405180910390f35b34801561012857600080fd5b50610143600480360381019061013e919061206c565b610c07565b005b34801561015157600080fd5b5061015a611326565b60405161016791906120e2565b60405180910390f35b60008373ffffffffffffffffffffffffffffffffffffffff1663e6a43905876000815181106101a2576101a16120fd565b5b6020026020010151886001815181106101be576101bd6120fd565b5b60200260200101516040518363ffffffff1660e01b81526004016101e392919061212c565b602060405180830381865afa158015610200573d6000803e3d6000fd5b505050506040513d601f19601f82011682018060405250810190610224919061216a565b9050600061023385878961134a565b90506104508760008151811061024c5761024b6120fd565b5b602002602001015173ffffffffffffffffffffffffffffffffffffffff168373ffffffffffffffffffffffffffffffffffffffff16630dfe16816040518163ffffffff1660e01b8152600401602060405180830381865afa1580156102b5573d6000803e3d6000fd5b505050506040513d601f19601f820116820180604052508101906102d9919061216a565b73ffffffffffffffffffffffffffffffffffffffff16146103155781600181518110610308576103076120fd565b5b6020026020010151610332565b81600081518110610329576103286120fd565b5b60200260200101515b88600081518110610346576103456120fd565b5b602002602001015173ffffffffffffffffffffffffffffffffffffffff168473ffffffffffffffffffffffffffffffffffffffff16630dfe16816040518163ffffffff1660e01b8152600401602060405180830381865afa1580156103af573d6000803e3d6000fd5b505050506040513d601f19601f820116820180604052508101906103d3919061216a565b73ffffffffffffffffffffffffffffffffffffffff161461040f5782600081518110610402576104016120fd565b5b602002602001015161042c565b82600181518110610423576104226120fd565b5b60200260200101515b896000815181106104405761043f6120fd565b5b60200260200101518588886114d5565b50505050505050565b600160009054906101000a900473ffffffffffffffffffffffffffffffffffffffff1673ffffffffffffffffffffffffffffffffffffffff163373ffffffffffffffffffffffffffffffffffffffff16146104e9576040517f08c379a00000000000000000000000000000000000000000000000000000000081526004016104e0906121f4565b60405180910390fd5b600260009054906101000a900473ffffffffffffffffffffffffffffffffffffffff1673ffffffffffffffffffffffffffffffffffffffff1663a9059cbb600160009054906101000a900473ffffffffffffffffffffffffffffffffffffffff16600260009054906101000a900473ffffffffffffffffffffffffffffffffffffffff1673ffffffffffffffffffffffffffffffffffffffff166370a08231306040518263ffffffff1660e01b81526004016105a591906120e2565b602060405180830381865afa1580156105c2573d6000803e3d6000fd5b505050506040513d601f19601f820116820180604052508101906105e69190612229565b6040518363ffffffff1660e01b8152600401610603929190612256565b6020604051808303816000875af1158015610622573d6000803e3d6000fd5b505050506040513d601f19601f820116820180604052508101906106469190612294565b50565b600080600267ffffffffffffffff81111561066757610666611c51565b5b6040519080825280602002602001820160405280156106955781602001602082028036833780820191505090505b50905087816000815181106106ad576106ac6120fd565b5b602002602001019073ffffffffffffffffffffffffffffffffffffffff16908173ffffffffffffffffffffffffffffffffffffffff168152505088816001815181106106fc576106fb6120fd565b5b602002602001019073ffffffffffffffffffffffffffffffffffffffff16908173ffffffffffffffffffffffffffffffffffffffff1681525050610745818489308960006108cf565b506000600267ffffffffffffffff81111561076357610762611c51565b5b6040519080825280602002602001820160405280156107915781602001602082028036833780820191505090505b50905089816000815181106107a9576107a86120fd565b5b602002602001019073ffffffffffffffffffffffffffffffffffffffff16908173ffffffffffffffffffffffffffffffffffffffff168152505088816001815181106107f8576107f76120fd565b5b602002602001019073ffffffffffffffffffffffffffffffffffffffff16908173ffffffffffffffffffffffffffffffffffffffff168152505060008a90506108bf828273ffffffffffffffffffffffffffffffffffffffff166370a08231306040518263ffffffff1660e01b815260040161087491906120e2565b602060405180830381865afa158015610891573d6000803e3d6000fd5b505050506040513d601f19601f820116820180604052508101906108b59190612229565b8a338a60016108cf565b9350505050979650505050505050565b60008083905060006108e287898b61134a565b9050610aff896000815181106108fb576108fa6120fd565b5b602002602001015173ffffffffffffffffffffffffffffffffffffffff168373ffffffffffffffffffffffffffffffffffffffff16630dfe16816040518163ffffffff1660e01b8152600401602060405180830381865afa158015610964573d6000803e3d6000fd5b505050506040513d601f19601f82011682018060405250810190610988919061216a565b73ffffffffffffffffffffffffffffffffffffffff16146109c457816001815181106109b7576109b66120fd565b5b60200260200101516109e1565b816000815181106109d8576109d76120fd565b5b60200260200101515b8a6000815181106109f5576109f46120fd565b5b602002602001015173ffffffffffffffffffffffffffffffffffffffff168473ffffffffffffffffffffffffffffffffffffffff16630dfe16816040518163ffffffff1660e01b8152600401602060405180830381865afa158015610a5e573d6000803e3d6000fd5b505050506040513d601f19601f82011682018060405250810190610a82919061216a565b73ffffffffffffffffffffffffffffffffffffffff1614610abe5782600081518110610ab157610ab06120fd565b5b6020026020010151610adb565b82600181518110610ad257610ad16120fd565b5b60200260200101515b8b600081518110610aef57610aee6120fd565b5b6020026020010151888a896114d5565b8173ffffffffffffffffffffffffffffffffffffffff16630dfe16816040518163ffffffff1660e01b8152600401602060405180830381865afa158015610b4a573d6000803e3d6000fd5b505050506040513d601f19601f82011682018060405250810190610b6e919061216a565b73ffffffffffffffffffffffffffffffffffffffff1689600181518110610b9857610b976120fd565b5b602002602001015173ffffffffffffffffffffffffffffffffffffffff1614610bdc5780600181518110610bcf57610bce6120fd565b5b6020026020010151610bf9565b80600081518110610bf057610bef6120fd565b5b60200260200101515b925050509695505050505050565b6000600260009054906101000a900473ffffffffffffffffffffffffffffffffffffffff1673ffffffffffffffffffffffffffffffffffffffff166370a08231306040518263ffffffff1660e01b8152600401610c6491906120e2565b602060405180830381865afa158015610c81573d6000803e3d6000fd5b505050506040513d601f19601f82011682018060405250810190610ca59190612229565b90506000600267ffffffffffffffff811115610cc457610cc3611c51565b5b604051908082528060200260200182016040528015610cf25781602001602082028036833780820191505090505b5090506000600267ffffffffffffffff811115610d1257610d11611c51565b5b604051908082528060200260200182016040528015610d405781602001602082028036833780820191505090505b50905060008054906101000a900473ffffffffffffffffffffffffffffffffffffffff1682600081518110610d7857610d776120fd565b5b602002602001019073ffffffffffffffffffffffffffffffffffffffff16908173ffffffffffffffffffffffffffffffffffffffff16815250508682600181518110610dc757610dc66120fd565b5b602002602001019073ffffffffffffffffffffffffffffffffffffffff16908173ffffffffffffffffffffffffffffffffffffffff16815250508681600081518110610e1657610e156120fd565b5b602002602001019073ffffffffffffffffffffffffffffffffffffffff16908173ffffffffffffffffffffffffffffffffffffffff168152505060008054906101000a900473ffffffffffffffffffffffffffffffffffffffff1681600181518110610e8557610e846120fd565b5b602002602001019073ffffffffffffffffffffffffffffffffffffffff16908173ffffffffffffffffffffffffffffffffffffffff1681525050610ecd828588306000610170565b610f54818873ffffffffffffffffffffffffffffffffffffffff166370a08231306040518263ffffffff1660e01b8152600401610f0a91906120e2565b602060405180830381865afa158015610f27573d6000803e3d6000fd5b505050506040513d601f19601f82011682018060405250810190610f4b9190612229565b87306001610170565b8383610f6091906122f0565b600260009054906101000a900473ffffffffffffffffffffffffffffffffffffffff1673ffffffffffffffffffffffffffffffffffffffff166370a08231306040518263ffffffff1660e01b8152600401610fbb91906120e2565b602060405180830381865afa158015610fd8573d6000803e3d6000fd5b505050506040513d601f19601f82011682018060405250810190610ffc9190612229565b1161103c576040517f08c379a000000000000000000000000000000000000000000000000000000000815260040161103390612370565b60405180910390fd5b60006127106123288686600260009054906101000a900473ffffffffffffffffffffffffffffffffffffffff1673ffffffffffffffffffffffffffffffffffffffff166370a08231306040518263ffffffff1660e01b81526004016110a191906120e2565b602060405180830381865afa1580156110be573d6000803e3d6000fd5b505050506040513d601f19601f820116820180604052508101906110e29190612229565b6110ec9190612390565b6110f69190612390565b61110091906123c4565b61110a9190612435565b9050600260009054906101000a900473ffffffffffffffffffffffffffffffffffffffff1673ffffffffffffffffffffffffffffffffffffffff16632e1a7d4d826040518263ffffffff1660e01b81526004016111679190611fa8565b600060405180830381600087803b15801561118157600080fd5b505af1158015611195573d6000803e3d6000fd5b505050504173ffffffffffffffffffffffffffffffffffffffff166108fc829081150290604051600060405180830381858888f193505050501580156111df573d6000803e3d6000fd5b50600260009054906101000a900473ffffffffffffffffffffffffffffffffffffffff1673ffffffffffffffffffffffffffffffffffffffff1663a9059cbb33600260009054906101000a900473ffffffffffffffffffffffffffffffffffffffff1673ffffffffffffffffffffffffffffffffffffffff166370a08231306040518263ffffffff1660e01b815260040161127a91906120e2565b602060405180830381865afa158015611297573d6000803e3d6000fd5b505050506040513d601f19601f820116820180604052508101906112bb9190612229565b6040518363ffffffff1660e01b81526004016112d8929190612256565b6020604051808303816000875af11580156112f7573d6000803e3d6000fd5b505050506040513d601f19601f8201168201806040525081019061131b9190612294565b505050505050505050565b60008054906101000a900473ffffffffffffffffffffffffffffffffffffffff1681565b6060600282511015611391576040517f08c379a0000000000000000000000000000000000000000000000000000000008152600401611388906124b2565b60405180910390fd5b815167ffffffffffffffff8111156113ac576113ab611c51565b5b6040519080825280602002602001820160405280156113da5781602001602082028036833780820191505090505b50905082816000815181106113f2576113f16120fd565b5b60200260200101818152505060005b6001835161140f9190612390565b8110156114cd57600080611464878685815181106114305761142f6120fd565b5b60200260200101518760018761144691906122f0565b81518110611457576114566120fd565b5b60200260200101516117bb565b9150915061148d84848151811061147e5761147d6120fd565b5b6020026020010151838361192f565b8460018561149b91906122f0565b815181106114ac576114ab6120fd565b5b602002602001018181525050505080806114c5906124d2565b915050611401565b509392505050565b6000839050600085905060008673ffffffffffffffffffffffffffffffffffffffff168373ffffffffffffffffffffffffffffffffffffffff16630dfe16816040518163ffffffff1660e01b8152600401602060405180830381865afa158015611543573d6000803e3d6000fd5b505050506040513d601f19601f82011682018060405250810190611567919061216a565b73ffffffffffffffffffffffffffffffffffffffff1614611588578761158a565b885b905083611616578173ffffffffffffffffffffffffffffffffffffffff166323b872dd3388846040518463ffffffff1660e01b81526004016115ce9392919061251a565b6020604051808303816000875af11580156115ed573d6000803e3d6000fd5b505050506040513d601f19601f820116820180604052508101906116119190612294565b611695565b8173ffffffffffffffffffffffffffffffffffffffff1663a9059cbb87836040518363ffffffff1660e01b8152600401611651929190612256565b6020604051808303816000875af1158015611670573d6000803e3d6000fd5b505050506040513d601f19601f820116820180604052508101906116949190612294565b5b6116d4576040517f08c379a00000000000000000000000000000000000000000000000000000000081526004016116cb9061259d565b60405180910390fd5b8273ffffffffffffffffffffffffffffffffffffffff1663022c0d9f828b146116fd578a611700565b60005b838b1461170d578a611710565b60005b88600067ffffffffffffffff81111561172c5761172b611c51565b5b6040519080825280601f01601f19166020018201604052801561175e5781602001600182028036833780820191505090505b506040518563ffffffff1660e01b815260040161177e949392919061263c565b600060405180830381600087803b15801561179857600080fd5b505af11580156117ac573d6000803e3d6000fd5b50505050505050505050505050565b60008060006117ca8585611a35565b5090506000808773ffffffffffffffffffffffffffffffffffffffff1663e6a4390588886040518363ffffffff1660e01b815260040161180b92919061212c565b602060405180830381865afa158015611828573d6000803e3d6000fd5b505050506040513d601f19601f8201168201806040525081019061184c919061216a565b73ffffffffffffffffffffffffffffffffffffffff16630902f1ac6040518163ffffffff1660e01b8152600401606060405180830381865afa158015611896573d6000803e3d6000fd5b505050506040513d601f19601f820116820180604052508101906118ba919061270a565b506dffffffffffffffffffffffffffff1691506dffffffffffffffffffffffffffff1691508273ffffffffffffffffffffffffffffffffffffffff168773ffffffffffffffffffffffffffffffffffffffff161461191957808261191c565b81815b8095508196505050505050935093915050565b6000808411611973576040517f08c379a000000000000000000000000000000000000000000000000000000000815260040161196a906127cf565b60405180910390fd5b6000831180156119835750600082115b6119c2576040517f08c379a00000000000000000000000000000000000000000000000000000000081526004016119b990612861565b60405180910390fd5b60006119d96103e586611b6190919063ffffffff16565b905060006119f08483611b6190919063ffffffff16565b90506000611a1b83611a0d6103e889611b6190919063ffffffff16565b611bce90919063ffffffff16565b90508082611a299190612435565b93505050509392505050565b6000808273ffffffffffffffffffffffffffffffffffffffff168473ffffffffffffffffffffffffffffffffffffffff1603611aa6576040517f08c379a0000000000000000000000000000000000000000000000000000000008152600401611a9d906128f3565b60405180910390fd5b8273ffffffffffffffffffffffffffffffffffffffff168473ffffffffffffffffffffffffffffffffffffffff1610611ae0578284611ae3565b83835b8092508193505050600073ffffffffffffffffffffffffffffffffffffffff168273ffffffffffffffffffffffffffffffffffffffff1603611b5a576040517f08c379a0000000000000000000000000000000000000000000000000000000008152600401611b519061295f565b60405180910390fd5b9250929050565b600080821480611b89575082828385611b7a91906123c4565b925082611b879190612435565b145b611bc8576040517f08c379a0000000000000000000000000000000000000000000000000000000008152600401611bbf906129cb565b60405180910390fd5b92915050565b6000828284611bdd91906122f0565b9150811015611c21576040517f08c379a0000000000000000000000000000000000000000000000000000000008152600401611c1890612a37565b60405180910390fd5b92915050565b6000604051905090565b600080fd5b600080fd5b600080fd5b6000601f19601f8301169050919050565b7f4e487b7100000000000000000000000000000000000000000000000000000000600052604160045260246000fd5b611c8982611c40565b810181811067ffffffffffffffff82111715611ca857611ca7611c51565b5b80604052505050565b6000611cbb611c27565b9050611cc78282611c80565b919050565b600067ffffffffffffffff821115611ce757611ce6611c51565b5b602082029050602081019050919050565b600080fd5b600073ffffffffffffffffffffffffffffffffffffffff82169050919050565b6000611d2882611cfd565b9050919050565b611d3881611d1d565b8114611d4357600080fd5b50565b600081359050611d5581611d2f565b92915050565b6000611d6e611d6984611ccc565b611cb1565b90508083825260208201905060208402830185811115611d9157611d90611cf8565b5b835b81811015611dba5780611da68882611d46565b845260208401935050602081019050611d93565b5050509392505050565b600082601f830112611dd957611dd8611c3b565b5b8135611de9848260208601611d5b565b91505092915050565b6000819050919050565b611e0581611df2565b8114611e1057600080fd5b50565b600081359050611e2281611dfc565b92915050565b60008115159050919050565b611e3d81611e28565b8114611e4857600080fd5b50565b600081359050611e5a81611e34565b92915050565b600080600080600060a08688031215611e7c57611e7b611c31565b5b600086013567ffffffffffffffff811115611e9a57611e99611c36565b5b611ea688828901611dc4565b9550506020611eb788828901611e13565b9450506040611ec888828901611d46565b9350506060611ed988828901611d46565b9250506080611eea88828901611e4b565b9150509295509295909350565b600080600080600080600060e0888a031215611f1657611f15611c31565b5b6000611f248a828b01611d46565b9750506020611f358a828b01611d46565b9650506040611f468a828b01611d46565b9550506060611f578a828b01611d46565b9450506080611f688a828b01611d46565b93505060a0611f798a828b01611d46565b92505060c0611f8a8a828b01611e13565b91505092959891949750929550565b611fa281611df2565b82525050565b6000602082019050611fbd6000830184611f99565b92915050565b60008060008060008060c08789031215611fe057611fdf611c31565b5b600087013567ffffffffffffffff811115611ffe57611ffd611c36565b5b61200a89828a01611dc4565b965050602061201b89828a01611e13565b955050604061202c89828a01611d46565b945050606061203d89828a01611d46565b935050608061204e89828a01611d46565b92505060a061205f89828a01611e4b565b9150509295509295509295565b6000806000806080858703121561208657612085611c31565b5b600061209487828801611d46565b94505060206120a587828801611d46565b93505060406120b687828801611d46565b92505060606120c787828801611e13565b91505092959194509250565b6120dc81611d1d565b82525050565b60006020820190506120f760008301846120d3565b92915050565b7f4e487b7100000000000000000000000000000000000000000000000000000000600052603260045260246000fd5b600060408201905061214160008301856120d3565b61214e60208301846120d3565b9392505050565b60008151905061216481611d2f565b92915050565b6000602082840312156121805761217f611c31565b5b600061218e84828501612155565b91505092915050565b600082825260208201905092915050565b7f6e6f7420616c6c6f776564000000000000000000000000000000000000000000600082015250565b60006121de600b83612197565b91506121e9826121a8565b602082019050919050565b6000602082019050818103600083015261220d816121d1565b9050919050565b60008151905061222381611dfc565b92915050565b60006020828403121561223f5761223e611c31565b5b600061224d84828501612214565b91505092915050565b600060408201905061226b60008301856120d3565b6122786020830184611f99565b9392505050565b60008151905061228e81611e34565b92915050565b6000602082840312156122aa576122a9611c31565b5b60006122b88482850161227f565b91505092915050565b7f4e487b7100000000000000000000000000000000000000000000000000000000600052601160045260246000fd5b60006122fb82611df2565b915061230683611df2565b925082820190508082111561231e5761231d6122c1565b5b92915050565b7f617262206e6f742070726f66697461626c650000000000000000000000000000600082015250565b600061235a601283612197565b915061236582612324565b602082019050919050565b600060208201905081810360008301526123898161234d565b9050919050565b600061239b82611df2565b91506123a683611df2565b92508282039050818111156123be576123bd6122c1565b5b92915050565b60006123cf82611df2565b91506123da83611df2565b92508282026123e881611df2565b915082820484148315176123ff576123fe6122c1565b5b5092915050565b7f4e487b7100000000000000000000000000000000000000000000000000000000600052601260045260246000fd5b600061244082611df2565b915061244b83611df2565b92508261245b5761245a612406565b5b828204905092915050565b7f556e697377617056324c6962726172793a20494e56414c49445f504154480000600082015250565b600061249c601e83612197565b91506124a782612466565b602082019050919050565b600060208201905081810360008301526124cb8161248f565b9050919050565b60006124dd82611df2565b91507fffffffffffffffffffffffffffffffffffffffffffffffffffffffffffffffff820361250f5761250e6122c1565b5b600182019050919050565b600060608201905061252f60008301866120d3565b61253c60208301856120d3565b6125496040830184611f99565b949350505050565b7f7472616e73666572206661696c65640000000000000000000000000000000000600082015250565b6000612587600f83612197565b915061259282612551565b602082019050919050565b600060208201905081810360008301526125b68161257a565b9050919050565b600081519050919050565b600082825260208201905092915050565b60005b838110156125f75780820151818401526020810190506125dc565b60008484015250505050565b600061260e826125bd565b61261881856125c8565b93506126288185602086016125d9565b61263181611c40565b840191505092915050565b60006080820190506126516000830187611f99565b61265e6020830186611f99565b61266b60408301856120d3565b818103606083015261267d8184612603565b905095945050505050565b60006dffffffffffffffffffffffffffff82169050919050565b6126ab81612688565b81146126b657600080fd5b50565b6000815190506126c8816126a2565b92915050565b600063ffffffff82169050919050565b6126e7816126ce565b81146126f257600080fd5b50565b600081519050612704816126de565b92915050565b60008060006060848603121561272357612722611c31565b5b6000612731868287016126b9565b9350506020612742868287016126b9565b9250506040612753868287016126f5565b9150509250925092565b7f556e697377617056324c6962726172793a20494e53554646494349454e545f4960008201527f4e5055545f414d4f554e54000000000000000000000000000000000000000000602082015250565b60006127b9602b83612197565b91506127c48261275d565b604082019050919050565b600060208201905081810360008301526127e8816127ac565b9050919050565b7f556e697377617056324c6962726172793a20494e53554646494349454e545f4c60008201527f4951554944495459000000000000000000000000000000000000000000000000602082015250565b600061284b602883612197565b9150612856826127ef565b604082019050919050565b6000602082019050818103600083015261287a8161283e565b9050919050565b7f556e697377617056324c6962726172793a204944454e544943414c5f4144445260008201527f4553534553000000000000000000000000000000000000000000000000000000602082015250565b60006128dd602583612197565b91506128e882612881565b604082019050919050565b6000602082019050818103600083015261290c816128d0565b9050919050565b7f556e697377617056324c6962726172793a205a45524f5f414444524553530000600082015250565b6000612949601e83612197565b915061295482612913565b602082019050919050565b600060208201905081810360008301526129788161293c565b9050919050565b7f64732d6d6174682d6d756c2d6f766572666c6f77000000000000000000000000600082015250565b60006129b5601483612197565b91506129c08261297f565b602082019050919050565b600060208201905081810360008301526129e4816129a8565b9050919050565b7f64732d6d6174682d6164642d6f766572666c6f77000000000000000000000000600082015250565b6000612a21601483612197565b9150612a2c826129eb565b602082019050919050565b60006020820190508181036000830152612a5081612a14565b905091905056fea264697066735822122000dac20ba5054c2c250944bfa1724d854bbc5aa7e03065fa365a21ccf810faf264736f6c63430008120033",
  "linkReferences": {},
  "deployedLinkReferences": {}
}