{
  "_format": "hh-sol-artifact-1",
  "contractName": "MinerCommitmentTracker",
  "sourceName": "contracts/MinerCommitmentTracker.sol",
  "abi": [
    {
      "anonymous": false,
      "inputs": [
        {
          "indexed": true,
          "internalType": "uint256",
          "name": "blockIndex",
          "type": "uint256"
        },
        {
          "indexed": true,
          "internalType": "uint256",
          "name": "commitmentIndex",
          "type": "uint256"
        },
        {
          "indexed": false,
          "internalType": "bytes",
          "name": "opening",
          "type": "bytes"
        },
        {
          "indexed": true,
          "internalType": "address",
          "name": "opener",
          "type": "address"
        },
        {
          "indexed": false,
          "internalType": "uint256",
          "name": "blockNumber",
          "type": "uint256"
        }
      ],
      "name": "CommitmentOpened",
      "type": "event"
    },
    {
      "inputs": [
        {
          "internalType": "uint256",
          "name": "",
          "type": "uint256"
        }
      ],
      "name": "commitmentOpenings",
      "outputs": [
        {
          "internalType": "uint256",
          "name": "blockIndex",
          "type": "uint256"
        },
        {
          "internalType": "uint256",
          "name": "commitmentIndex",
          "type": "uint256"
        },
        {
          "internalType": "bytes",
          "name": "opening",
          "type": "bytes"
        },
        {
          "internalType": "address",
          "name": "opener",
          "type": "address"
        },
        {
          "internalType": "uint256",
          "name": "blockNumber",
          "type": "uint256"
        }
      ],
      "stateMutability": "view",
      "type": "function"
    },
    {
      "inputs": [],
      "name": "computeFinalSeed",
      "outputs": [
        {
          "internalType": "bytes32",
          "name": "",
          "type": "bytes32"
        }
      ],
      "stateMutability": "view",
      "type": "function"
    },
    {
      "inputs": [],
      "name": "getCommitmentOpenings",
      "outputs": [
        {
          "components": [
            {
              "internalType": "uint256",
              "name": "blockIndex",
              "type": "uint256"
            },
            {
              "internalType": "uint256",
              "name": "commitmentIndex",
              "type": "uint256"
            },
            {
              "internalType": "bytes",
              "name": "opening",
              "type": "bytes"
            },
            {
              "internalType": "address",
              "name": "opener",
              "type": "address"
            },
            {
              "internalType": "uint256",
              "name": "blockNumber",
              "type": "uint256"
            }
          ],
          "internalType": "struct MinerCommitmentTracker.CommitmentOpening[]",
          "name": "",
          "type": "tuple[]"
        }
      ],
      "stateMutability": "view",
      "type": "function"
    },
    {
      "inputs": [],
      "name": "getSeeds",
      "outputs": [
        {
          "internalType": "address[3]",
          "name": "miners",
          "type": "address[3]"
        },
        {
          "internalType": "bytes32[]",
          "name": "commitments",
          "type": "bytes32[]"
        },
        {
          "internalType": "uint256[3]",
          "name": "commitmentLengths",
          "type": "uint256[3]"
        }
      ],
      "stateMutability": "view",
      "type": "function"
    },
    {
      "inputs": [
        {
          "internalType": "uint256",
          "name": "",
          "type": "uint256"
        }
      ],
      "name": "minerCommitments",
      "outputs": [
        {
          "internalType": "address",
          "name": "miner",
          "type": "address"
        }
      ],
      "stateMutability": "view",
      "type": "function"
    },
    {
      "inputs": [
        {
          "internalType": "uint256",
          "name": "blockIndex",
          "type": "uint256"
        },
        {
          "internalType": "uint256",
          "name": "commitmentIndex",
          "type": "uint256"
        },
        {
          "internalType": "bytes",
          "name": "opening",
          "type": "bytes"
        }
      ],
      "name": "open",
      "outputs": [],
      "stateMutability": "nonpayable",
      "type": "function"
    },
    {
      "inputs": [
        {
          "internalType": "bytes32[]",
          "name": "newCommitments",
          "type": "bytes32[]"
        }
      ],
      "name": "registerCommitments",
      "outputs": [],
      "stateMutability": "nonpayable",
      "type": "function"
    }
  ],
  "bytecode": "0x608060405234801561001057600080fd5b50611c28806100206000396000f3fe608060405234801561001057600080fd5b506004361061007d5760003560e01c8063934f26c21161005b578063934f26c2146100de578063c595be78146100fa578063c7db1cd614610116578063e15595cb146101465761007d565b80630e170a3b146100825780631386bc86146100a05780637d639fab146100c0575b600080fd5b61008a61017a565b6040516100979190610efc565b60405180910390f35b6100a86102df565b6040516100b79392919061111e565b60405180910390f35b6100c861050d565b6040516100d5919061116b565b60405180910390f35b6100f860048036038101906100f391906112fb565b61061f565b005b610114600480360381019061010f919061145e565b610895565b005b610130600480360381019061012b91906114a7565b610aa8565b60405161013d91906114e3565b60405180910390f35b610160600480360381019061015b91906114a7565b610aec565b604051610171959493929190611557565b60405180910390f35b60606006805480602002602001604051908101604052809291908181526020016000905b828210156102d657838290600052602060002090600502016040518060a001604052908160008201548152602001600182015481526020016002820180546101e5906115e0565b80601f0160208091040260200160405190810160405280929190818152602001828054610211906115e0565b801561025e5780601f106102335761010080835404028352916020019161025e565b820191906000526020600020905b81548152906001019060200180831161024157829003601f168201915b505050505081526020016003820160009054906101000a900473ffffffffffffffffffffffffffffffffffffffff1673ffffffffffffffffffffffffffffffffffffffff1673ffffffffffffffffffffffffffffffffffffffff1681526020016004820154815250508152602001906001019061019e565b50505050905090565b6102e7610bda565b60606102f1610bfc565b6000805b60038110156103f7576000816003811061031257610311611611565b5b6002020160000160009054906101000a900473ffffffffffffffffffffffffffffffffffffffff1685826003811061034d5761034c611611565b5b602002019073ffffffffffffffffffffffffffffffffffffffff16908173ffffffffffffffffffffffffffffffffffffffff16815250506000816003811061039857610397611611565b5b60020201600101805490508382600381106103b6576103b5611611565b5b6020020181815250508281600381106103d2576103d1611611565b5b6020020151826103e2919061166f565b915080806103ef906116a3565b9150506102f5565b508067ffffffffffffffff811115610412576104116111d0565b5b6040519080825280602002602001820160405280156104405781602001602082028036833780820191505090505b5092506000805b60038110156105055760005b6000826003811061046757610466611611565b5b60020201600101805490508110156104f1576000826003811061048d5761048c611611565b5b6002020160010181815481106104a6576104a5611611565b5b90600052602060002001548684815181106104c4576104c3611611565b5b60200260200101818152505082806104db906116a3565b93505080806104e9906116a3565b915050610453565b5080806104fd906116a3565b915050610447565b505050909192565b6000606060005b60038110156105c85760005b6000826003811061053457610533611611565b5b60020201600101805490508110156105b457826000836003811061055b5761055a611611565b5b60020201600101828154811061057457610573611611565b5b9060005260206000200154604051602001610590929190611748565b604051602081830303815290604052925080806105ac906116a3565b915050610520565b5080806105c0906116a3565b915050610514565b506002816040516105d99190611770565b602060405180830381855afa1580156105f6573d6000803e3d6000fd5b5050506040513d601f19601f82011682018060405250810190610619919061179c565b91505090565b60038310610662576040517f08c379a000000000000000000000000000000000000000000000000000000000815260040161065990611826565b60405180910390fd5b600080846003811061067757610676611611565b5b6002020190503373ffffffffffffffffffffffffffffffffffffffff168160000160009054906101000a900473ffffffffffffffffffffffffffffffffffffffff1673ffffffffffffffffffffffffffffffffffffffff161461070f576040517f08c379a0000000000000000000000000000000000000000000000000000000008152600401610706906118b8565b60405180910390fd5b80600101805490508310610758576040517f08c379a000000000000000000000000000000000000000000000000000000000815260040161074f90611924565b60405180910390fd5b60066040518060a001604052808681526020018581526020018481526020013373ffffffffffffffffffffffffffffffffffffffff168152602001438152509080600181540180825580915050600190039060005260206000209060050201600090919091909150600082015181600001556020820151816001015560408201518160020190816107e99190611af0565b5060608201518160030160006101000a81548173ffffffffffffffffffffffffffffffffffffffff021916908373ffffffffffffffffffffffffffffffffffffffff1602179055506080820151816004015550503373ffffffffffffffffffffffffffffffffffffffff1683857f7185cf2d1b454facf3e69e90917fc8587b46b84d29437dd64de5a79c4becd9058543604051610887929190611bc2565b60405180910390a450505050565b60006001600381106108aa576108a9611611565b5b60020201600080600381106108c2576108c1611611565b5b600202016000820160009054906101000a900473ffffffffffffffffffffffffffffffffffffffff168160000160006101000a81548173ffffffffffffffffffffffffffffffffffffffff021916908373ffffffffffffffffffffffffffffffffffffffff1602179055506001820181600101908054610943929190610c1e565b50905050600060026003811061095c5761095b611611565b5b60020201600060016003811061097557610974611611565b5b600202016000820160009054906101000a900473ffffffffffffffffffffffffffffffffffffffff168160000160006101000a81548173ffffffffffffffffffffffffffffffffffffffff021916908373ffffffffffffffffffffffffffffffffffffffff16021790555060018201816001019080546109f6929190610c1e565b5090505060405180604001604052803373ffffffffffffffffffffffffffffffffffffffff168152602001828152506000600260038110610a3a57610a39611611565b5b6002020160008201518160000160006101000a81548173ffffffffffffffffffffffffffffffffffffffff021916908373ffffffffffffffffffffffffffffffffffffffff1602179055506020820151816001019080519060200190610aa1929190610c70565b5090505050565b60008160038110610ab857600080fd5b600202016000915090508060000160009054906101000a900473ffffffffffffffffffffffffffffffffffffffff16905081565b60068181548110610afc57600080fd5b9060005260206000209060050201600091509050806000015490806001015490806002018054610b2b906115e0565b80601f0160208091040260200160405190810160405280929190818152602001828054610b57906115e0565b8015610ba45780601f10610b7957610100808354040283529160200191610ba4565b820191906000526020600020905b815481529060010190602001808311610b8757829003601f168201915b5050505050908060030160009054906101000a900473ffffffffffffffffffffffffffffffffffffffff16908060040154905085565b6040518060600160405280600390602082028036833780820191505090505090565b6040518060600160405280600390602082028036833780820191505090505090565b828054828255906000526020600020908101928215610c5f5760005260206000209182015b82811115610c5e578254825591600101919060010190610c43565b5b509050610c6c9190610cbd565b5090565b828054828255906000526020600020908101928215610cac579160200282015b82811115610cab578251825591602001919060010190610c90565b5b509050610cb99190610cbd565b5090565b5b80821115610cd6576000816000905550600101610cbe565b5090565b600081519050919050565b600082825260208201905092915050565b6000819050602082019050919050565b6000819050919050565b610d1981610d06565b82525050565b600081519050919050565b600082825260208201905092915050565b60005b83811015610d59578082015181840152602081019050610d3e565b60008484015250505050565b6000601f19601f8301169050919050565b6000610d8182610d1f565b610d8b8185610d2a565b9350610d9b818560208601610d3b565b610da481610d65565b840191505092915050565b600073ffffffffffffffffffffffffffffffffffffffff82169050919050565b6000610dda82610daf565b9050919050565b610dea81610dcf565b82525050565b600060a083016000830151610e086000860182610d10565b506020830151610e1b6020860182610d10565b5060408301518482036040860152610e338282610d76565b9150506060830151610e486060860182610de1565b506080830151610e5b6080860182610d10565b508091505092915050565b6000610e728383610df0565b905092915050565b6000602082019050919050565b6000610e9282610cda565b610e9c8185610ce5565b935083602082028501610eae85610cf6565b8060005b85811015610eea5784840389528151610ecb8582610e66565b9450610ed683610e7a565b925060208a01995050600181019050610eb2565b50829750879550505050505092915050565b60006020820190508181036000830152610f168184610e87565b905092915050565b600060039050919050565b600081905092915050565b6000819050919050565b6000610f4a8383610de1565b60208301905092915050565b6000602082019050919050565b610f6c81610f1e565b610f768184610f29565b9250610f8182610f34565b8060005b83811015610fb2578151610f998782610f3e565b9650610fa483610f56565b925050600181019050610f85565b505050505050565b600081519050919050565b600082825260208201905092915050565b6000819050602082019050919050565b6000819050919050565b610ff981610fe6565b82525050565b600061100b8383610ff0565b60208301905092915050565b6000602082019050919050565b600061102f82610fba565b6110398185610fc5565b935061104483610fd6565b8060005b8381101561107557815161105c8882610fff565b975061106783611017565b925050600181019050611048565b5085935050505092915050565b600060039050919050565b600081905092915050565b6000819050919050565b60006110ae8383610d10565b60208301905092915050565b6000602082019050919050565b6110d081611082565b6110da818461108d565b92506110e582611098565b8060005b838110156111165781516110fd87826110a2565b9650611108836110ba565b9250506001810190506110e9565b505050505050565b600060e0820190506111336000830186610f63565b81810360608301526111458185611024565b905061115460808301846110c7565b949350505050565b61116581610fe6565b82525050565b6000602082019050611180600083018461115c565b92915050565b6000604051905090565b600080fd5b600080fd5b6111a381610d06565b81146111ae57600080fd5b50565b6000813590506111c08161119a565b92915050565b600080fd5b600080fd5b7f4e487b7100000000000000000000000000000000000000000000000000000000600052604160045260246000fd5b61120882610d65565b810181811067ffffffffffffffff82111715611227576112266111d0565b5b80604052505050565b600061123a611186565b905061124682826111ff565b919050565b600067ffffffffffffffff821115611266576112656111d0565b5b61126f82610d65565b9050602081019050919050565b82818337600083830152505050565b600061129e6112998461124b565b611230565b9050828152602081018484840111156112ba576112b96111cb565b5b6112c584828561127c565b509392505050565b600082601f8301126112e2576112e16111c6565b5b81356112f284826020860161128b565b91505092915050565b60008060006060848603121561131457611313611190565b5b6000611322868287016111b1565b9350506020611333868287016111b1565b925050604084013567ffffffffffffffff81111561135457611353611195565b5b611360868287016112cd565b9150509250925092565b600067ffffffffffffffff821115611385576113846111d0565b5b602082029050602081019050919050565b600080fd5b6113a481610fe6565b81146113af57600080fd5b50565b6000813590506113c18161139b565b92915050565b60006113da6113d58461136a565b611230565b905080838252602082019050602084028301858111156113fd576113fc611396565b5b835b81811015611426578061141288826113b2565b8452602084019350506020810190506113ff565b5050509392505050565b600082601f830112611445576114446111c6565b5b81356114558482602086016113c7565b91505092915050565b60006020828403121561147457611473611190565b5b600082013567ffffffffffffffff81111561149257611491611195565b5b61149e84828501611430565b91505092915050565b6000602082840312156114bd576114bc611190565b5b60006114cb848285016111b1565b91505092915050565b6114dd81610dcf565b82525050565b60006020820190506114f860008301846114d4565b92915050565b61150781610d06565b82525050565b600082825260208201905092915050565b600061152982610d1f565b611533818561150d565b9350611543818560208601610d3b565b61154c81610d65565b840191505092915050565b600060a08201905061156c60008301886114fe565b61157960208301876114fe565b818103604083015261158b818661151e565b905061159a60608301856114d4565b6115a760808301846114fe565b9695505050505050565b7f4e487b7100000000000000000000000000000000000000000000000000000000600052602260045260246000fd5b600060028204905060018216806115f857607f821691505b60208210810361160b5761160a6115b1565b5b50919050565b7f4e487b7100000000000000000000000000000000000000000000000000000000600052603260045260246000fd5b7f4e487b7100000000000000000000000000000000000000000000000000000000600052601160045260246000fd5b600061167a82610d06565b915061168583610d06565b925082820190508082111561169d5761169c611640565b5b92915050565b60006116ae82610d06565b91507fffffffffffffffffffffffffffffffffffffffffffffffffffffffffffffffff82036116e0576116df611640565b5b600182019050919050565b600081905092915050565b600061170182610d1f565b61170b81856116eb565b935061171b818560208601610d3b565b80840191505092915050565b6000819050919050565b61174261173d82610fe6565b611727565b82525050565b600061175482856116f6565b91506117608284611731565b6020820191508190509392505050565b600061177c82846116f6565b915081905092915050565b6000815190506117968161139b565b92915050565b6000602082840312156117b2576117b1611190565b5b60006117c084828501611787565b91505092915050565b600082825260208201905092915050565b7f496e76616c696420626c6f636b20696e64657800000000000000000000000000600082015250565b60006118106013836117c9565b915061181b826117da565b602082019050919050565b6000602082019050818103600083015261183f81611803565b9050919050565b7f4f6e6c7920746865206d696e65722063616e206f70656e20636f6d6d69746d6560008201527f6e74730000000000000000000000000000000000000000000000000000000000602082015250565b60006118a26023836117c9565b91506118ad82611846565b604082019050919050565b600060208201905081810360008301526118d181611895565b9050919050565b7f496e76616c696420636f6d6d69746d656e7420696e6465780000000000000000600082015250565b600061190e6018836117c9565b9150611919826118d8565b602082019050919050565b6000602082019050818103600083015261193d81611901565b9050919050565b60008190508160005260206000209050919050565b60006020601f8301049050919050565b600082821b905092915050565b6000600883026119a67fffffffffffffffffffffffffffffffffffffffffffffffffffffffffffffffff82611969565b6119b08683611969565b95508019841693508086168417925050509392505050565b6000819050919050565b60006119ed6119e86119e384610d06565b6119c8565b610d06565b9050919050565b6000819050919050565b611a07836119d2565b611a1b611a13826119f4565b848454611976565b825550505050565b600090565b611a30611a23565b611a3b8184846119fe565b505050565b5b81811015611a5f57611a54600082611a28565b600181019050611a41565b5050565b601f821115611aa457611a7581611944565b611a7e84611959565b81016020851015611a8d578190505b611aa1611a9985611959565b830182611a40565b50505b505050565b600082821c905092915050565b6000611ac760001984600802611aa9565b1980831691505092915050565b6000611ae08383611ab6565b9150826002028217905092915050565b611af982610d1f565b67ffffffffffffffff811115611b1257611b116111d0565b5b611b1c82546115e0565b611b27828285611a63565b600060209050601f831160018114611b5a5760008415611b48578287015190505b611b528582611ad4565b865550611bba565b601f198416611b6886611944565b60005b82811015611b9057848901518255600182019150602085019450602081019050611b6b565b86831015611bad5784890151611ba9601f891682611ab6565b8355505b6001600288020188555050505b505050505050565b60006040820190508181036000830152611bdc818561151e565b9050611beb60208301846114fe565b939250505056fea26469706673582212203bf5ca35f999496721913ec522f3e12ee1e03d3e44f895f75d8c96ea111ea2b464736f6c63430008120033",
  "linkReferences": {},
  "deployedLinkReferences": {}
}