{
  "_format": "hh-sol-artifact-1",
  "contractName": "AtomicSwap",
  "sourceName": "contracts/atomicSwap.sol",
  "abi": [
    {
      "inputs": [
        {
          "internalType": "address",
          "name": "_weth",
          "type": "address"
        }
      ],
      "stateMutability": "nonpayable",
      "type": "constructor"
    },
    {
      "stateMutability": "payable",
      "type": "fallback"
    },
    {
      "inputs": [],
      "name": "WETH",
      "outputs": [
        {
          "internalType": "address",
          "name": "",
          "type": "address"
        }
      ],
      "stateMutability": "view",
      "type": "function"
    },
    {
      "inputs": [],
      "name": "liquidate",
      "outputs": [],
      "stateMutability": "nonpayable",
      "type": "function"
    },
    {
      "inputs": [
        {
          "internalType": "address[]",
          "name": "path",
          "type": "address[]"
        },
        {
          "internalType": "uint256",
          "name": "amountIn",
          "type": "uint256"
        },
        {
          "internalType": "uint256",
          "name": "amountOutMin",
          "type": "uint256"
        },
        {
          "internalType": "address",
          "name": "factory",
          "type": "address"
        },
        {
          "internalType": "address",
          "name": "recipient",
          "type": "address"
        },
        {
          "internalType": "bool",
          "name": "fromThis",
          "type": "bool"
        }
      ],
      "name": "swap",
      "outputs": [],
      "stateMutability": "nonpayable",
      "type": "function"
    },
    {
      "stateMutability": "payable",
      "type": "receive"
    }
  ],
  "bytecode": "0x60806040523480156200001157600080fd5b5060405162001e7438038062001e7483398181016040528101906200003791906200016a565b806000806101000a81548173ffffffffffffffffffffffffffffffffffffffff021916908373ffffffffffffffffffffffffffffffffffffffff16021790555080600260006101000a81548173ffffffffffffffffffffffffffffffffffffffff021916908373ffffffffffffffffffffffffffffffffffffffff16021790555033600160006101000a81548173ffffffffffffffffffffffffffffffffffffffff021916908373ffffffffffffffffffffffffffffffffffffffff160217905550506200019c565b600080fd5b600073ffffffffffffffffffffffffffffffffffffffff82169050919050565b6000620001328262000105565b9050919050565b620001448162000125565b81146200015057600080fd5b50565b600081519050620001648162000139565b92915050565b60006020828403121562000183576200018262000100565b5b6000620001938482850162000153565b91505092915050565b611cc880620001ac6000396000f3fe6080604052600436106100385760003560e01c806328a07025146100bd578063ad5c4648146100d4578063d50bc57c146100ff57610082565b366100825760003411610080576040517f08c379a000000000000000000000000000000000000000000000000000000000815260040161007790610f32565b60405180910390fd5b005b6040517f08c379a00000000000000000000000000000000000000000000000000000000081526004016100b490610f9e565b60405180910390fd5b3480156100c957600080fd5b506100d2610128565b005b3480156100e057600080fd5b506100e9610318565b6040516100f69190610fff565b60405180910390f35b34801561010b57600080fd5b5061012660048036038101906101219190611221565b61033c565b005b600160009054906101000a900473ffffffffffffffffffffffffffffffffffffffff1673ffffffffffffffffffffffffffffffffffffffff163373ffffffffffffffffffffffffffffffffffffffff16146101b8576040517f08c379a00000000000000000000000000000000000000000000000000000000081526004016101af90611316565b60405180910390fd5b600260009054906101000a900473ffffffffffffffffffffffffffffffffffffffff1673ffffffffffffffffffffffffffffffffffffffff1663a9059cbb600160009054906101000a900473ffffffffffffffffffffffffffffffffffffffff16600260009054906101000a900473ffffffffffffffffffffffffffffffffffffffff1673ffffffffffffffffffffffffffffffffffffffff166370a08231306040518263ffffffff1660e01b81526004016102749190610fff565b602060405180830381865afa158015610291573d6000803e3d6000fd5b505050506040513d601f19601f820116820180604052508101906102b5919061134b565b6040518363ffffffff1660e01b81526004016102d2929190611387565b6020604051808303816000875af11580156102f1573d6000803e3d6000fd5b505050506040513d601f19601f8201168201806040525081019061031591906113c5565b50565b60008054906101000a900473ffffffffffffffffffffffffffffffffffffffff1681565b6000806103808589600081518110610357576103566113f2565b5b60200260200101518a600181518110610373576103726113f2565b5b6020026020010151610592565b915091506000610391888484610706565b9050868110156103d6576040517f08c379a00000000000000000000000000000000000000000000000000000000081526004016103cd90611493565b60405180910390fd5b60008673ffffffffffffffffffffffffffffffffffffffff1663e6a439058b600081518110610408576104076113f2565b5b60200260200101518c600181518110610424576104236113f2565b5b60200260200101516040518363ffffffff1660e01b81526004016104499291906114b3565b602060405180830381865afa158015610466573d6000803e3d6000fd5b505050506040513d601f19601f8201168201806040525081019061048a91906114f1565b90506000808273ffffffffffffffffffffffffffffffffffffffff16630dfe16816040518163ffffffff1660e01b8152600401602060405180830381865afa1580156104da573d6000803e3d6000fd5b505050506040513d601f19601f820116820180604052508101906104fe91906114f1565b73ffffffffffffffffffffffffffffffffffffffff168c600081518110610528576105276113f2565b5b602002602001015173ffffffffffffffffffffffffffffffffffffffff161461055357836000610557565b6000845b9150915061058482828e600081518110610574576105736113f2565b5b6020026020010151868c8c61080c565b505050505050505050505050565b60008060006105a18585610b77565b5090506000808773ffffffffffffffffffffffffffffffffffffffff1663e6a4390588886040518363ffffffff1660e01b81526004016105e29291906114b3565b602060405180830381865afa1580156105ff573d6000803e3d6000fd5b505050506040513d601f19601f8201168201806040525081019061062391906114f1565b73ffffffffffffffffffffffffffffffffffffffff16630902f1ac6040518163ffffffff1660e01b8152600401606060405180830381865afa15801561066d573d6000803e3d6000fd5b505050506040513d601f19601f8201168201806040525081019061069191906115a0565b506dffffffffffffffffffffffffffff1691506dffffffffffffffffffffffffffff1691508273ffffffffffffffffffffffffffffffffffffffff168773ffffffffffffffffffffffffffffffffffffffff16146106f05780826106f3565b81815b8095508196505050505050935093915050565b600080841161074a576040517f08c379a000000000000000000000000000000000000000000000000000000000815260040161074190611665565b60405180910390fd5b60008311801561075a5750600082115b610799576040517f08c379a0000000000000000000000000000000000000000000000000000000008152600401610790906116f7565b60405180910390fd5b60006107b06103e586610ca390919063ffffffff16565b905060006107c78483610ca390919063ffffffff16565b905060006107f2836107e46103e889610ca390919063ffffffff16565b610d1090919063ffffffff16565b905080826108009190611775565b93505050509392505050565b600083905060008590506000808373ffffffffffffffffffffffffffffffffffffffff16630902f1ac6040518163ffffffff1660e01b8152600401606060405180830381865afa158015610864573d6000803e3d6000fd5b505050506040513d601f19601f8201168201806040525081019061088891906115a0565b509150915060006109628973ffffffffffffffffffffffffffffffffffffffff168673ffffffffffffffffffffffffffffffffffffffff16630dfe16816040518163ffffffff1660e01b8152600401602060405180830381865afa1580156108f4573d6000803e3d6000fd5b505050506040513d601f19601f8201168201806040525081019061091891906114f1565b73ffffffffffffffffffffffffffffffffffffffff1614610939578a61093b565b8b5b846dffffffffffffffffffffffffffff16846dffffffffffffffffffffffffffff16610d69565b9050856109ee578373ffffffffffffffffffffffffffffffffffffffff166323b872dd338a846040518463ffffffff1660e01b81526004016109a6939291906117a6565b6020604051808303816000875af11580156109c5573d6000803e3d6000fd5b505050506040513d601f19601f820116820180604052508101906109e991906113c5565b610a6d565b8373ffffffffffffffffffffffffffffffffffffffff1663a9059cbb89836040518363ffffffff1660e01b8152600401610a29929190611387565b6020604051808303816000875af1158015610a48573d6000803e3d6000fd5b505050506040513d601f19601f82011682018060405250810190610a6c91906113c5565b5b610aac576040517f08c379a0000000000000000000000000000000000000000000000000000000008152600401610aa390611829565b60405180910390fd5b8473ffffffffffffffffffffffffffffffffffffffff1663022c0d9f8c8c8a600067ffffffffffffffff811115610ae657610ae5611044565b5b6040519080825280601f01601f191660200182016040528015610b185781602001600182028036833780820191505090505b506040518563ffffffff1660e01b8152600401610b3894939291906118c8565b600060405180830381600087803b158015610b5257600080fd5b505af1158015610b66573d6000803e3d6000fd5b505050505050505050505050505050565b6000808273ffffffffffffffffffffffffffffffffffffffff168473ffffffffffffffffffffffffffffffffffffffff1603610be8576040517f08c379a0000000000000000000000000000000000000000000000000000000008152600401610bdf90611986565b60405180910390fd5b8273ffffffffffffffffffffffffffffffffffffffff168473ffffffffffffffffffffffffffffffffffffffff1610610c22578284610c25565b83835b8092508193505050600073ffffffffffffffffffffffffffffffffffffffff168273ffffffffffffffffffffffffffffffffffffffff1603610c9c576040517f08c379a0000000000000000000000000000000000000000000000000000000008152600401610c93906119f2565b60405180910390fd5b9250929050565b600080821480610ccb575082828385610cbc9190611a12565b925082610cc99190611775565b145b610d0a576040517f08c379a0000000000000000000000000000000000000000000000000000000008152600401610d0190611aa0565b60405180910390fd5b92915050565b6000828284610d1f9190611ac0565b9150811015610d63576040517f08c379a0000000000000000000000000000000000000000000000000000000008152600401610d5a90611b40565b60405180910390fd5b92915050565b6000808411610dad576040517f08c379a0000000000000000000000000000000000000000000000000000000008152600401610da490611bd2565b60405180910390fd5b600083118015610dbd5750600082115b610dfc576040517f08c379a0000000000000000000000000000000000000000000000000000000008152600401610df3906116f7565b60405180910390fd5b6000610e256103e8610e178787610ca390919063ffffffff16565b610ca390919063ffffffff16565b90506000610e506103e5610e428887610e7c90919063ffffffff16565b610ca390919063ffffffff16565b9050610e7160018284610e639190611775565b610d1090919063ffffffff16565b925050509392505050565b6000828284610e8b9190611bf2565b9150811115610ecf576040517f08c379a0000000000000000000000000000000000000000000000000000000008152600401610ec690611c72565b60405180910390fd5b92915050565b600082825260208201905092915050565b7f4d7573742073656e642045544800000000000000000000000000000000000000600082015250565b6000610f1c600d83610ed5565b9150610f2782610ee6565b602082019050919050565b60006020820190508181036000830152610f4b81610f0f565b9050919050565b7f46756e6374696f6e20646f6573206e6f74206578697374000000000000000000600082015250565b6000610f88601783610ed5565b9150610f9382610f52565b602082019050919050565b60006020820190508181036000830152610fb781610f7b565b9050919050565b600073ffffffffffffffffffffffffffffffffffffffff82169050919050565b6000610fe982610fbe565b9050919050565b610ff981610fde565b82525050565b60006020820190506110146000830184610ff0565b92915050565b6000604051905090565b600080fd5b600080fd5b600080fd5b6000601f19601f8301169050919050565b7f4e487b7100000000000000000000000000000000000000000000000000000000600052604160045260246000fd5b61107c82611033565b810181811067ffffffffffffffff8211171561109b5761109a611044565b5b80604052505050565b60006110ae61101a565b90506110ba8282611073565b919050565b600067ffffffffffffffff8211156110da576110d9611044565b5b602082029050602081019050919050565b600080fd5b6110f981610fde565b811461110457600080fd5b50565b600081359050611116816110f0565b92915050565b600061112f61112a846110bf565b6110a4565b90508083825260208201905060208402830185811115611152576111516110eb565b5b835b8181101561117b57806111678882611107565b845260208401935050602081019050611154565b5050509392505050565b600082601f83011261119a5761119961102e565b5b81356111aa84826020860161111c565b91505092915050565b6000819050919050565b6111c6816111b3565b81146111d157600080fd5b50565b6000813590506111e3816111bd565b92915050565b60008115159050919050565b6111fe816111e9565b811461120957600080fd5b50565b60008135905061121b816111f5565b92915050565b60008060008060008060c0878903121561123e5761123d611024565b5b600087013567ffffffffffffffff81111561125c5761125b611029565b5b61126889828a01611185565b965050602061127989828a016111d4565b955050604061128a89828a016111d4565b945050606061129b89828a01611107565b93505060806112ac89828a01611107565b92505060a06112bd89828a0161120c565b9150509295509295509295565b7f6e6f7420616c6c6f776564000000000000000000000000000000000000000000600082015250565b6000611300600b83610ed5565b915061130b826112ca565b602082019050919050565b6000602082019050818103600083015261132f816112f3565b9050919050565b600081519050611345816111bd565b92915050565b60006020828403121561136157611360611024565b5b600061136f84828501611336565b91505092915050565b611381816111b3565b82525050565b600060408201905061139c6000830185610ff0565b6113a96020830184611378565b9392505050565b6000815190506113bf816111f5565b92915050565b6000602082840312156113db576113da611024565b5b60006113e9848285016113b0565b91505092915050565b7f4e487b7100000000000000000000000000000000000000000000000000000000600052603260045260246000fd5b7f41746f6d6963537761703a20494e53554646494349454e545f4f55545055545f60008201527f414d4f554e540000000000000000000000000000000000000000000000000000602082015250565b600061147d602683610ed5565b915061148882611421565b604082019050919050565b600060208201905081810360008301526114ac81611470565b9050919050565b60006040820190506114c86000830185610ff0565b6114d56020830184610ff0565b9392505050565b6000815190506114eb816110f0565b92915050565b60006020828403121561150757611506611024565b5b6000611515848285016114dc565b91505092915050565b60006dffffffffffffffffffffffffffff82169050919050565b6115418161151e565b811461154c57600080fd5b50565b60008151905061155e81611538565b92915050565b600063ffffffff82169050919050565b61157d81611564565b811461158857600080fd5b50565b60008151905061159a81611574565b92915050565b6000806000606084860312156115b9576115b8611024565b5b60006115c78682870161154f565b93505060206115d88682870161154f565b92505060406115e98682870161158b565b9150509250925092565b7f556e697377617056324c6962726172793a20494e53554646494349454e545f4960008201527f4e5055545f414d4f554e54000000000000000000000000000000000000000000602082015250565b600061164f602b83610ed5565b915061165a826115f3565b604082019050919050565b6000602082019050818103600083015261167e81611642565b9050919050565b7f556e697377617056324c6962726172793a20494e53554646494349454e545f4c60008201527f4951554944495459000000000000000000000000000000000000000000000000602082015250565b60006116e1602883610ed5565b91506116ec82611685565b604082019050919050565b60006020820190508181036000830152611710816116d4565b9050919050565b7f4e487b7100000000000000000000000000000000000000000000000000000000600052601260045260246000fd5b7f4e487b7100000000000000000000000000000000000000000000000000000000600052601160045260246000fd5b6000611780826111b3565b915061178b836111b3565b92508261179b5761179a611717565b5b828204905092915050565b60006060820190506117bb6000830186610ff0565b6117c86020830185610ff0565b6117d56040830184611378565b949350505050565b7f7472616e73666572206661696c65640000000000000000000000000000000000600082015250565b6000611813600f83610ed5565b915061181e826117dd565b602082019050919050565b6000602082019050818103600083015261184281611806565b9050919050565b600081519050919050565b600082825260208201905092915050565b60005b83811015611883578082015181840152602081019050611868565b60008484015250505050565b600061189a82611849565b6118a48185611854565b93506118b4818560208601611865565b6118bd81611033565b840191505092915050565b60006080820190506118dd6000830187611378565b6118ea6020830186611378565b6118f76040830185610ff0565b8181036060830152611909818461188f565b905095945050505050565b7f556e697377617056324c6962726172793a204944454e544943414c5f4144445260008201527f4553534553000000000000000000000000000000000000000000000000000000602082015250565b6000611970602583610ed5565b915061197b82611914565b604082019050919050565b6000602082019050818103600083015261199f81611963565b9050919050565b7f556e697377617056324c6962726172793a205a45524f5f414444524553530000600082015250565b60006119dc601e83610ed5565b91506119e7826119a6565b602082019050919050565b60006020820190508181036000830152611a0b816119cf565b9050919050565b6000611a1d826111b3565b9150611a28836111b3565b9250828202611a36816111b3565b91508282048414831517611a4d57611a4c611746565b5b5092915050565b7f64732d6d6174682d6d756c2d6f766572666c6f77000000000000000000000000600082015250565b6000611a8a601483610ed5565b9150611a9582611a54565b602082019050919050565b60006020820190508181036000830152611ab981611a7d565b9050919050565b6000611acb826111b3565b9150611ad6836111b3565b9250828201905080821115611aee57611aed611746565b5b92915050565b7f64732d6d6174682d6164642d6f766572666c6f77000000000000000000000000600082015250565b6000611b2a601483610ed5565b9150611b3582611af4565b602082019050919050565b60006020820190508181036000830152611b5981611b1d565b9050919050565b7f556e697377617056324c6962726172793a20494e53554646494349454e545f4f60008201527f55545055545f414d4f554e540000000000000000000000000000000000000000602082015250565b6000611bbc602c83610ed5565b9150611bc782611b60565b604082019050919050565b60006020820190508181036000830152611beb81611baf565b9050919050565b6000611bfd826111b3565b9150611c08836111b3565b9250828203905081811115611c2057611c1f611746565b5b92915050565b7f64732d6d6174682d7375622d756e646572666c6f770000000000000000000000600082015250565b6000611c5c601583610ed5565b9150611c6782611c26565b602082019050919050565b60006020820190508181036000830152611c8b81611c4f565b905091905056fea2646970667358221220e9c1cae9897529e86ff6ca4b41f5ac0d4990ed55add0959dddc284a83eb0b63e64736f6c63430008120033",
  "linkReferences": {},
  "deployedLinkReferences": {}
}