{"contracts/MinerCommitmentTracker.sol":{"MinerCommitmentTracker":{"abi":[{"anonymous":false,"inputs":[{"indexed":true,"internalType":"uint256","name":"blockIndex","type":"uint256"},{"indexed":true,"internalType":"uint256","name":"commitmentIndex","type":"uint256"},{"indexed":false,"internalType":"bytes","name":"opening","type":"bytes"},{"indexed":true,"internalType":"address","name":"opener","type":"address"},{"indexed":false,"internalType":"uint256","name":"blockNumber","type":"uint256"}],"name":"CommitmentOpened","type":"event"},{"inputs":[{"internalType":"uint256","name":"","type":"uint256"}],"name":"commitmentOpenings","outputs":[{"internalType":"uint256","name":"blockIndex","type":"uint256"},{"internalType":"uint256","name":"commitmentIndex","type":"uint256"},{"internalType":"bytes","name":"opening","type":"bytes"},{"internalType":"address","name":"opener","type":"address"},{"internalType":"uint256","name":"blockNumber","type":"uint256"}],"stateMutability":"view","type":"function"},{"inputs":[],"name":"computeFinalSeed","outputs":[{"internalType":"bytes32","name":"","type":"bytes32"}],"stateMutability":"view","type":"function"},{"inputs":[],"name":"getCommitmentOpenings","outputs":[{"components":[{"internalType":"uint256","name":"blockIndex","type":"uint256"},{"internalType":"uint256","name":"commitmentIndex","type":"uint256"},{"internalType":"bytes","name":"opening","type":"bytes"},{"internalType":"address","name":"opener","type":"address"},{"internalType":"uint256","name":"blockNumber","type":"uint256"}],"internalType":"struct MinerCommitmentTracker.CommitmentOpening[]","name":"","type":"tuple[]"}],"stateMutability":"view","type":"function"},{"inputs":[],"name":"getSeeds","outputs":[{"internalType":"address[3]","name":"miners","type":"address[3]"},{"internalType":"bytes32[]","name":"commitments","type":"bytes32[]"},{"internalType":"uint256[3]","name":"commitmentLengths","type":"uint256[3]"}],"stateMutability":"view","type":"function"},{"inputs":[{"internalType":"uint256","name":"","type":"uint256"}],"name":"minerCommitments","outputs":[{"internalType":"address","name":"miner","type":"address"}],"stateMutability":"view","type":"function"},{"inputs":[{"internalType":"uint256","name":"blockIndex","type":"uint256"},{"internalType":"uint256","name":"commitmentIndex","type":"uint256"},{"internalType":"bytes","name":"opening","type":"bytes"}],"name":"open","outputs":[],"stateMutability":"nonpayable","type":"function"},{"inputs":[{"internalType":"bytes32[]","name":"newCommitments","type":"bytes32[]"}],"name":"registerCommitments","outputs":[],"stateMutability":"nonpayable","type":"function"}],"evm":{"bytecode":{"linkReferences":{},"object":"608060405234801561001057600080fd5b50611c28806100206000396000f3fe608060405234801561001057600080fd5b506004361061007d5760003560e01c8063934f26c21161005b578063934f26c2146100de578063c595be78146100fa578063c7db1cd614610116578063e15595cb146101465761007d565b80630e170a3b146100825780631386bc86146100a05780637d639fab146100c0575b600080fd5b61008a61017a565b6040516100979190610efc565b60405180910390f35b6100a86102df565b6040516100b79392919061111e565b60405180910390f35b6100c861050d565b6040516100d5919061116b565b60405180910390f35b6100f860048036038101906100f391906112fb565b61061f565b005b610114600480360381019061010f919061145e565b610895565b005b610130600480360381019061012b91906114a7565b610aa8565b60405161013d91906114e3565b60405180910390f35b610160600480360381019061015b91906114a7565b610aec565b604051610171959493929190611557565b60405180910390f35b60606006805480602002602001604051908101604052809291908181526020016000905b828210156102d657838290600052602060002090600502016040518060a001604052908160008201548152602001600182015481526020016002820180546101e5906115e0565b80601f0160208091040260200160405190810160405280929190818152602001828054610211906115e0565b801561025e5780601f106102335761010080835404028352916020019161025e565b820191906000526020600020905b81548152906001019060200180831161024157829003601f168201915b505050505081526020016003820160009054906101000a900473ffffffffffffffffffffffffffffffffffffffff1673ffffffffffffffffffffffffffffffffffffffff1673ffffffffffffffffffffffffffffffffffffffff1681526020016004820154815250508152602001906001019061019e565b50505050905090565b6102e7610bda565b60606102f1610bfc565b6000805b60038110156103f7576000816003811061031257610311611611565b5b6002020160000160009054906101000a900473ffffffffffffffffffffffffffffffffffffffff1685826003811061034d5761034c611611565b5b602002019073ffffffffffffffffffffffffffffffffffffffff16908173ffffffffffffffffffffffffffffffffffffffff16815250506000816003811061039857610397611611565b5b60020201600101805490508382600381106103b6576103b5611611565b5b6020020181815250508281600381106103d2576103d1611611565b5b6020020151826103e2919061166f565b915080806103ef906116a3565b9150506102f5565b508067ffffffffffffffff811115610412576104116111d0565b5b6040519080825280602002602001820160405280156104405781602001602082028036833780820191505090505b5092506000805b60038110156105055760005b6000826003811061046757610466611611565b5b60020201600101805490508110156104f1576000826003811061048d5761048c611611565b5b6002020160010181815481106104a6576104a5611611565b5b90600052602060002001548684815181106104c4576104c3611611565b5b60200260200101818152505082806104db906116a3565b93505080806104e9906116a3565b915050610453565b5080806104fd906116a3565b915050610447565b505050909192565b6000606060005b60038110156105c85760005b6000826003811061053457610533611611565b5b60020201600101805490508110156105b457826000836003811061055b5761055a611611565b5b60020201600101828154811061057457610573611611565b5b9060005260206000200154604051602001610590929190611748565b604051602081830303815290604052925080806105ac906116a3565b915050610520565b5080806105c0906116a3565b915050610514565b506002816040516105d99190611770565b602060405180830381855afa1580156105f6573d6000803e3d6000fd5b5050506040513d601f19601f82011682018060405250810190610619919061179c565b91505090565b60038310610662576040517f08c379a000000000000000000000000000000000000000000000000000000000815260040161065990611826565b60405180910390fd5b600080846003811061067757610676611611565b5b6002020190503373ffffffffffffffffffffffffffffffffffffffff168160000160009054906101000a900473ffffffffffffffffffffffffffffffffffffffff1673ffffffffffffffffffffffffffffffffffffffff161461070f576040517f08c379a0000000000000000000000000000000000000000000000000000000008152600401610706906118b8565b60405180910390fd5b80600101805490508310610758576040517f08c379a000000000000000000000000000000000000000000000000000000000815260040161074f90611924565b60405180910390fd5b60066040518060a001604052808681526020018581526020018481526020013373ffffffffffffffffffffffffffffffffffffffff168152602001438152509080600181540180825580915050600190039060005260206000209060050201600090919091909150600082015181600001556020820151816001015560408201518160020190816107e99190611af0565b5060608201518160030160006101000a81548173ffffffffffffffffffffffffffffffffffffffff021916908373ffffffffffffffffffffffffffffffffffffffff1602179055506080820151816004015550503373ffffffffffffffffffffffffffffffffffffffff1683857f7185cf2d1b454facf3e69e90917fc8587b46b84d29437dd64de5a79c4becd9058543604051610887929190611bc2565b60405180910390a450505050565b60006001600381106108aa576108a9611611565b5b60020201600080600381106108c2576108c1611611565b5b600202016000820160009054906101000a900473ffffffffffffffffffffffffffffffffffffffff168160000160006101000a81548173ffffffffffffffffffffffffffffffffffffffff021916908373ffffffffffffffffffffffffffffffffffffffff1602179055506001820181600101908054610943929190610c1e565b50905050600060026003811061095c5761095b611611565b5b60020201600060016003811061097557610974611611565b5b600202016000820160009054906101000a900473ffffffffffffffffffffffffffffffffffffffff168160000160006101000a81548173ffffffffffffffffffffffffffffffffffffffff021916908373ffffffffffffffffffffffffffffffffffffffff16021790555060018201816001019080546109f6929190610c1e565b5090505060405180604001604052803373ffffffffffffffffffffffffffffffffffffffff168152602001828152506000600260038110610a3a57610a39611611565b5b6002020160008201518160000160006101000a81548173ffffffffffffffffffffffffffffffffffffffff021916908373ffffffffffffffffffffffffffffffffffffffff1602179055506020820151816001019080519060200190610aa1929190610c70565b5090505050565b60008160038110610ab857600080fd5b600202016000915090508060000160009054906101000a900473ffffffffffffffffffffffffffffffffffffffff16905081565b60068181548110610afc57600080fd5b9060005260206000209060050201600091509050806000015490806001015490806002018054610b2b906115e0565b80601f0160208091040260200160405190810160405280929190818152602001828054610b57906115e0565b8015610ba45780601f10610b7957610100808354040283529160200191610ba4565b820191906000526020600020905b815481529060010190602001808311610b8757829003601f168201915b5050505050908060030160009054906101000a900473ffffffffffffffffffffffffffffffffffffffff16908060040154905085565b6040518060600160405280600390602082028036833780820191505090505090565b6040518060600160405280600390602082028036833780820191505090505090565b828054828255906000526020600020908101928215610c5f5760005260206000209182015b82811115610c5e578254825591600101919060010190610c43565b5b509050610c6c9190610cbd565b5090565b828054828255906000526020600020908101928215610cac579160200282015b82811115610cab578251825591602001919060010190610c90565b5b509050610cb99190610cbd565b5090565b5b80821115610cd6576000816000905550600101610cbe565b5090565b600081519050919050565b600082825260208201905092915050565b6000819050602082019050919050565b6000819050919050565b610d1981610d06565b82525050565b600081519050919050565b600082825260208201905092915050565b60005b83811015610d59578082015181840152602081019050610d3e565b60008484015250505050565b6000601f19601f8301169050919050565b6000610d8182610d1f565b610d8b8185610d2a565b9350610d9b818560208601610d3b565b610da481610d65565b840191505092915050565b600073ffffffffffffffffffffffffffffffffffffffff82169050919050565b6000610dda82610daf565b9050919050565b610dea81610dcf565b82525050565b600060a083016000830151610e086000860182610d10565b506020830151610e1b6020860182610d10565b5060408301518482036040860152610e338282610d76565b9150506060830151610e486060860182610de1565b506080830151610e5b6080860182610d10565b508091505092915050565b6000610e728383610df0565b905092915050565b6000602082019050919050565b6000610e9282610cda565b610e9c8185610ce5565b935083602082028501610eae85610cf6565b8060005b85811015610eea5784840389528151610ecb8582610e66565b9450610ed683610e7a565b925060208a01995050600181019050610eb2565b50829750879550505050505092915050565b60006020820190508181036000830152610f168184610e87565b905092915050565b600060039050919050565b600081905092915050565b6000819050919050565b6000610f4a8383610de1565b60208301905092915050565b6000602082019050919050565b610f6c81610f1e565b610f768184610f29565b9250610f8182610f34565b8060005b83811015610fb2578151610f998782610f3e565b9650610fa483610f56565b925050600181019050610f85565b505050505050565b600081519050919050565b600082825260208201905092915050565b6000819050602082019050919050565b6000819050919050565b610ff981610fe6565b82525050565b600061100b8383610ff0565b60208301905092915050565b6000602082019050919050565b600061102f82610fba565b6110398185610fc5565b935061104483610fd6565b8060005b8381101561107557815161105c8882610fff565b975061106783611017565b925050600181019050611048565b5085935050505092915050565b600060039050919050565b600081905092915050565b6000819050919050565b60006110ae8383610d10565b60208301905092915050565b6000602082019050919050565b6110d081611082565b6110da818461108d565b92506110e582611098565b8060005b838110156111165781516110fd87826110a2565b9650611108836110ba565b9250506001810190506110e9565b505050505050565b600060e0820190506111336000830186610f63565b81810360608301526111458185611024565b905061115460808301846110c7565b949350505050565b61116581610fe6565b82525050565b6000602082019050611180600083018461115c565b92915050565b6000604051905090565b600080fd5b600080fd5b6111a381610d06565b81146111ae57600080fd5b50565b6000813590506111c08161119a565b92915050565b600080fd5b600080fd5b7f4e487b7100000000000000000000000000000000000000000000000000000000600052604160045260246000fd5b61120882610d65565b810181811067ffffffffffffffff82111715611227576112266111d0565b5b80604052505050565b600061123a611186565b905061124682826111ff565b919050565b600067ffffffffffffffff821115611266576112656111d0565b5b61126f82610d65565b9050602081019050919050565b82818337600083830152505050565b600061129e6112998461124b565b611230565b9050828152602081018484840111156112ba576112b96111cb565b5b6112c584828561127c565b509392505050565b600082601f8301126112e2576112e16111c6565b5b81356112f284826020860161128b565b91505092915050565b60008060006060848603121561131457611313611190565b5b6000611322868287016111b1565b9350506020611333868287016111b1565b925050604084013567ffffffffffffffff81111561135457611353611195565b5b611360868287016112cd565b9150509250925092565b600067ffffffffffffffff821115611385576113846111d0565b5b602082029050602081019050919050565b600080fd5b6113a481610fe6565b81146113af57600080fd5b50565b6000813590506113c18161139b565b92915050565b60006113da6113d58461136a565b611230565b905080838252602082019050602084028301858111156113fd576113fc611396565b5b835b81811015611426578061141288826113b2565b8452602084019350506020810190506113ff565b5050509392505050565b600082601f830112611445576114446111c6565b5b81356114558482602086016113c7565b91505092915050565b60006020828403121561147457611473611190565b5b600082013567ffffffffffffffff81111561149257611491611195565b5b61149e84828501611430565b91505092915050565b6000602082840312156114bd576114bc611190565b5b60006114cb848285016111b1565b91505092915050565b6114dd81610dcf565b82525050565b60006020820190506114f860008301846114d4565b92915050565b61150781610d06565b82525050565b600082825260208201905092915050565b600061152982610d1f565b611533818561150d565b9350611543818560208601610d3b565b61154c81610d65565b840191505092915050565b600060a08201905061156c60008301886114fe565b61157960208301876114fe565b818103604083015261158b818661151e565b905061159a60608301856114d4565b6115a760808301846114fe565b9695505050505050565b7f4e487b7100000000000000000000000000000000000000000000000000000000600052602260045260246000fd5b600060028204905060018216806115f857607f821691505b60208210810361160b5761160a6115b1565b5b50919050565b7f4e487b7100000000000000000000000000000000000000000000000000000000600052603260045260246000fd5b7f4e487b7100000000000000000000000000000000000000000000000000000000600052601160045260246000fd5b600061167a82610d06565b915061168583610d06565b925082820190508082111561169d5761169c611640565b5b92915050565b60006116ae82610d06565b91507fffffffffffffffffffffffffffffffffffffffffffffffffffffffffffffffff82036116e0576116df611640565b5b600182019050919050565b600081905092915050565b600061170182610d1f565b61170b81856116eb565b935061171b818560208601610d3b565b80840191505092915050565b6000819050919050565b61174261173d82610fe6565b611727565b82525050565b600061175482856116f6565b91506117608284611731565b6020820191508190509392505050565b600061177c82846116f6565b915081905092915050565b6000815190506117968161139b565b92915050565b6000602082840312156117b2576117b1611190565b5b60006117c084828501611787565b91505092915050565b600082825260208201905092915050565b7f496e76616c696420626c6f636b20696e64657800000000000000000000000000600082015250565b60006118106013836117c9565b915061181b826117da565b602082019050919050565b6000602082019050818103600083015261183f81611803565b9050919050565b7f4f6e6c7920746865206d696e65722063616e206f70656e20636f6d6d69746d6560008201527f6e74730000000000000000000000000000000000000000000000000000000000602082015250565b60006118a26023836117c9565b91506118ad82611846565b604082019050919050565b600060208201905081810360008301526118d181611895565b9050919050565b7f496e76616c696420636f6d6d69746d656e7420696e6465780000000000000000600082015250565b600061190e6018836117c9565b9150611919826118d8565b602082019050919050565b6000602082019050818103600083015261193d81611901565b9050919050565b60008190508160005260206000209050919050565b60006020601f8301049050919050565b600082821b905092915050565b6000600883026119a67fffffffffffffffffffffffffffffffffffffffffffffffffffffffffffffffff82611969565b6119b08683611969565b95508019841693508086168417925050509392505050565b6000819050919050565b60006119ed6119e86119e384610d06565b6119c8565b610d06565b9050919050565b6000819050919050565b611a07836119d2565b611a1b611a13826119f4565b848454611976565b825550505050565b600090565b611a30611a23565b611a3b8184846119fe565b505050565b5b81811015611a5f57611a54600082611a28565b600181019050611a41565b5050565b601f821115611aa457611a7581611944565b611a7e84611959565b81016020851015611a8d578190505b611aa1611a9985611959565b830182611a40565b50505b505050565b600082821c905092915050565b6000611ac760001984600802611aa9565b1980831691505092915050565b6000611ae08383611ab6565b9150826002028217905092915050565b611af982610d1f565b67ffffffffffffffff811115611b1257611b116111d0565b5b611b1c82546115e0565b611b27828285611a63565b600060209050601f831160018114611b5a5760008415611b48578287015190505b611b528582611ad4565b865550611bba565b601f198416611b6886611944565b60005b82811015611b9057848901518255600182019150602085019450602081019050611b6b565b86831015611bad5784890151611ba9601f891682611ab6565b8355505b6001600288020188555050505b505050505050565b60006040820190508181036000830152611bdc818561151e565b9050611beb60208301846114fe565b939250505056fea26469706673582212203bf5ca35f999496721913ec522f3e12ee1e03d3e44f895f75d8c96ea111ea2b464736f6c63430008120033","opcodes":"PUSH1 0x80 PUSH1 0x40 MSTORE CALLVALUE DUP1 ISZERO PUSH2 0x10 JUMPI PUSH1 0x0 DUP1 REVERT JUMPDEST POP PUSH2 0x1C28 DUP1 PUSH2 0x20 PUSH1 0x0 CODECOPY PUSH1 0x0 RETURN INVALID PUSH1 0x80 PUSH1 0x40 MSTORE CALLVALUE DUP1 ISZERO PUSH2 0x10 JUMPI PUSH1 0x0 DUP1 REVERT JUMPDEST POP PUSH1 0x4 CALLDATASIZE LT PUSH2 0x7D JUMPI PUSH1 0x0 CALLDATALOAD PUSH1 0xE0 SHR DUP1 PUSH4 0x934F26C2 GT PUSH2 0x5B JUMPI DUP1 PUSH4 0x934F26C2 EQ PUSH2 0xDE JUMPI DUP1 PUSH4 0xC595BE78 EQ PUSH2 0xFA JUMPI DUP1 PUSH4 0xC7DB1CD6 EQ PUSH2 0x116 JUMPI DUP1 PUSH4 0xE15595CB EQ PUSH2 0x146 JUMPI PUSH2 0x7D JUMP JUMPDEST DUP1 PUSH4 0xE170A3B EQ PUSH2 0x82 JUMPI DUP1 PUSH4 0x1386BC86 EQ PUSH2 0xA0 JUMPI DUP1 PUSH4 0x7D639FAB EQ PUSH2 0xC0 JUMPI JUMPDEST PUSH1 0x0 DUP1 REVERT JUMPDEST PUSH2 0x8A PUSH2 0x17A JUMP JUMPDEST PUSH1 0x40 MLOAD PUSH2 0x97 SWAP2 SWAP1 PUSH2 0xEFC JUMP JUMPDEST PUSH1 0x40 MLOAD DUP1 SWAP2 SUB SWAP1 RETURN JUMPDEST PUSH2 0xA8 PUSH2 0x2DF JUMP JUMPDEST PUSH1 0x40 MLOAD PUSH2 0xB7 SWAP4 SWAP3 SWAP2 SWAP1 PUSH2 0x111E JUMP JUMPDEST PUSH1 0x40 MLOAD DUP1 SWAP2 SUB SWAP1 RETURN JUMPDEST PUSH2 0xC8 PUSH2 0x50D JUMP JUMPDEST PUSH1 0x40 MLOAD PUSH2 0xD5 SWAP2 SWAP1 PUSH2 0x116B JUMP JUMPDEST PUSH1 0x40 MLOAD DUP1 SWAP2 SUB SWAP1 RETURN JUMPDEST PUSH2 0xF8 PUSH1 0x4 DUP1 CALLDATASIZE SUB DUP2 ADD SWAP1 PUSH2 0xF3 SWAP2 SWAP1 PUSH2 0x12FB JUMP JUMPDEST PUSH2 0x61F JUMP JUMPDEST STOP JUMPDEST PUSH2 0x114 PUSH1 0x4 DUP1 CALLDATASIZE SUB DUP2 ADD SWAP1 PUSH2 0x10F SWAP2 SWAP1 PUSH2 0x145E JUMP JUMPDEST PUSH2 0x895 JUMP JUMPDEST STOP JUMPDEST PUSH2 0x130 PUSH1 0x4 DUP1 CALLDATASIZE SUB DUP2 ADD SWAP1 PUSH2 0x12B SWAP2 SWAP1 PUSH2 0x14A7 JUMP JUMPDEST PUSH2 0xAA8 JUMP JUMPDEST PUSH1 0x40 MLOAD PUSH2 0x13D SWAP2 SWAP1 PUSH2 0x14E3 JUMP JUMPDEST PUSH1 0x40 MLOAD DUP1 SWAP2 SUB SWAP1 RETURN JUMPDEST PUSH2 0x160 PUSH1 0x4 DUP1 CALLDATASIZE SUB DUP2 ADD SWAP1 PUSH2 0x15B SWAP2 SWAP1 PUSH2 0x14A7 JUMP JUMPDEST PUSH2 0xAEC JUMP JUMPDEST PUSH1 0x40 MLOAD PUSH2 0x171 SWAP6 SWAP5 SWAP4 SWAP3 SWAP2 SWAP1 PUSH2 0x1557 JUMP JUMPDEST PUSH1 0x40 MLOAD DUP1 SWAP2 SUB SWAP1 RETURN JUMPDEST PUSH1 0x60 PUSH1 0x6 DUP1 SLOAD DUP1 PUSH1 0x20 MUL PUSH1 0x20 ADD PUSH1 0x40 MLOAD SWAP1 DUP2 ADD PUSH1 0x40 MSTORE DUP1 SWAP3 SWAP2 SWAP1 DUP2 DUP2 MSTORE PUSH1 0x20 ADD PUSH1 0x0 SWAP1 JUMPDEST DUP3 DUP3 LT ISZERO PUSH2 0x2D6 JUMPI DUP4 DUP3 SWAP1 PUSH1 0x0 MSTORE PUSH1 0x20 PUSH1 0x0 KECCAK256 SWAP1 PUSH1 0x5 MUL ADD PUSH1 0x40 MLOAD DUP1 PUSH1 0xA0 ADD PUSH1 0x40 MSTORE SWAP1 DUP2 PUSH1 0x0 DUP3 ADD SLOAD DUP2 MSTORE PUSH1 0x20 ADD PUSH1 0x1 DUP3 ADD SLOAD DUP2 MSTORE PUSH1 0x20 ADD PUSH1 0x2 DUP3 ADD DUP1 SLOAD PUSH2 0x1E5 SWAP1 PUSH2 0x15E0 JUMP JUMPDEST DUP1 PUSH1 0x1F ADD PUSH1 0x20 DUP1 SWAP2 DIV MUL PUSH1 0x20 ADD PUSH1 0x40 MLOAD SWAP1 DUP2 ADD PUSH1 0x40 MSTORE DUP1 SWAP3 SWAP2 SWAP1 DUP2 DUP2 MSTORE PUSH1 0x20 ADD DUP3 DUP1 SLOAD PUSH2 0x211 SWAP1 PUSH2 0x15E0 JUMP JUMPDEST DUP1 ISZERO PUSH2 0x25E JUMPI DUP1 PUSH1 0x1F LT PUSH2 0x233 JUMPI PUSH2 0x100 DUP1 DUP4 SLOAD DIV MUL DUP4 MSTORE SWAP2 PUSH1 0x20 ADD SWAP2 PUSH2 0x25E JUMP JUMPDEST DUP3 ADD SWAP2 SWAP1 PUSH1 0x0 MSTORE PUSH1 0x20 PUSH1 0x0 KECCAK256 SWAP1 JUMPDEST DUP2 SLOAD DUP2 MSTORE SWAP1 PUSH1 0x1 ADD SWAP1 PUSH1 0x20 ADD DUP1 DUP4 GT PUSH2 0x241 JUMPI DUP3 SWAP1 SUB PUSH1 0x1F AND DUP3 ADD SWAP2 JUMPDEST POP POP POP POP POP DUP2 MSTORE PUSH1 0x20 ADD PUSH1 0x3 DUP3 ADD PUSH1 0x0 SWAP1 SLOAD SWAP1 PUSH2 0x100 EXP SWAP1 DIV PUSH20 0xFFFFFFFFFFFFFFFFFFFFFFFFFFFFFFFFFFFFFFFF AND PUSH20 0xFFFFFFFFFFFFFFFFFFFFFFFFFFFFFFFFFFFFFFFF AND PUSH20 0xFFFFFFFFFFFFFFFFFFFFFFFFFFFFFFFFFFFFFFFF AND DUP2 MSTORE PUSH1 0x20 ADD PUSH1 0x4 DUP3 ADD SLOAD DUP2 MSTORE POP POP DUP2 MSTORE PUSH1 0x20 ADD SWAP1 PUSH1 0x1 ADD SWAP1 PUSH2 0x19E JUMP JUMPDEST POP POP POP POP SWAP1 POP SWAP1 JUMP JUMPDEST PUSH2 0x2E7 PUSH2 0xBDA JUMP JUMPDEST PUSH1 0x60 PUSH2 0x2F1 PUSH2 0xBFC JUMP JUMPDEST PUSH1 0x0 DUP1 JUMPDEST PUSH1 0x3 DUP2 LT ISZERO PUSH2 0x3F7 JUMPI PUSH1 0x0 DUP2 PUSH1 0x3 DUP2 LT PUSH2 0x312 JUMPI PUSH2 0x311 PUSH2 0x1611 JUMP JUMPDEST JUMPDEST PUSH1 0x2 MUL ADD PUSH1 0x0 ADD PUSH1 0x0 SWAP1 SLOAD SWAP1 PUSH2 0x100 EXP SWAP1 DIV PUSH20 0xFFFFFFFFFFFFFFFFFFFFFFFFFFFFFFFFFFFFFFFF AND DUP6 DUP3 PUSH1 0x3 DUP2 LT PUSH2 0x34D JUMPI PUSH2 0x34C PUSH2 0x1611 JUMP JUMPDEST JUMPDEST PUSH1 0x20 MUL ADD SWAP1 PUSH20 0xFFFFFFFFFFFFFFFFFFFFFFFFFFFFFFFFFFFFFFFF AND SWAP1 DUP2 PUSH20 0xFFFFFFFFFFFFFFFFFFFFFFFFFFFFFFFFFFFFFFFF AND DUP2 MSTORE POP POP PUSH1 0x0 DUP2 PUSH1 0x3 DUP2 LT PUSH2 0x398 JUMPI PUSH2 0x397 PUSH2 0x1611 JUMP JUMPDEST JUMPDEST PUSH1 0x2 MUL ADD PUSH1 0x1 ADD DUP1 SLOAD SWAP1 POP DUP4 DUP3 PUSH1 0x3 DUP2 LT PUSH2 0x3B6 JUMPI PUSH2 0x3B5 PUSH2 0x1611 JUMP JUMPDEST JUMPDEST PUSH1 0x20 MUL ADD DUP2 DUP2 MSTORE POP POP DUP3 DUP2 PUSH1 0x3 DUP2 LT PUSH2 0x3D2 JUMPI PUSH2 0x3D1 PUSH2 0x1611 JUMP JUMPDEST JUMPDEST PUSH1 0x20 MUL ADD MLOAD DUP3 PUSH2 0x3E2 SWAP2 SWAP1 PUSH2 0x166F JUMP JUMPDEST SWAP2 POP DUP1 DUP1 PUSH2 0x3EF SWAP1 PUSH2 0x16A3 JUMP JUMPDEST SWAP2 POP POP PUSH2 0x2F5 JUMP JUMPDEST POP DUP1 PUSH8 0xFFFFFFFFFFFFFFFF DUP2 GT ISZERO PUSH2 0x412 JUMPI PUSH2 0x411 PUSH2 0x11D0 JUMP JUMPDEST JUMPDEST PUSH1 0x40 MLOAD SWAP1 DUP1 DUP3 MSTORE DUP1 PUSH1 0x20 MUL PUSH1 0x20 ADD DUP3 ADD PUSH1 0x40 MSTORE DUP1 ISZERO PUSH2 0x440 JUMPI DUP2 PUSH1 0x20 ADD PUSH1 0x20 DUP3 MUL DUP1 CALLDATASIZE DUP4 CALLDATACOPY DUP1 DUP3 ADD SWAP2 POP POP SWAP1 POP JUMPDEST POP SWAP3 POP PUSH1 0x0 DUP1 JUMPDEST PUSH1 0x3 DUP2 LT ISZERO PUSH2 0x505 JUMPI PUSH1 0x0 JUMPDEST PUSH1 0x0 DUP3 PUSH1 0x3 DUP2 LT PUSH2 0x467 JUMPI PUSH2 0x466 PUSH2 0x1611 JUMP JUMPDEST JUMPDEST PUSH1 0x2 MUL ADD PUSH1 0x1 ADD DUP1 SLOAD SWAP1 POP DUP2 LT ISZERO PUSH2 0x4F1 JUMPI PUSH1 0x0 DUP3 PUSH1 0x3 DUP2 LT PUSH2 0x48D JUMPI PUSH2 0x48C PUSH2 0x1611 JUMP JUMPDEST JUMPDEST PUSH1 0x2 MUL ADD PUSH1 0x1 ADD DUP2 DUP2 SLOAD DUP2 LT PUSH2 0x4A6 JUMPI PUSH2 0x4A5 PUSH2 0x1611 JUMP JUMPDEST JUMPDEST SWAP1 PUSH1 0x0 MSTORE PUSH1 0x20 PUSH1 0x0 KECCAK256 ADD SLOAD DUP7 DUP5 DUP2 MLOAD DUP2 LT PUSH2 0x4C4 JUMPI PUSH2 0x4C3 PUSH2 0x1611 JUMP JUMPDEST JUMPDEST PUSH1 0x20 MUL PUSH1 0x20 ADD ADD DUP2 DUP2 MSTORE POP POP DUP3 DUP1 PUSH2 0x4DB SWAP1 PUSH2 0x16A3 JUMP JUMPDEST SWAP4 POP POP DUP1 DUP1 PUSH2 0x4E9 SWAP1 PUSH2 0x16A3 JUMP JUMPDEST SWAP2 POP POP PUSH2 0x453 JUMP JUMPDEST POP DUP1 DUP1 PUSH2 0x4FD SWAP1 PUSH2 0x16A3 JUMP JUMPDEST SWAP2 POP POP PUSH2 0x447 JUMP JUMPDEST POP POP POP SWAP1 SWAP2 SWAP3 JUMP JUMPDEST PUSH1 0x0 PUSH1 0x60 PUSH1 0x0 JUMPDEST PUSH1 0x3 DUP2 LT ISZERO PUSH2 0x5C8 JUMPI PUSH1 0x0 JUMPDEST PUSH1 0x0 DUP3 PUSH1 0x3 DUP2 LT PUSH2 0x534 JUMPI PUSH2 0x533 PUSH2 0x1611 JUMP JUMPDEST JUMPDEST PUSH1 0x2 MUL ADD PUSH1 0x1 ADD DUP1 SLOAD SWAP1 POP DUP2 LT ISZERO PUSH2 0x5B4 JUMPI DUP3 PUSH1 0x0 DUP4 PUSH1 0x3 DUP2 LT PUSH2 0x55B JUMPI PUSH2 0x55A PUSH2 0x1611 JUMP JUMPDEST JUMPDEST PUSH1 0x2 MUL ADD PUSH1 0x1 ADD DUP3 DUP2 SLOAD DUP2 LT PUSH2 0x574 JUMPI PUSH2 0x573 PUSH2 0x1611 JUMP JUMPDEST JUMPDEST SWAP1 PUSH1 0x0 MSTORE PUSH1 0x20 PUSH1 0x0 KECCAK256 ADD SLOAD PUSH1 0x40 MLOAD PUSH1 0x20 ADD PUSH2 0x590 SWAP3 SWAP2 SWAP1 PUSH2 0x1748 JUMP JUMPDEST PUSH1 0x40 MLOAD PUSH1 0x20 DUP2 DUP4 SUB SUB DUP2 MSTORE SWAP1 PUSH1 0x40 MSTORE SWAP3 POP DUP1 DUP1 PUSH2 0x5AC SWAP1 PUSH2 0x16A3 JUMP JUMPDEST SWAP2 POP POP PUSH2 0x520 JUMP JUMPDEST POP DUP1 DUP1 PUSH2 0x5C0 SWAP1 PUSH2 0x16A3 JUMP JUMPDEST SWAP2 POP POP PUSH2 0x514 JUMP JUMPDEST POP PUSH1 0x2 DUP2 PUSH1 0x40 MLOAD PUSH2 0x5D9 SWAP2 SWAP1 PUSH2 0x1770 JUMP JUMPDEST PUSH1 0x20 PUSH1 0x40 MLOAD DUP1 DUP4 SUB DUP2 DUP6 GAS STATICCALL ISZERO DUP1 ISZERO PUSH2 0x5F6 JUMPI RETURNDATASIZE PUSH1 0x0 DUP1 RETURNDATACOPY RETURNDATASIZE PUSH1 0x0 REVERT JUMPDEST POP POP POP PUSH1 0x40 MLOAD RETURNDATASIZE PUSH1 0x1F NOT PUSH1 0x1F DUP3 ADD AND DUP3 ADD DUP1 PUSH1 0x40 MSTORE POP DUP2 ADD SWAP1 PUSH2 0x619 SWAP2 SWAP1 PUSH2 0x179C JUMP JUMPDEST SWAP2 POP POP SWAP1 JUMP JUMPDEST PUSH1 0x3 DUP4 LT PUSH2 0x662 JUMPI PUSH1 0x40 MLOAD PUSH32 0x8C379A000000000000000000000000000000000000000000000000000000000 DUP2 MSTORE PUSH1 0x4 ADD PUSH2 0x659 SWAP1 PUSH2 0x1826 JUMP JUMPDEST PUSH1 0x40 MLOAD DUP1 SWAP2 SUB SWAP1 REVERT JUMPDEST PUSH1 0x0 DUP1 DUP5 PUSH1 0x3 DUP2 LT PUSH2 0x677 JUMPI PUSH2 0x676 PUSH2 0x1611 JUMP JUMPDEST JUMPDEST PUSH1 0x2 MUL ADD SWAP1 POP CALLER PUSH20 0xFFFFFFFFFFFFFFFFFFFFFFFFFFFFFFFFFFFFFFFF AND DUP2 PUSH1 0x0 ADD PUSH1 0x0 SWAP1 SLOAD SWAP1 PUSH2 0x100 EXP SWAP1 DIV PUSH20 0xFFFFFFFFFFFFFFFFFFFFFFFFFFFFFFFFFFFFFFFF AND PUSH20 0xFFFFFFFFFFFFFFFFFFFFFFFFFFFFFFFFFFFFFFFF AND EQ PUSH2 0x70F JUMPI PUSH1 0x40 MLOAD PUSH32 0x8C379A000000000000000000000000000000000000000000000000000000000 DUP2 MSTORE PUSH1 0x4 ADD PUSH2 0x706 SWAP1 PUSH2 0x18B8 JUMP JUMPDEST PUSH1 0x40 MLOAD DUP1 SWAP2 SUB SWAP1 REVERT JUMPDEST DUP1 PUSH1 0x1 ADD DUP1 SLOAD SWAP1 POP DUP4 LT PUSH2 0x758 JUMPI PUSH1 0x40 MLOAD PUSH32 0x8C379A000000000000000000000000000000000000000000000000000000000 DUP2 MSTORE PUSH1 0x4 ADD PUSH2 0x74F SWAP1 PUSH2 0x1924 JUMP JUMPDEST PUSH1 0x40 MLOAD DUP1 SWAP2 SUB SWAP1 REVERT JUMPDEST PUSH1 0x6 PUSH1 0x40 MLOAD DUP1 PUSH1 0xA0 ADD PUSH1 0x40 MSTORE DUP1 DUP7 DUP2 MSTORE PUSH1 0x20 ADD DUP6 DUP2 MSTORE PUSH1 0x20 ADD DUP5 DUP2 MSTORE PUSH1 0x20 ADD CALLER PUSH20 0xFFFFFFFFFFFFFFFFFFFFFFFFFFFFFFFFFFFFFFFF AND DUP2 MSTORE PUSH1 0x20 ADD NUMBER DUP2 MSTORE POP SWAP1 DUP1 PUSH1 0x1 DUP2 SLOAD ADD DUP1 DUP3 SSTORE DUP1 SWAP2 POP POP PUSH1 0x1 SWAP1 SUB SWAP1 PUSH1 0x0 MSTORE PUSH1 0x20 PUSH1 0x0 KECCAK256 SWAP1 PUSH1 0x5 MUL ADD PUSH1 0x0 SWAP1 SWAP2 SWAP1 SWAP2 SWAP1 SWAP2 POP PUSH1 0x0 DUP3 ADD MLOAD DUP2 PUSH1 0x0 ADD SSTORE PUSH1 0x20 DUP3 ADD MLOAD DUP2 PUSH1 0x1 ADD SSTORE PUSH1 0x40 DUP3 ADD MLOAD DUP2 PUSH1 0x2 ADD SWAP1 DUP2 PUSH2 0x7E9 SWAP2 SWAP1 PUSH2 0x1AF0 JUMP JUMPDEST POP PUSH1 0x60 DUP3 ADD MLOAD DUP2 PUSH1 0x3 ADD PUSH1 0x0 PUSH2 0x100 EXP DUP2 SLOAD DUP2 PUSH20 0xFFFFFFFFFFFFFFFFFFFFFFFFFFFFFFFFFFFFFFFF MUL NOT AND SWAP1 DUP4 PUSH20 0xFFFFFFFFFFFFFFFFFFFFFFFFFFFFFFFFFFFFFFFF AND MUL OR SWAP1 SSTORE POP PUSH1 0x80 DUP3 ADD MLOAD DUP2 PUSH1 0x4 ADD SSTORE POP POP CALLER PUSH20 0xFFFFFFFFFFFFFFFFFFFFFFFFFFFFFFFFFFFFFFFF AND DUP4 DUP6 PUSH32 0x7185CF2D1B454FACF3E69E90917FC8587B46B84D29437DD64DE5A79C4BECD905 DUP6 NUMBER PUSH1 0x40 MLOAD PUSH2 0x887 SWAP3 SWAP2 SWAP1 PUSH2 0x1BC2 JUMP JUMPDEST PUSH1 0x40 MLOAD DUP1 SWAP2 SUB SWAP1 LOG4 POP POP POP POP JUMP JUMPDEST PUSH1 0x0 PUSH1 0x1 PUSH1 0x3 DUP2 LT PUSH2 0x8AA JUMPI PUSH2 0x8A9 PUSH2 0x1611 JUMP JUMPDEST JUMPDEST PUSH1 0x2 MUL ADD PUSH1 0x0 DUP1 PUSH1 0x3 DUP2 LT PUSH2 0x8C2 JUMPI PUSH2 0x8C1 PUSH2 0x1611 JUMP JUMPDEST JUMPDEST PUSH1 0x2 MUL ADD PUSH1 0x0 DUP3 ADD PUSH1 0x0 SWAP1 SLOAD SWAP1 PUSH2 0x100 EXP SWAP1 DIV PUSH20 0xFFFFFFFFFFFFFFFFFFFFFFFFFFFFFFFFFFFFFFFF AND DUP2 PUSH1 0x0 ADD PUSH1 0x0 PUSH2 0x100 EXP DUP2 SLOAD DUP2 PUSH20 0xFFFFFFFFFFFFFFFFFFFFFFFFFFFFFFFFFFFFFFFF MUL NOT AND SWAP1 DUP4 PUSH20 0xFFFFFFFFFFFFFFFFFFFFFFFFFFFFFFFFFFFFFFFF AND MUL OR SWAP1 SSTORE POP PUSH1 0x1 DUP3 ADD DUP2 PUSH1 0x1 ADD SWAP1 DUP1 SLOAD PUSH2 0x943 SWAP3 SWAP2 SWAP1 PUSH2 0xC1E JUMP JUMPDEST POP SWAP1 POP POP PUSH1 0x0 PUSH1 0x2 PUSH1 0x3 DUP2 LT PUSH2 0x95C JUMPI PUSH2 0x95B PUSH2 0x1611 JUMP JUMPDEST JUMPDEST PUSH1 0x2 MUL ADD PUSH1 0x0 PUSH1 0x1 PUSH1 0x3 DUP2 LT PUSH2 0x975 JUMPI PUSH2 0x974 PUSH2 0x1611 JUMP JUMPDEST JUMPDEST PUSH1 0x2 MUL ADD PUSH1 0x0 DUP3 ADD PUSH1 0x0 SWAP1 SLOAD SWAP1 PUSH2 0x100 EXP SWAP1 DIV PUSH20 0xFFFFFFFFFFFFFFFFFFFFFFFFFFFFFFFFFFFFFFFF AND DUP2 PUSH1 0x0 ADD PUSH1 0x0 PUSH2 0x100 EXP DUP2 SLOAD DUP2 PUSH20 0xFFFFFFFFFFFFFFFFFFFFFFFFFFFFFFFFFFFFFFFF MUL NOT AND SWAP1 DUP4 PUSH20 0xFFFFFFFFFFFFFFFFFFFFFFFFFFFFFFFFFFFFFFFF AND MUL OR SWAP1 SSTORE POP PUSH1 0x1 DUP3 ADD DUP2 PUSH1 0x1 ADD SWAP1 DUP1 SLOAD PUSH2 0x9F6 SWAP3 SWAP2 SWAP1 PUSH2 0xC1E JUMP JUMPDEST POP SWAP1 POP POP PUSH1 0x40 MLOAD DUP1 PUSH1 0x40 ADD PUSH1 0x40 MSTORE DUP1 CALLER PUSH20 0xFFFFFFFFFFFFFFFFFFFFFFFFFFFFFFFFFFFFFFFF AND DUP2 MSTORE PUSH1 0x20 ADD DUP3 DUP2 MSTORE POP PUSH1 0x0 PUSH1 0x2 PUSH1 0x3 DUP2 LT PUSH2 0xA3A JUMPI PUSH2 0xA39 PUSH2 0x1611 JUMP JUMPDEST JUMPDEST PUSH1 0x2 MUL ADD PUSH1 0x0 DUP3 ADD MLOAD DUP2 PUSH1 0x0 ADD PUSH1 0x0 PUSH2 0x100 EXP DUP2 SLOAD DUP2 PUSH20 0xFFFFFFFFFFFFFFFFFFFFFFFFFFFFFFFFFFFFFFFF MUL NOT AND SWAP1 DUP4 PUSH20 0xFFFFFFFFFFFFFFFFFFFFFFFFFFFFFFFFFFFFFFFF AND MUL OR SWAP1 SSTORE POP PUSH1 0x20 DUP3 ADD MLOAD DUP2 PUSH1 0x1 ADD SWAP1 DUP1 MLOAD SWAP1 PUSH1 0x20 ADD SWAP1 PUSH2 0xAA1 SWAP3 SWAP2 SWAP1 PUSH2 0xC70 JUMP JUMPDEST POP SWAP1 POP POP POP JUMP JUMPDEST PUSH1 0x0 DUP2 PUSH1 0x3 DUP2 LT PUSH2 0xAB8 JUMPI PUSH1 0x0 DUP1 REVERT JUMPDEST PUSH1 0x2 MUL ADD PUSH1 0x0 SWAP2 POP SWAP1 POP DUP1 PUSH1 0x0 ADD PUSH1 0x0 SWAP1 SLOAD SWAP1 PUSH2 0x100 EXP SWAP1 DIV PUSH20 0xFFFFFFFFFFFFFFFFFFFFFFFFFFFFFFFFFFFFFFFF AND SWAP1 POP DUP2 JUMP JUMPDEST PUSH1 0x6 DUP2 DUP2 SLOAD DUP2 LT PUSH2 0xAFC JUMPI PUSH1 0x0 DUP1 REVERT JUMPDEST SWAP1 PUSH1 0x0 MSTORE PUSH1 0x20 PUSH1 0x0 KECCAK256 SWAP1 PUSH1 0x5 MUL ADD PUSH1 0x0 SWAP2 POP SWAP1 POP DUP1 PUSH1 0x0 ADD SLOAD SWAP1 DUP1 PUSH1 0x1 ADD SLOAD SWAP1 DUP1 PUSH1 0x2 ADD DUP1 SLOAD PUSH2 0xB2B SWAP1 PUSH2 0x15E0 JUMP JUMPDEST DUP1 PUSH1 0x1F ADD PUSH1 0x20 DUP1 SWAP2 DIV MUL PUSH1 0x20 ADD PUSH1 0x40 MLOAD SWAP1 DUP2 ADD PUSH1 0x40 MSTORE DUP1 SWAP3 SWAP2 SWAP1 DUP2 DUP2 MSTORE PUSH1 0x20 ADD DUP3 DUP1 SLOAD PUSH2 0xB57 SWAP1 PUSH2 0x15E0 JUMP JUMPDEST DUP1 ISZERO PUSH2 0xBA4 JUMPI DUP1 PUSH1 0x1F LT PUSH2 0xB79 JUMPI PUSH2 0x100 DUP1 DUP4 SLOAD DIV MUL DUP4 MSTORE SWAP2 PUSH1 0x20 ADD SWAP2 PUSH2 0xBA4 JUMP JUMPDEST DUP3 ADD SWAP2 SWAP1 PUSH1 0x0 MSTORE PUSH1 0x20 PUSH1 0x0 KECCAK256 SWAP1 JUMPDEST DUP2 SLOAD DUP2 MSTORE SWAP1 PUSH1 0x1 ADD SWAP1 PUSH1 0x20 ADD DUP1 DUP4 GT PUSH2 0xB87 JUMPI DUP3 SWAP1 SUB PUSH1 0x1F AND DUP3 ADD SWAP2 JUMPDEST POP POP POP POP POP SWAP1 DUP1 PUSH1 0x3 ADD PUSH1 0x0 SWAP1 SLOAD SWAP1 PUSH2 0x100 EXP SWAP1 DIV PUSH20 0xFFFFFFFFFFFFFFFFFFFFFFFFFFFFFFFFFFFFFFFF AND SWAP1 DUP1 PUSH1 0x4 ADD SLOAD SWAP1 POP DUP6 JUMP JUMPDEST PUSH1 0x40 MLOAD DUP1 PUSH1 0x60 ADD PUSH1 0x40 MSTORE DUP1 PUSH1 0x3 SWAP1 PUSH1 0x20 DUP3 MUL DUP1 CALLDATASIZE DUP4 CALLDATACOPY DUP1 DUP3 ADD SWAP2 POP POP SWAP1 POP POP SWAP1 JUMP JUMPDEST PUSH1 0x40 MLOAD DUP1 PUSH1 0x60 ADD PUSH1 0x40 MSTORE DUP1 PUSH1 0x3 SWAP1 PUSH1 0x20 DUP3 MUL DUP1 CALLDATASIZE DUP4 CALLDATACOPY DUP1 DUP3 ADD SWAP2 POP POP SWAP1 POP POP SWAP1 JUMP JUMPDEST DUP3 DUP1 SLOAD DUP3 DUP3 SSTORE SWAP1 PUSH1 0x0 MSTORE PUSH1 0x20 PUSH1 0x0 KECCAK256 SWAP1 DUP2 ADD SWAP3 DUP3 ISZERO PUSH2 0xC5F JUMPI PUSH1 0x0 MSTORE PUSH1 0x20 PUSH1 0x0 KECCAK256 SWAP2 DUP3 ADD JUMPDEST DUP3 DUP2 GT ISZERO PUSH2 0xC5E JUMPI DUP3 SLOAD DUP3 SSTORE SWAP2 PUSH1 0x1 ADD SWAP2 SWAP1 PUSH1 0x1 ADD SWAP1 PUSH2 0xC43 JUMP JUMPDEST JUMPDEST POP SWAP1 POP PUSH2 0xC6C SWAP2 SWAP1 PUSH2 0xCBD JUMP JUMPDEST POP SWAP1 JUMP JUMPDEST DUP3 DUP1 SLOAD DUP3 DUP3 SSTORE SWAP1 PUSH1 0x0 MSTORE PUSH1 0x20 PUSH1 0x0 KECCAK256 SWAP1 DUP2 ADD SWAP3 DUP3 ISZERO PUSH2 0xCAC JUMPI SWAP2 PUSH1 0x20 MUL DUP3 ADD JUMPDEST DUP3 DUP2 GT ISZERO PUSH2 0xCAB JUMPI DUP3 MLOAD DUP3 SSTORE SWAP2 PUSH1 0x20 ADD SWAP2 SWAP1 PUSH1 0x1 ADD SWAP1 PUSH2 0xC90 JUMP JUMPDEST JUMPDEST POP SWAP1 POP PUSH2 0xCB9 SWAP2 SWAP1 PUSH2 0xCBD JUMP JUMPDEST POP SWAP1 JUMP JUMPDEST JUMPDEST DUP1 DUP3 GT ISZERO PUSH2 0xCD6 JUMPI PUSH1 0x0 DUP2 PUSH1 0x0 SWAP1 SSTORE POP PUSH1 0x1 ADD PUSH2 0xCBE JUMP JUMPDEST POP SWAP1 JUMP JUMPDEST PUSH1 0x0 DUP2 MLOAD SWAP1 POP SWAP2 SWAP1 POP JUMP JUMPDEST PUSH1 0x0 DUP3 DUP3 MSTORE PUSH1 0x20 DUP3 ADD SWAP1 POP SWAP3 SWAP2 POP POP JUMP JUMPDEST PUSH1 0x0 DUP2 SWAP1 POP PUSH1 0x20 DUP3 ADD SWAP1 POP SWAP2 SWAP1 POP JUMP JUMPDEST PUSH1 0x0 DUP2 SWAP1 POP SWAP2 SWAP1 POP JUMP JUMPDEST PUSH2 0xD19 DUP2 PUSH2 0xD06 JUMP JUMPDEST DUP3 MSTORE POP POP JUMP JUMPDEST PUSH1 0x0 DUP2 MLOAD SWAP1 POP SWAP2 SWAP1 POP JUMP JUMPDEST PUSH1 0x0 DUP3 DUP3 MSTORE PUSH1 0x20 DUP3 ADD SWAP1 POP SWAP3 SWAP2 POP POP JUMP JUMPDEST PUSH1 0x0 JUMPDEST DUP4 DUP2 LT ISZERO PUSH2 0xD59 JUMPI DUP1 DUP3 ADD MLOAD DUP2 DUP5 ADD MSTORE PUSH1 0x20 DUP2 ADD SWAP1 POP PUSH2 0xD3E JUMP JUMPDEST PUSH1 0x0 DUP5 DUP5 ADD MSTORE POP POP POP POP JUMP JUMPDEST PUSH1 0x0 PUSH1 0x1F NOT PUSH1 0x1F DUP4 ADD AND SWAP1 POP SWAP2 SWAP1 POP JUMP JUMPDEST PUSH1 0x0 PUSH2 0xD81 DUP3 PUSH2 0xD1F JUMP JUMPDEST PUSH2 0xD8B DUP2 DUP6 PUSH2 0xD2A JUMP JUMPDEST SWAP4 POP PUSH2 0xD9B DUP2 DUP6 PUSH1 0x20 DUP7 ADD PUSH2 0xD3B JUMP JUMPDEST PUSH2 0xDA4 DUP2 PUSH2 0xD65 JUMP JUMPDEST DUP5 ADD SWAP2 POP POP SWAP3 SWAP2 POP POP JUMP JUMPDEST PUSH1 0x0 PUSH20 0xFFFFFFFFFFFFFFFFFFFFFFFFFFFFFFFFFFFFFFFF DUP3 AND SWAP1 POP SWAP2 SWAP1 POP JUMP JUMPDEST PUSH1 0x0 PUSH2 0xDDA DUP3 PUSH2 0xDAF JUMP JUMPDEST SWAP1 POP SWAP2 SWAP1 POP JUMP JUMPDEST PUSH2 0xDEA DUP2 PUSH2 0xDCF JUMP JUMPDEST DUP3 MSTORE POP POP JUMP JUMPDEST PUSH1 0x0 PUSH1 0xA0 DUP4 ADD PUSH1 0x0 DUP4 ADD MLOAD PUSH2 0xE08 PUSH1 0x0 DUP7 ADD DUP3 PUSH2 0xD10 JUMP JUMPDEST POP PUSH1 0x20 DUP4 ADD MLOAD PUSH2 0xE1B PUSH1 0x20 DUP7 ADD DUP3 PUSH2 0xD10 JUMP JUMPDEST POP PUSH1 0x40 DUP4 ADD MLOAD DUP5 DUP3 SUB PUSH1 0x40 DUP7 ADD MSTORE PUSH2 0xE33 DUP3 DUP3 PUSH2 0xD76 JUMP JUMPDEST SWAP2 POP POP PUSH1 0x60 DUP4 ADD MLOAD PUSH2 0xE48 PUSH1 0x60 DUP7 ADD DUP3 PUSH2 0xDE1 JUMP JUMPDEST POP PUSH1 0x80 DUP4 ADD MLOAD PUSH2 0xE5B PUSH1 0x80 DUP7 ADD DUP3 PUSH2 0xD10 JUMP JUMPDEST POP DUP1 SWAP2 POP POP SWAP3 SWAP2 POP POP JUMP JUMPDEST PUSH1 0x0 PUSH2 0xE72 DUP4 DUP4 PUSH2 0xDF0 JUMP JUMPDEST SWAP1 POP SWAP3 SWAP2 POP POP JUMP JUMPDEST PUSH1 0x0 PUSH1 0x20 DUP3 ADD SWAP1 POP SWAP2 SWAP1 POP JUMP JUMPDEST PUSH1 0x0 PUSH2 0xE92 DUP3 PUSH2 0xCDA JUMP JUMPDEST PUSH2 0xE9C DUP2 DUP6 PUSH2 0xCE5 JUMP JUMPDEST SWAP4 POP DUP4 PUSH1 0x20 DUP3 MUL DUP6 ADD PUSH2 0xEAE DUP6 PUSH2 0xCF6 JUMP JUMPDEST DUP1 PUSH1 0x0 JUMPDEST DUP6 DUP2 LT ISZERO PUSH2 0xEEA JUMPI DUP5 DUP5 SUB DUP10 MSTORE DUP2 MLOAD PUSH2 0xECB DUP6 DUP3 PUSH2 0xE66 JUMP JUMPDEST SWAP5 POP PUSH2 0xED6 DUP4 PUSH2 0xE7A JUMP JUMPDEST SWAP3 POP PUSH1 0x20 DUP11 ADD SWAP10 POP POP PUSH1 0x1 DUP2 ADD SWAP1 POP PUSH2 0xEB2 JUMP JUMPDEST POP DUP3 SWAP8 POP DUP8 SWAP6 POP POP POP POP POP POP SWAP3 SWAP2 POP POP JUMP JUMPDEST PUSH1 0x0 PUSH1 0x20 DUP3 ADD SWAP1 POP DUP2 DUP2 SUB PUSH1 0x0 DUP4 ADD MSTORE PUSH2 0xF16 DUP2 DUP5 PUSH2 0xE87 JUMP JUMPDEST SWAP1 POP SWAP3 SWAP2 POP POP JUMP JUMPDEST PUSH1 0x0 PUSH1 0x3 SWAP1 POP SWAP2 SWAP1 POP JUMP JUMPDEST PUSH1 0x0 DUP2 SWAP1 POP SWAP3 SWAP2 POP POP JUMP JUMPDEST PUSH1 0x0 DUP2 SWAP1 POP SWAP2 SWAP1 POP JUMP JUMPDEST PUSH1 0x0 PUSH2 0xF4A DUP4 DUP4 PUSH2 0xDE1 JUMP JUMPDEST PUSH1 0x20 DUP4 ADD SWAP1 POP SWAP3 SWAP2 POP POP JUMP JUMPDEST PUSH1 0x0 PUSH1 0x20 DUP3 ADD SWAP1 POP SWAP2 SWAP1 POP JUMP JUMPDEST PUSH2 0xF6C DUP2 PUSH2 0xF1E JUMP JUMPDEST PUSH2 0xF76 DUP2 DUP5 PUSH2 0xF29 JUMP JUMPDEST SWAP3 POP PUSH2 0xF81 DUP3 PUSH2 0xF34 JUMP JUMPDEST DUP1 PUSH1 0x0 JUMPDEST DUP4 DUP2 LT ISZERO PUSH2 0xFB2 JUMPI DUP2 MLOAD PUSH2 0xF99 DUP8 DUP3 PUSH2 0xF3E JUMP JUMPDEST SWAP7 POP PUSH2 0xFA4 DUP4 PUSH2 0xF56 JUMP JUMPDEST SWAP3 POP POP PUSH1 0x1 DUP2 ADD SWAP1 POP PUSH2 0xF85 JUMP JUMPDEST POP POP POP POP POP POP JUMP JUMPDEST PUSH1 0x0 DUP2 MLOAD SWAP1 POP SWAP2 SWAP1 POP JUMP JUMPDEST PUSH1 0x0 DUP3 DUP3 MSTORE PUSH1 0x20 DUP3 ADD SWAP1 POP SWAP3 SWAP2 POP POP JUMP JUMPDEST PUSH1 0x0 DUP2 SWAP1 POP PUSH1 0x20 DUP3 ADD SWAP1 POP SWAP2 SWAP1 POP JUMP JUMPDEST PUSH1 0x0 DUP2 SWAP1 POP SWAP2 SWAP1 POP JUMP JUMPDEST PUSH2 0xFF9 DUP2 PUSH2 0xFE6 JUMP JUMPDEST DUP3 MSTORE POP POP JUMP JUMPDEST PUSH1 0x0 PUSH2 0x100B DUP4 DUP4 PUSH2 0xFF0 JUMP JUMPDEST PUSH1 0x20 DUP4 ADD SWAP1 POP SWAP3 SWAP2 POP POP JUMP JUMPDEST PUSH1 0x0 PUSH1 0x20 DUP3 ADD SWAP1 POP SWAP2 SWAP1 POP JUMP JUMPDEST PUSH1 0x0 PUSH2 0x102F DUP3 PUSH2 0xFBA JUMP JUMPDEST PUSH2 0x1039 DUP2 DUP6 PUSH2 0xFC5 JUMP JUMPDEST SWAP4 POP PUSH2 0x1044 DUP4 PUSH2 0xFD6 JUMP JUMPDEST DUP1 PUSH1 0x0 JUMPDEST DUP4 DUP2 LT ISZERO PUSH2 0x1075 JUMPI DUP2 MLOAD PUSH2 0x105C DUP9 DUP3 PUSH2 0xFFF JUMP JUMPDEST SWAP8 POP PUSH2 0x1067 DUP4 PUSH2 0x1017 JUMP JUMPDEST SWAP3 POP POP PUSH1 0x1 DUP2 ADD SWAP1 POP PUSH2 0x1048 JUMP JUMPDEST POP DUP6 SWAP4 POP POP POP POP SWAP3 SWAP2 POP POP JUMP JUMPDEST PUSH1 0x0 PUSH1 0x3 SWAP1 POP SWAP2 SWAP1 POP JUMP JUMPDEST PUSH1 0x0 DUP2 SWAP1 POP SWAP3 SWAP2 POP POP JUMP JUMPDEST PUSH1 0x0 DUP2 SWAP1 POP SWAP2 SWAP1 POP JUMP JUMPDEST PUSH1 0x0 PUSH2 0x10AE DUP4 DUP4 PUSH2 0xD10 JUMP JUMPDEST PUSH1 0x20 DUP4 ADD SWAP1 POP SWAP3 SWAP2 POP POP JUMP JUMPDEST PUSH1 0x0 PUSH1 0x20 DUP3 ADD SWAP1 POP SWAP2 SWAP1 POP JUMP JUMPDEST PUSH2 0x10D0 DUP2 PUSH2 0x1082 JUMP JUMPDEST PUSH2 0x10DA DUP2 DUP5 PUSH2 0x108D JUMP JUMPDEST SWAP3 POP PUSH2 0x10E5 DUP3 PUSH2 0x1098 JUMP JUMPDEST DUP1 PUSH1 0x0 JUMPDEST DUP4 DUP2 LT ISZERO PUSH2 0x1116 JUMPI DUP2 MLOAD PUSH2 0x10FD DUP8 DUP3 PUSH2 0x10A2 JUMP JUMPDEST SWAP7 POP PUSH2 0x1108 DUP4 PUSH2 0x10BA JUMP JUMPDEST SWAP3 POP POP PUSH1 0x1 DUP2 ADD SWAP1 POP PUSH2 0x10E9 JUMP JUMPDEST POP POP POP POP POP POP JUMP JUMPDEST PUSH1 0x0 PUSH1 0xE0 DUP3 ADD SWAP1 POP PUSH2 0x1133 PUSH1 0x0 DUP4 ADD DUP7 PUSH2 0xF63 JUMP JUMPDEST DUP2 DUP2 SUB PUSH1 0x60 DUP4 ADD MSTORE PUSH2 0x1145 DUP2 DUP6 PUSH2 0x1024 JUMP JUMPDEST SWAP1 POP PUSH2 0x1154 PUSH1 0x80 DUP4 ADD DUP5 PUSH2 0x10C7 JUMP JUMPDEST SWAP5 SWAP4 POP POP POP POP JUMP JUMPDEST PUSH2 0x1165 DUP2 PUSH2 0xFE6 JUMP JUMPDEST DUP3 MSTORE POP POP JUMP JUMPDEST PUSH1 0x0 PUSH1 0x20 DUP3 ADD SWAP1 POP PUSH2 0x1180 PUSH1 0x0 DUP4 ADD DUP5 PUSH2 0x115C JUMP JUMPDEST SWAP3 SWAP2 POP POP JUMP JUMPDEST PUSH1 0x0 PUSH1 0x40 MLOAD SWAP1 POP SWAP1 JUMP JUMPDEST PUSH1 0x0 DUP1 REVERT JUMPDEST PUSH1 0x0 DUP1 REVERT JUMPDEST PUSH2 0x11A3 DUP2 PUSH2 0xD06 JUMP JUMPDEST DUP2 EQ PUSH2 0x11AE JUMPI PUSH1 0x0 DUP1 REVERT JUMPDEST POP JUMP JUMPDEST PUSH1 0x0 DUP2 CALLDATALOAD SWAP1 POP PUSH2 0x11C0 DUP2 PUSH2 0x119A JUMP JUMPDEST SWAP3 SWAP2 POP POP JUMP JUMPDEST PUSH1 0x0 DUP1 REVERT JUMPDEST PUSH1 0x0 DUP1 REVERT JUMPDEST PUSH32 0x4E487B7100000000000000000000000000000000000000000000000000000000 PUSH1 0x0 MSTORE PUSH1 0x41 PUSH1 0x4 MSTORE PUSH1 0x24 PUSH1 0x0 REVERT JUMPDEST PUSH2 0x1208 DUP3 PUSH2 0xD65 JUMP JUMPDEST DUP2 ADD DUP2 DUP2 LT PUSH8 0xFFFFFFFFFFFFFFFF DUP3 GT OR ISZERO PUSH2 0x1227 JUMPI PUSH2 0x1226 PUSH2 0x11D0 JUMP JUMPDEST JUMPDEST DUP1 PUSH1 0x40 MSTORE POP POP POP JUMP JUMPDEST PUSH1 0x0 PUSH2 0x123A PUSH2 0x1186 JUMP JUMPDEST SWAP1 POP PUSH2 0x1246 DUP3 DUP3 PUSH2 0x11FF JUMP JUMPDEST SWAP2 SWAP1 POP JUMP JUMPDEST PUSH1 0x0 PUSH8 0xFFFFFFFFFFFFFFFF DUP3 GT ISZERO PUSH2 0x1266 JUMPI PUSH2 0x1265 PUSH2 0x11D0 JUMP JUMPDEST JUMPDEST PUSH2 0x126F DUP3 PUSH2 0xD65 JUMP JUMPDEST SWAP1 POP PUSH1 0x20 DUP2 ADD SWAP1 POP SWAP2 SWAP1 POP JUMP JUMPDEST DUP3 DUP2 DUP4 CALLDATACOPY PUSH1 0x0 DUP4 DUP4 ADD MSTORE POP POP POP JUMP JUMPDEST PUSH1 0x0 PUSH2 0x129E PUSH2 0x1299 DUP5 PUSH2 0x124B JUMP JUMPDEST PUSH2 0x1230 JUMP JUMPDEST SWAP1 POP DUP3 DUP2 MSTORE PUSH1 0x20 DUP2 ADD DUP5 DUP5 DUP5 ADD GT ISZERO PUSH2 0x12BA JUMPI PUSH2 0x12B9 PUSH2 0x11CB JUMP JUMPDEST JUMPDEST PUSH2 0x12C5 DUP5 DUP3 DUP6 PUSH2 0x127C JUMP JUMPDEST POP SWAP4 SWAP3 POP POP POP JUMP JUMPDEST PUSH1 0x0 DUP3 PUSH1 0x1F DUP4 ADD SLT PUSH2 0x12E2 JUMPI PUSH2 0x12E1 PUSH2 0x11C6 JUMP JUMPDEST JUMPDEST DUP2 CALLDATALOAD PUSH2 0x12F2 DUP5 DUP3 PUSH1 0x20 DUP7 ADD PUSH2 0x128B JUMP JUMPDEST SWAP2 POP POP SWAP3 SWAP2 POP POP JUMP JUMPDEST PUSH1 0x0 DUP1 PUSH1 0x0 PUSH1 0x60 DUP5 DUP7 SUB SLT ISZERO PUSH2 0x1314 JUMPI PUSH2 0x1313 PUSH2 0x1190 JUMP JUMPDEST JUMPDEST PUSH1 0x0 PUSH2 0x1322 DUP7 DUP3 DUP8 ADD PUSH2 0x11B1 JUMP JUMPDEST SWAP4 POP POP PUSH1 0x20 PUSH2 0x1333 DUP7 DUP3 DUP8 ADD PUSH2 0x11B1 JUMP JUMPDEST SWAP3 POP POP PUSH1 0x40 DUP5 ADD CALLDATALOAD PUSH8 0xFFFFFFFFFFFFFFFF DUP2 GT ISZERO PUSH2 0x1354 JUMPI PUSH2 0x1353 PUSH2 0x1195 JUMP JUMPDEST JUMPDEST PUSH2 0x1360 DUP7 DUP3 DUP8 ADD PUSH2 0x12CD JUMP JUMPDEST SWAP2 POP POP SWAP3 POP SWAP3 POP SWAP3 JUMP JUMPDEST PUSH1 0x0 PUSH8 0xFFFFFFFFFFFFFFFF DUP3 GT ISZERO PUSH2 0x1385 JUMPI PUSH2 0x1384 PUSH2 0x11D0 JUMP JUMPDEST JUMPDEST PUSH1 0x20 DUP3 MUL SWAP1 POP PUSH1 0x20 DUP2 ADD SWAP1 POP SWAP2 SWAP1 POP JUMP JUMPDEST PUSH1 0x0 DUP1 REVERT JUMPDEST PUSH2 0x13A4 DUP2 PUSH2 0xFE6 JUMP JUMPDEST DUP2 EQ PUSH2 0x13AF JUMPI PUSH1 0x0 DUP1 REVERT JUMPDEST POP JUMP JUMPDEST PUSH1 0x0 DUP2 CALLDATALOAD SWAP1 POP PUSH2 0x13C1 DUP2 PUSH2 0x139B JUMP JUMPDEST SWAP3 SWAP2 POP POP JUMP JUMPDEST PUSH1 0x0 PUSH2 0x13DA PUSH2 0x13D5 DUP5 PUSH2 0x136A JUMP JUMPDEST PUSH2 0x1230 JUMP JUMPDEST SWAP1 POP DUP1 DUP4 DUP3 MSTORE PUSH1 0x20 DUP3 ADD SWAP1 POP PUSH1 0x20 DUP5 MUL DUP4 ADD DUP6 DUP2 GT ISZERO PUSH2 0x13FD JUMPI PUSH2 0x13FC PUSH2 0x1396 JUMP JUMPDEST JUMPDEST DUP4 JUMPDEST DUP2 DUP2 LT ISZERO PUSH2 0x1426 JUMPI DUP1 PUSH2 0x1412 DUP9 DUP3 PUSH2 0x13B2 JUMP JUMPDEST DUP5 MSTORE PUSH1 0x20 DUP5 ADD SWAP4 POP POP PUSH1 0x20 DUP2 ADD SWAP1 POP PUSH2 0x13FF JUMP JUMPDEST POP POP POP SWAP4 SWAP3 POP POP POP JUMP JUMPDEST PUSH1 0x0 DUP3 PUSH1 0x1F DUP4 ADD SLT PUSH2 0x1445 JUMPI PUSH2 0x1444 PUSH2 0x11C6 JUMP JUMPDEST JUMPDEST DUP2 CALLDATALOAD PUSH2 0x1455 DUP5 DUP3 PUSH1 0x20 DUP7 ADD PUSH2 0x13C7 JUMP JUMPDEST SWAP2 POP POP SWAP3 SWAP2 POP POP JUMP JUMPDEST PUSH1 0x0 PUSH1 0x20 DUP3 DUP5 SUB SLT ISZERO PUSH2 0x1474 JUMPI PUSH2 0x1473 PUSH2 0x1190 JUMP JUMPDEST JUMPDEST PUSH1 0x0 DUP3 ADD CALLDATALOAD PUSH8 0xFFFFFFFFFFFFFFFF DUP2 GT ISZERO PUSH2 0x1492 JUMPI PUSH2 0x1491 PUSH2 0x1195 JUMP JUMPDEST JUMPDEST PUSH2 0x149E DUP5 DUP3 DUP6 ADD PUSH2 0x1430 JUMP JUMPDEST SWAP2 POP POP SWAP3 SWAP2 POP POP JUMP JUMPDEST PUSH1 0x0 PUSH1 0x20 DUP3 DUP5 SUB SLT ISZERO PUSH2 0x14BD JUMPI PUSH2 0x14BC PUSH2 0x1190 JUMP JUMPDEST JUMPDEST PUSH1 0x0 PUSH2 0x14CB DUP5 DUP3 DUP6 ADD PUSH2 0x11B1 JUMP JUMPDEST SWAP2 POP POP SWAP3 SWAP2 POP POP JUMP JUMPDEST PUSH2 0x14DD DUP2 PUSH2 0xDCF JUMP JUMPDEST DUP3 MSTORE POP POP JUMP JUMPDEST PUSH1 0x0 PUSH1 0x20 DUP3 ADD SWAP1 POP PUSH2 0x14F8 PUSH1 0x0 DUP4 ADD DUP5 PUSH2 0x14D4 JUMP JUMPDEST SWAP3 SWAP2 POP POP JUMP JUMPDEST PUSH2 0x1507 DUP2 PUSH2 0xD06 JUMP JUMPDEST DUP3 MSTORE POP POP JUMP JUMPDEST PUSH1 0x0 DUP3 DUP3 MSTORE PUSH1 0x20 DUP3 ADD SWAP1 POP SWAP3 SWAP2 POP POP JUMP JUMPDEST PUSH1 0x0 PUSH2 0x1529 DUP3 PUSH2 0xD1F JUMP JUMPDEST PUSH2 0x1533 DUP2 DUP6 PUSH2 0x150D JUMP JUMPDEST SWAP4 POP PUSH2 0x1543 DUP2 DUP6 PUSH1 0x20 DUP7 ADD PUSH2 0xD3B JUMP JUMPDEST PUSH2 0x154C DUP2 PUSH2 0xD65 JUMP JUMPDEST DUP5 ADD SWAP2 POP POP SWAP3 SWAP2 POP POP JUMP JUMPDEST PUSH1 0x0 PUSH1 0xA0 DUP3 ADD SWAP1 POP PUSH2 0x156C PUSH1 0x0 DUP4 ADD DUP9 PUSH2 0x14FE JUMP JUMPDEST PUSH2 0x1579 PUSH1 0x20 DUP4 ADD DUP8 PUSH2 0x14FE JUMP JUMPDEST DUP2 DUP2 SUB PUSH1 0x40 DUP4 ADD MSTORE PUSH2 0x158B DUP2 DUP7 PUSH2 0x151E JUMP JUMPDEST SWAP1 POP PUSH2 0x159A PUSH1 0x60 DUP4 ADD DUP6 PUSH2 0x14D4 JUMP JUMPDEST PUSH2 0x15A7 PUSH1 0x80 DUP4 ADD DUP5 PUSH2 0x14FE JUMP JUMPDEST SWAP7 SWAP6 POP POP POP POP POP POP JUMP JUMPDEST PUSH32 0x4E487B7100000000000000000000000000000000000000000000000000000000 PUSH1 0x0 MSTORE PUSH1 0x22 PUSH1 0x4 MSTORE PUSH1 0x24 PUSH1 0x0 REVERT JUMPDEST PUSH1 0x0 PUSH1 0x2 DUP3 DIV SWAP1 POP PUSH1 0x1 DUP3 AND DUP1 PUSH2 0x15F8 JUMPI PUSH1 0x7F DUP3 AND SWAP2 POP JUMPDEST PUSH1 0x20 DUP3 LT DUP2 SUB PUSH2 0x160B JUMPI PUSH2 0x160A PUSH2 0x15B1 JUMP JUMPDEST JUMPDEST POP SWAP2 SWAP1 POP JUMP JUMPDEST PUSH32 0x4E487B7100000000000000000000000000000000000000000000000000000000 PUSH1 0x0 MSTORE PUSH1 0x32 PUSH1 0x4 MSTORE PUSH1 0x24 PUSH1 0x0 REVERT JUMPDEST PUSH32 0x4E487B7100000000000000000000000000000000000000000000000000000000 PUSH1 0x0 MSTORE PUSH1 0x11 PUSH1 0x4 MSTORE PUSH1 0x24 PUSH1 0x0 REVERT JUMPDEST PUSH1 0x0 PUSH2 0x167A DUP3 PUSH2 0xD06 JUMP JUMPDEST SWAP2 POP PUSH2 0x1685 DUP4 PUSH2 0xD06 JUMP JUMPDEST SWAP3 POP DUP3 DUP3 ADD SWAP1 POP DUP1 DUP3 GT ISZERO PUSH2 0x169D JUMPI PUSH2 0x169C PUSH2 0x1640 JUMP JUMPDEST JUMPDEST SWAP3 SWAP2 POP POP JUMP JUMPDEST PUSH1 0x0 PUSH2 0x16AE DUP3 PUSH2 0xD06 JUMP JUMPDEST SWAP2 POP PUSH32 0xFFFFFFFFFFFFFFFFFFFFFFFFFFFFFFFFFFFFFFFFFFFFFFFFFFFFFFFFFFFFFFFF DUP3 SUB PUSH2 0x16E0 JUMPI PUSH2 0x16DF PUSH2 0x1640 JUMP JUMPDEST JUMPDEST PUSH1 0x1 DUP3 ADD SWAP1 POP SWAP2 SWAP1 POP JUMP JUMPDEST PUSH1 0x0 DUP2 SWAP1 POP SWAP3 SWAP2 POP POP JUMP JUMPDEST PUSH1 0x0 PUSH2 0x1701 DUP3 PUSH2 0xD1F JUMP JUMPDEST PUSH2 0x170B DUP2 DUP6 PUSH2 0x16EB JUMP JUMPDEST SWAP4 POP PUSH2 0x171B DUP2 DUP6 PUSH1 0x20 DUP7 ADD PUSH2 0xD3B JUMP JUMPDEST DUP1 DUP5 ADD SWAP2 POP POP SWAP3 SWAP2 POP POP JUMP JUMPDEST PUSH1 0x0 DUP2 SWAP1 POP SWAP2 SWAP1 POP JUMP JUMPDEST PUSH2 0x1742 PUSH2 0x173D DUP3 PUSH2 0xFE6 JUMP JUMPDEST PUSH2 0x1727 JUMP JUMPDEST DUP3 MSTORE POP POP JUMP JUMPDEST PUSH1 0x0 PUSH2 0x1754 DUP3 DUP6 PUSH2 0x16F6 JUMP JUMPDEST SWAP2 POP PUSH2 0x1760 DUP3 DUP5 PUSH2 0x1731 JUMP JUMPDEST PUSH1 0x20 DUP3 ADD SWAP2 POP DUP2 SWAP1 POP SWAP4 SWAP3 POP POP POP JUMP JUMPDEST PUSH1 0x0 PUSH2 0x177C DUP3 DUP5 PUSH2 0x16F6 JUMP JUMPDEST SWAP2 POP DUP2 SWAP1 POP SWAP3 SWAP2 POP POP JUMP JUMPDEST PUSH1 0x0 DUP2 MLOAD SWAP1 POP PUSH2 0x1796 DUP2 PUSH2 0x139B JUMP JUMPDEST SWAP3 SWAP2 POP POP JUMP JUMPDEST PUSH1 0x0 PUSH1 0x20 DUP3 DUP5 SUB SLT ISZERO PUSH2 0x17B2 JUMPI PUSH2 0x17B1 PUSH2 0x1190 JUMP JUMPDEST JUMPDEST PUSH1 0x0 PUSH2 0x17C0 DUP5 DUP3 DUP6 ADD PUSH2 0x1787 JUMP JUMPDEST SWAP2 POP POP SWAP3 SWAP2 POP POP JUMP JUMPDEST PUSH1 0x0 DUP3 DUP3 MSTORE PUSH1 0x20 DUP3 ADD SWAP1 POP SWAP3 SWAP2 POP POP JUMP JUMPDEST PUSH32 0x496E76616C696420626C6F636B20696E64657800000000000000000000000000 PUSH1 0x0 DUP3 ADD MSTORE POP JUMP JUMPDEST PUSH1 0x0 PUSH2 0x1810 PUSH1 0x13 DUP4 PUSH2 0x17C9 JUMP JUMPDEST SWAP2 POP PUSH2 0x181B DUP3 PUSH2 0x17DA JUMP JUMPDEST PUSH1 0x20 DUP3 ADD SWAP1 POP SWAP2 SWAP1 POP JUMP JUMPDEST PUSH1 0x0 PUSH1 0x20 DUP3 ADD SWAP1 POP DUP2 DUP2 SUB PUSH1 0x0 DUP4 ADD MSTORE PUSH2 0x183F DUP2 PUSH2 0x1803 JUMP JUMPDEST SWAP1 POP SWAP2 SWAP1 POP JUMP JUMPDEST PUSH32 0x4F6E6C7920746865206D696E65722063616E206F70656E20636F6D6D69746D65 PUSH1 0x0 DUP3 ADD MSTORE PUSH32 0x6E74730000000000000000000000000000000000000000000000000000000000 PUSH1 0x20 DUP3 ADD MSTORE POP JUMP JUMPDEST PUSH1 0x0 PUSH2 0x18A2 PUSH1 0x23 DUP4 PUSH2 0x17C9 JUMP JUMPDEST SWAP2 POP PUSH2 0x18AD DUP3 PUSH2 0x1846 JUMP JUMPDEST PUSH1 0x40 DUP3 ADD SWAP1 POP SWAP2 SWAP1 POP JUMP JUMPDEST PUSH1 0x0 PUSH1 0x20 DUP3 ADD SWAP1 POP DUP2 DUP2 SUB PUSH1 0x0 DUP4 ADD MSTORE PUSH2 0x18D1 DUP2 PUSH2 0x1895 JUMP JUMPDEST SWAP1 POP SWAP2 SWAP1 POP JUMP JUMPDEST PUSH32 0x496E76616C696420636F6D6D69746D656E7420696E6465780000000000000000 PUSH1 0x0 DUP3 ADD MSTORE POP JUMP JUMPDEST PUSH1 0x0 PUSH2 0x190E PUSH1 0x18 DUP4 PUSH2 0x17C9 JUMP JUMPDEST SWAP2 POP PUSH2 0x1919 DUP3 PUSH2 0x18D8 JUMP JUMPDEST PUSH1 0x20 DUP3 ADD SWAP1 POP SWAP2 SWAP1 POP JUMP JUMPDEST PUSH1 0x0 PUSH1 0x20 DUP3 ADD SWAP1 POP DUP2 DUP2 SUB PUSH1 0x0 DUP4 ADD MSTORE PUSH2 0x193D DUP2 PUSH2 0x1901 JUMP JUMPDEST SWAP1 POP SWAP2 SWAP1 POP JUMP JUMPDEST PUSH1 0x0 DUP2 SWAP1 POP DUP2 PUSH1 0x0 MSTORE PUSH1 0x20 PUSH1 0x0 KECCAK256 SWAP1 POP SWAP2 SWAP1 POP JUMP JUMPDEST PUSH1 0x0 PUSH1 0x20 PUSH1 0x1F DUP4 ADD DIV SWAP1 POP SWAP2 SWAP1 POP JUMP JUMPDEST PUSH1 0x0 DUP3 DUP3 SHL SWAP1 POP SWAP3 SWAP2 POP POP JUMP JUMPDEST PUSH1 0x0 PUSH1 0x8 DUP4 MUL PUSH2 0x19A6 PUSH32 0xFFFFFFFFFFFFFFFFFFFFFFFFFFFFFFFFFFFFFFFFFFFFFFFFFFFFFFFFFFFFFFFF DUP3 PUSH2 0x1969 JUMP JUMPDEST PUSH2 0x19B0 DUP7 DUP4 PUSH2 0x1969 JUMP JUMPDEST SWAP6 POP DUP1 NOT DUP5 AND SWAP4 POP DUP1 DUP7 AND DUP5 OR SWAP3 POP POP POP SWAP4 SWAP3 POP POP POP JUMP JUMPDEST PUSH1 0x0 DUP2 SWAP1 POP SWAP2 SWAP1 POP JUMP JUMPDEST PUSH1 0x0 PUSH2 0x19ED PUSH2 0x19E8 PUSH2 0x19E3 DUP5 PUSH2 0xD06 JUMP JUMPDEST PUSH2 0x19C8 JUMP JUMPDEST PUSH2 0xD06 JUMP JUMPDEST SWAP1 POP SWAP2 SWAP1 POP JUMP JUMPDEST PUSH1 0x0 DUP2 SWAP1 POP SWAP2 SWAP1 POP JUMP JUMPDEST PUSH2 0x1A07 DUP4 PUSH2 0x19D2 JUMP JUMPDEST PUSH2 0x1A1B PUSH2 0x1A13 DUP3 PUSH2 0x19F4 JUMP JUMPDEST DUP5 DUP5 SLOAD PUSH2 0x1976 JUMP JUMPDEST DUP3 SSTORE POP POP POP POP JUMP JUMPDEST PUSH1 0x0 SWAP1 JUMP JUMPDEST PUSH2 0x1A30 PUSH2 0x1A23 JUMP JUMPDEST PUSH2 0x1A3B DUP2 DUP5 DUP5 PUSH2 0x19FE JUMP JUMPDEST POP POP POP JUMP JUMPDEST JUMPDEST DUP2 DUP2 LT ISZERO PUSH2 0x1A5F JUMPI PUSH2 0x1A54 PUSH1 0x0 DUP3 PUSH2 0x1A28 JUMP JUMPDEST PUSH1 0x1 DUP2 ADD SWAP1 POP PUSH2 0x1A41 JUMP JUMPDEST POP POP JUMP JUMPDEST PUSH1 0x1F DUP3 GT ISZERO PUSH2 0x1AA4 JUMPI PUSH2 0x1A75 DUP2 PUSH2 0x1944 JUMP JUMPDEST PUSH2 0x1A7E DUP5 PUSH2 0x1959 JUMP JUMPDEST DUP2 ADD PUSH1 0x20 DUP6 LT ISZERO PUSH2 0x1A8D JUMPI DUP2 SWAP1 POP JUMPDEST PUSH2 0x1AA1 PUSH2 0x1A99 DUP6 PUSH2 0x1959 JUMP JUMPDEST DUP4 ADD DUP3 PUSH2 0x1A40 JUMP JUMPDEST POP POP JUMPDEST POP POP POP JUMP JUMPDEST PUSH1 0x0 DUP3 DUP3 SHR SWAP1 POP SWAP3 SWAP2 POP POP JUMP JUMPDEST PUSH1 0x0 PUSH2 0x1AC7 PUSH1 0x0 NOT DUP5 PUSH1 0x8 MUL PUSH2 0x1AA9 JUMP JUMPDEST NOT DUP1 DUP4 AND SWAP2 POP POP SWAP3 SWAP2 POP POP JUMP JUMPDEST PUSH1 0x0 PUSH2 0x1AE0 DUP4 DUP4 PUSH2 0x1AB6 JUMP JUMPDEST SWAP2 POP DUP3 PUSH1 0x2 MUL DUP3 OR SWAP1 POP SWAP3 SWAP2 POP POP JUMP JUMPDEST PUSH2 0x1AF9 DUP3 PUSH2 0xD1F JUMP JUMPDEST PUSH8 0xFFFFFFFFFFFFFFFF DUP2 GT ISZERO PUSH2 0x1B12 JUMPI PUSH2 0x1B11 PUSH2 0x11D0 JUMP JUMPDEST JUMPDEST PUSH2 0x1B1C DUP3 SLOAD PUSH2 0x15E0 JUMP JUMPDEST PUSH2 0x1B27 DUP3 DUP3 DUP6 PUSH2 0x1A63 JUMP JUMPDEST PUSH1 0x0 PUSH1 0x20 SWAP1 POP PUSH1 0x1F DUP4 GT PUSH1 0x1 DUP2 EQ PUSH2 0x1B5A JUMPI PUSH1 0x0 DUP5 ISZERO PUSH2 0x1B48 JUMPI DUP3 DUP8 ADD MLOAD SWAP1 POP JUMPDEST PUSH2 0x1B52 DUP6 DUP3 PUSH2 0x1AD4 JUMP JUMPDEST DUP7 SSTORE POP PUSH2 0x1BBA JUMP JUMPDEST PUSH1 0x1F NOT DUP5 AND PUSH2 0x1B68 DUP7 PUSH2 0x1944 JUMP JUMPDEST PUSH1 0x0 JUMPDEST DUP3 DUP2 LT ISZERO PUSH2 0x1B90 JUMPI DUP5 DUP10 ADD MLOAD DUP3 SSTORE PUSH1 0x1 DUP3 ADD SWAP2 POP PUSH1 0x20 DUP6 ADD SWAP5 POP PUSH1 0x20 DUP2 ADD SWAP1 POP PUSH2 0x1B6B JUMP JUMPDEST DUP7 DUP4 LT ISZERO PUSH2 0x1BAD JUMPI DUP5 DUP10 ADD MLOAD PUSH2 0x1BA9 PUSH1 0x1F DUP10 AND DUP3 PUSH2 0x1AB6 JUMP JUMPDEST DUP4 SSTORE POP JUMPDEST PUSH1 0x1 PUSH1 0x2 DUP9 MUL ADD DUP9 SSTORE POP POP POP JUMPDEST POP POP POP POP POP POP JUMP JUMPDEST PUSH1 0x0 PUSH1 0x40 DUP3 ADD SWAP1 POP DUP2 DUP2 SUB PUSH1 0x0 DUP4 ADD MSTORE PUSH2 0x1BDC DUP2 DUP6 PUSH2 0x151E JUMP JUMPDEST SWAP1 POP PUSH2 0x1BEB PUSH1 0x20 DUP4 ADD DUP5 PUSH2 0x14FE JUMP JUMPDEST SWAP4 SWAP3 POP POP POP JUMP INVALID LOG2 PUSH5 0x6970667358 0x22 SLT KECCAK256 EXTCODESIZE CREATE2 0xCA CALLDATALOAD 0xF9 SWAP10 0x49 PUSH8 0x21913EC522F3E12E 0xE1 0xE0 RETURNDATASIZE RETURNDATACOPY PREVRANDAO 0xF8 SWAP6 0xF7 0x5D DUP13 SWAP7 0xEA GT 0x1E LOG2 0xB4 PUSH5 0x736F6C6343 STOP ADDMOD SLT STOP CALLER "},"methodIdentifiers":{"commitmentOpenings(uint256)":"e15595cb","computeFinalSeed()":"7d639fab","getCommitmentOpenings()":"0e170a3b","getSeeds()":"1386bc86","minerCommitments(uint256)":"c7db1cd6","open(uint256,uint256,bytes)":"934f26c2","registerCommitments(bytes32[])":"c595be78"}}}}}