{"contracts/atomicSwap.sol":{"AtomicSwap":{"abi":[{"inputs":[{"internalType":"address","name":"_weth","type":"address"}],"stateMutability":"nonpayable","type":"constructor"},{"stateMutability":"payable","type":"fallback"},{"inputs":[],"name":"WETH","outputs":[{"internalType":"address","name":"","type":"address"}],"stateMutability":"view","type":"function"},{"inputs":[{"internalType":"address","name":"_tokenArb","type":"address"},{"internalType":"address","name":"_tokenSettle","type":"address"},{"internalType":"address","name":"_startFactory","type":"address"},{"internalType":"address","name":"_endFactory","type":"address"},{"internalType":"address","name":"_pairStart","type":"address"},{"internalType":"address","name":"_pairEnd","type":"address"},{"internalType":"uint256","name":"_amountIn","type":"uint256"}],"name":"arb","outputs":[{"internalType":"uint256","name":"amountOut","type":"uint256"}],"stateMutability":"nonpayable","type":"function"},{"inputs":[{"internalType":"address","name":"_token","type":"address"},{"internalType":"address","name":"_startFactory","type":"address"},{"internalType":"address","name":"_endFactory","type":"address"},{"internalType":"uint256","name":"_amountIn","type":"uint256"}],"name":"backrun","outputs":[],"stateMutability":"nonpayable","type":"function"},{"inputs":[],"name":"liquidate","outputs":[],"stateMutability":"nonpayable","type":"function"},{"inputs":[{"internalType":"address[]","name":"path","type":"address[]"},{"internalType":"uint256","name":"amountIn","type":"uint256"},{"internalType":"address","name":"factory","type":"address"},{"internalType":"address","name":"recipient","type":"address"},{"internalType":"bool","name":"fromThis","type":"bool"}],"name":"swap","outputs":[],"stateMutability":"nonpayable","type":"function"},{"inputs":[{"internalType":"address[]","name":"path","type":"address[]"},{"internalType":"uint256","name":"amountIn","type":"uint256"},{"internalType":"address","name":"factory","type":"address"},{"internalType":"address","name":"recipient","type":"address"},{"internalType":"address","name":"_pair","type":"address"},{"internalType":"bool","name":"fromThis","type":"bool"}],"name":"swapCheaper","outputs":[{"internalType":"uint256","name":"amountOut","type":"uint256"}],"stateMutability":"nonpayable","type":"function"},{"stateMutability":"payable","type":"receive"}],"evm":{"bytecode":{"linkReferences":{},"object":"60806040523480156200001157600080fd5b5060405162002c3938038062002c3983398181016040528101906200003791906200016a565b806000806101000a81548173ffffffffffffffffffffffffffffffffffffffff021916908373ffffffffffffffffffffffffffffffffffffffff16021790555080600260006101000a81548173ffffffffffffffffffffffffffffffffffffffff021916908373ffffffffffffffffffffffffffffffffffffffff16021790555033600160006101000a81548173ffffffffffffffffffffffffffffffffffffffff021916908373ffffffffffffffffffffffffffffffffffffffff160217905550506200019c565b600080fd5b600073ffffffffffffffffffffffffffffffffffffffff82169050919050565b6000620001328262000105565b9050919050565b620001448162000125565b81146200015057600080fd5b50565b600081519050620001648162000139565b92915050565b60006020828403121562000183576200018262000100565b5b6000620001938482850162000153565b91505092915050565b612a8d80620001ac6000396000f3fe6080604052600436106100595760003560e01c80630cc732631461006257806328a070251461008b5780633437a611146100a25780637e372601146100df57806386f89bd21461011c578063ad5c46481461014557610060565b3661006057005b005b34801561006e57600080fd5b5061008960048036038101906100849190611e60565b610170565b005b34801561009757600080fd5b506100a0610459565b005b3480156100ae57600080fd5b506100c960048036038101906100c49190611ef7565b610649565b6040516100d69190611fa8565b60405180910390f35b3480156100eb57600080fd5b5061010660048036038101906101019190611fc3565b6108cf565b6040516101139190611fa8565b60405180910390f35b34801561012857600080fd5b50610143600480360381019061013e919061206c565b610c07565b005b34801561015157600080fd5b5061015a611326565b60405161016791906120e2565b60405180910390f35b60008373ffffffffffffffffffffffffffffffffffffffff1663e6a43905876000815181106101a2576101a16120fd565b5b6020026020010151886001815181106101be576101bd6120fd565b5b60200260200101516040518363ffffffff1660e01b81526004016101e392919061212c565b602060405180830381865afa158015610200573d6000803e3d6000fd5b505050506040513d601f19601f82011682018060405250810190610224919061216a565b9050600061023385878961134a565b90506104508760008151811061024c5761024b6120fd565b5b602002602001015173ffffffffffffffffffffffffffffffffffffffff168373ffffffffffffffffffffffffffffffffffffffff16630dfe16816040518163ffffffff1660e01b8152600401602060405180830381865afa1580156102b5573d6000803e3d6000fd5b505050506040513d601f19601f820116820180604052508101906102d9919061216a565b73ffffffffffffffffffffffffffffffffffffffff16146103155781600181518110610308576103076120fd565b5b6020026020010151610332565b81600081518110610329576103286120fd565b5b60200260200101515b88600081518110610346576103456120fd565b5b602002602001015173ffffffffffffffffffffffffffffffffffffffff168473ffffffffffffffffffffffffffffffffffffffff16630dfe16816040518163ffffffff1660e01b8152600401602060405180830381865afa1580156103af573d6000803e3d6000fd5b505050506040513d601f19601f820116820180604052508101906103d3919061216a565b73ffffffffffffffffffffffffffffffffffffffff161461040f5782600081518110610402576104016120fd565b5b602002602001015161042c565b82600181518110610423576104226120fd565b5b60200260200101515b896000815181106104405761043f6120fd565b5b60200260200101518588886114d5565b50505050505050565b600160009054906101000a900473ffffffffffffffffffffffffffffffffffffffff1673ffffffffffffffffffffffffffffffffffffffff163373ffffffffffffffffffffffffffffffffffffffff16146104e9576040517f08c379a00000000000000000000000000000000000000000000000000000000081526004016104e0906121f4565b60405180910390fd5b600260009054906101000a900473ffffffffffffffffffffffffffffffffffffffff1673ffffffffffffffffffffffffffffffffffffffff1663a9059cbb600160009054906101000a900473ffffffffffffffffffffffffffffffffffffffff16600260009054906101000a900473ffffffffffffffffffffffffffffffffffffffff1673ffffffffffffffffffffffffffffffffffffffff166370a08231306040518263ffffffff1660e01b81526004016105a591906120e2565b602060405180830381865afa1580156105c2573d6000803e3d6000fd5b505050506040513d601f19601f820116820180604052508101906105e69190612229565b6040518363ffffffff1660e01b8152600401610603929190612256565b6020604051808303816000875af1158015610622573d6000803e3d6000fd5b505050506040513d601f19601f820116820180604052508101906106469190612294565b50565b600080600267ffffffffffffffff81111561066757610666611c51565b5b6040519080825280602002602001820160405280156106955781602001602082028036833780820191505090505b50905087816000815181106106ad576106ac6120fd565b5b602002602001019073ffffffffffffffffffffffffffffffffffffffff16908173ffffffffffffffffffffffffffffffffffffffff168152505088816001815181106106fc576106fb6120fd565b5b602002602001019073ffffffffffffffffffffffffffffffffffffffff16908173ffffffffffffffffffffffffffffffffffffffff1681525050610745818489308960006108cf565b506000600267ffffffffffffffff81111561076357610762611c51565b5b6040519080825280602002602001820160405280156107915781602001602082028036833780820191505090505b50905089816000815181106107a9576107a86120fd565b5b602002602001019073ffffffffffffffffffffffffffffffffffffffff16908173ffffffffffffffffffffffffffffffffffffffff168152505088816001815181106107f8576107f76120fd565b5b602002602001019073ffffffffffffffffffffffffffffffffffffffff16908173ffffffffffffffffffffffffffffffffffffffff168152505060008a90506108bf828273ffffffffffffffffffffffffffffffffffffffff166370a08231306040518263ffffffff1660e01b815260040161087491906120e2565b602060405180830381865afa158015610891573d6000803e3d6000fd5b505050506040513d601f19601f820116820180604052508101906108b59190612229565b8a338a60016108cf565b9350505050979650505050505050565b60008083905060006108e287898b61134a565b9050610aff896000815181106108fb576108fa6120fd565b5b602002602001015173ffffffffffffffffffffffffffffffffffffffff168373ffffffffffffffffffffffffffffffffffffffff16630dfe16816040518163ffffffff1660e01b8152600401602060405180830381865afa158015610964573d6000803e3d6000fd5b505050506040513d601f19601f82011682018060405250810190610988919061216a565b73ffffffffffffffffffffffffffffffffffffffff16146109c457816001815181106109b7576109b66120fd565b5b60200260200101516109e1565b816000815181106109d8576109d76120fd565b5b60200260200101515b8a6000815181106109f5576109f46120fd565b5b602002602001015173ffffffffffffffffffffffffffffffffffffffff168473ffffffffffffffffffffffffffffffffffffffff16630dfe16816040518163ffffffff1660e01b8152600401602060405180830381865afa158015610a5e573d6000803e3d6000fd5b505050506040513d601f19601f82011682018060405250810190610a82919061216a565b73ffffffffffffffffffffffffffffffffffffffff1614610abe5782600081518110610ab157610ab06120fd565b5b6020026020010151610adb565b82600181518110610ad257610ad16120fd565b5b60200260200101515b8b600081518110610aef57610aee6120fd565b5b6020026020010151888a896114d5565b8173ffffffffffffffffffffffffffffffffffffffff16630dfe16816040518163ffffffff1660e01b8152600401602060405180830381865afa158015610b4a573d6000803e3d6000fd5b505050506040513d601f19601f82011682018060405250810190610b6e919061216a565b73ffffffffffffffffffffffffffffffffffffffff1689600181518110610b9857610b976120fd565b5b602002602001015173ffffffffffffffffffffffffffffffffffffffff1614610bdc5780600181518110610bcf57610bce6120fd565b5b6020026020010151610bf9565b80600081518110610bf057610bef6120fd565b5b60200260200101515b925050509695505050505050565b6000600260009054906101000a900473ffffffffffffffffffffffffffffffffffffffff1673ffffffffffffffffffffffffffffffffffffffff166370a08231306040518263ffffffff1660e01b8152600401610c6491906120e2565b602060405180830381865afa158015610c81573d6000803e3d6000fd5b505050506040513d601f19601f82011682018060405250810190610ca59190612229565b90506000600267ffffffffffffffff811115610cc457610cc3611c51565b5b604051908082528060200260200182016040528015610cf25781602001602082028036833780820191505090505b5090506000600267ffffffffffffffff811115610d1257610d11611c51565b5b604051908082528060200260200182016040528015610d405781602001602082028036833780820191505090505b50905060008054906101000a900473ffffffffffffffffffffffffffffffffffffffff1682600081518110610d7857610d776120fd565b5b602002602001019073ffffffffffffffffffffffffffffffffffffffff16908173ffffffffffffffffffffffffffffffffffffffff16815250508682600181518110610dc757610dc66120fd565b5b602002602001019073ffffffffffffffffffffffffffffffffffffffff16908173ffffffffffffffffffffffffffffffffffffffff16815250508681600081518110610e1657610e156120fd565b5b602002602001019073ffffffffffffffffffffffffffffffffffffffff16908173ffffffffffffffffffffffffffffffffffffffff168152505060008054906101000a900473ffffffffffffffffffffffffffffffffffffffff1681600181518110610e8557610e846120fd565b5b602002602001019073ffffffffffffffffffffffffffffffffffffffff16908173ffffffffffffffffffffffffffffffffffffffff1681525050610ecd828588306000610170565b610f54818873ffffffffffffffffffffffffffffffffffffffff166370a08231306040518263ffffffff1660e01b8152600401610f0a91906120e2565b602060405180830381865afa158015610f27573d6000803e3d6000fd5b505050506040513d601f19601f82011682018060405250810190610f4b9190612229565b87306001610170565b8383610f6091906122f0565b600260009054906101000a900473ffffffffffffffffffffffffffffffffffffffff1673ffffffffffffffffffffffffffffffffffffffff166370a08231306040518263ffffffff1660e01b8152600401610fbb91906120e2565b602060405180830381865afa158015610fd8573d6000803e3d6000fd5b505050506040513d601f19601f82011682018060405250810190610ffc9190612229565b1161103c576040517f08c379a000000000000000000000000000000000000000000000000000000000815260040161103390612370565b60405180910390fd5b60006127106123288686600260009054906101000a900473ffffffffffffffffffffffffffffffffffffffff1673ffffffffffffffffffffffffffffffffffffffff166370a08231306040518263ffffffff1660e01b81526004016110a191906120e2565b602060405180830381865afa1580156110be573d6000803e3d6000fd5b505050506040513d601f19601f820116820180604052508101906110e29190612229565b6110ec9190612390565b6110f69190612390565b61110091906123c4565b61110a9190612435565b9050600260009054906101000a900473ffffffffffffffffffffffffffffffffffffffff1673ffffffffffffffffffffffffffffffffffffffff16632e1a7d4d826040518263ffffffff1660e01b81526004016111679190611fa8565b600060405180830381600087803b15801561118157600080fd5b505af1158015611195573d6000803e3d6000fd5b505050504173ffffffffffffffffffffffffffffffffffffffff166108fc829081150290604051600060405180830381858888f193505050501580156111df573d6000803e3d6000fd5b50600260009054906101000a900473ffffffffffffffffffffffffffffffffffffffff1673ffffffffffffffffffffffffffffffffffffffff1663a9059cbb33600260009054906101000a900473ffffffffffffffffffffffffffffffffffffffff1673ffffffffffffffffffffffffffffffffffffffff166370a08231306040518263ffffffff1660e01b815260040161127a91906120e2565b602060405180830381865afa158015611297573d6000803e3d6000fd5b505050506040513d601f19601f820116820180604052508101906112bb9190612229565b6040518363ffffffff1660e01b81526004016112d8929190612256565b6020604051808303816000875af11580156112f7573d6000803e3d6000fd5b505050506040513d601f19601f8201168201806040525081019061131b9190612294565b505050505050505050565b60008054906101000a900473ffffffffffffffffffffffffffffffffffffffff1681565b6060600282511015611391576040517f08c379a0000000000000000000000000000000000000000000000000000000008152600401611388906124b2565b60405180910390fd5b815167ffffffffffffffff8111156113ac576113ab611c51565b5b6040519080825280602002602001820160405280156113da5781602001602082028036833780820191505090505b50905082816000815181106113f2576113f16120fd565b5b60200260200101818152505060005b6001835161140f9190612390565b8110156114cd57600080611464878685815181106114305761142f6120fd565b5b60200260200101518760018761144691906122f0565b81518110611457576114566120fd565b5b60200260200101516117bb565b9150915061148d84848151811061147e5761147d6120fd565b5b6020026020010151838361192f565b8460018561149b91906122f0565b815181106114ac576114ab6120fd565b5b602002602001018181525050505080806114c5906124d2565b915050611401565b509392505050565b6000839050600085905060008673ffffffffffffffffffffffffffffffffffffffff168373ffffffffffffffffffffffffffffffffffffffff16630dfe16816040518163ffffffff1660e01b8152600401602060405180830381865afa158015611543573d6000803e3d6000fd5b505050506040513d601f19601f82011682018060405250810190611567919061216a565b73ffffffffffffffffffffffffffffffffffffffff1614611588578761158a565b885b905083611616578173ffffffffffffffffffffffffffffffffffffffff166323b872dd3388846040518463ffffffff1660e01b81526004016115ce9392919061251a565b6020604051808303816000875af11580156115ed573d6000803e3d6000fd5b505050506040513d601f19601f820116820180604052508101906116119190612294565b611695565b8173ffffffffffffffffffffffffffffffffffffffff1663a9059cbb87836040518363ffffffff1660e01b8152600401611651929190612256565b6020604051808303816000875af1158015611670573d6000803e3d6000fd5b505050506040513d601f19601f820116820180604052508101906116949190612294565b5b6116d4576040517f08c379a00000000000000000000000000000000000000000000000000000000081526004016116cb9061259d565b60405180910390fd5b8273ffffffffffffffffffffffffffffffffffffffff1663022c0d9f828b146116fd578a611700565b60005b838b1461170d578a611710565b60005b88600067ffffffffffffffff81111561172c5761172b611c51565b5b6040519080825280601f01601f19166020018201604052801561175e5781602001600182028036833780820191505090505b506040518563ffffffff1660e01b815260040161177e949392919061263c565b600060405180830381600087803b15801561179857600080fd5b505af11580156117ac573d6000803e3d6000fd5b50505050505050505050505050565b60008060006117ca8585611a35565b5090506000808773ffffffffffffffffffffffffffffffffffffffff1663e6a4390588886040518363ffffffff1660e01b815260040161180b92919061212c565b602060405180830381865afa158015611828573d6000803e3d6000fd5b505050506040513d601f19601f8201168201806040525081019061184c919061216a565b73ffffffffffffffffffffffffffffffffffffffff16630902f1ac6040518163ffffffff1660e01b8152600401606060405180830381865afa158015611896573d6000803e3d6000fd5b505050506040513d601f19601f820116820180604052508101906118ba919061270a565b506dffffffffffffffffffffffffffff1691506dffffffffffffffffffffffffffff1691508273ffffffffffffffffffffffffffffffffffffffff168773ffffffffffffffffffffffffffffffffffffffff161461191957808261191c565b81815b8095508196505050505050935093915050565b6000808411611973576040517f08c379a000000000000000000000000000000000000000000000000000000000815260040161196a906127cf565b60405180910390fd5b6000831180156119835750600082115b6119c2576040517f08c379a00000000000000000000000000000000000000000000000000000000081526004016119b990612861565b60405180910390fd5b60006119d96103e586611b6190919063ffffffff16565b905060006119f08483611b6190919063ffffffff16565b90506000611a1b83611a0d6103e889611b6190919063ffffffff16565b611bce90919063ffffffff16565b90508082611a299190612435565b93505050509392505050565b6000808273ffffffffffffffffffffffffffffffffffffffff168473ffffffffffffffffffffffffffffffffffffffff1603611aa6576040517f08c379a0000000000000000000000000000000000000000000000000000000008152600401611a9d906128f3565b60405180910390fd5b8273ffffffffffffffffffffffffffffffffffffffff168473ffffffffffffffffffffffffffffffffffffffff1610611ae0578284611ae3565b83835b8092508193505050600073ffffffffffffffffffffffffffffffffffffffff168273ffffffffffffffffffffffffffffffffffffffff1603611b5a576040517f08c379a0000000000000000000000000000000000000000000000000000000008152600401611b519061295f565b60405180910390fd5b9250929050565b600080821480611b89575082828385611b7a91906123c4565b925082611b879190612435565b145b611bc8576040517f08c379a0000000000000000000000000000000000000000000000000000000008152600401611bbf906129cb565b60405180910390fd5b92915050565b6000828284611bdd91906122f0565b9150811015611c21576040517f08c379a0000000000000000000000000000000000000000000000000000000008152600401611c1890612a37565b60405180910390fd5b92915050565b6000604051905090565b600080fd5b600080fd5b600080fd5b6000601f19601f8301169050919050565b7f4e487b7100000000000000000000000000000000000000000000000000000000600052604160045260246000fd5b611c8982611c40565b810181811067ffffffffffffffff82111715611ca857611ca7611c51565b5b80604052505050565b6000611cbb611c27565b9050611cc78282611c80565b919050565b600067ffffffffffffffff821115611ce757611ce6611c51565b5b602082029050602081019050919050565b600080fd5b600073ffffffffffffffffffffffffffffffffffffffff82169050919050565b6000611d2882611cfd565b9050919050565b611d3881611d1d565b8114611d4357600080fd5b50565b600081359050611d5581611d2f565b92915050565b6000611d6e611d6984611ccc565b611cb1565b90508083825260208201905060208402830185811115611d9157611d90611cf8565b5b835b81811015611dba5780611da68882611d46565b845260208401935050602081019050611d93565b5050509392505050565b600082601f830112611dd957611dd8611c3b565b5b8135611de9848260208601611d5b565b91505092915050565b6000819050919050565b611e0581611df2565b8114611e1057600080fd5b50565b600081359050611e2281611dfc565b92915050565b60008115159050919050565b611e3d81611e28565b8114611e4857600080fd5b50565b600081359050611e5a81611e34565b92915050565b600080600080600060a08688031215611e7c57611e7b611c31565b5b600086013567ffffffffffffffff811115611e9a57611e99611c36565b5b611ea688828901611dc4565b9550506020611eb788828901611e13565b9450506040611ec888828901611d46565b9350506060611ed988828901611d46565b9250506080611eea88828901611e4b565b9150509295509295909350565b600080600080600080600060e0888a031215611f1657611f15611c31565b5b6000611f248a828b01611d46565b9750506020611f358a828b01611d46565b9650506040611f468a828b01611d46565b9550506060611f578a828b01611d46565b9450506080611f688a828b01611d46565b93505060a0611f798a828b01611d46565b92505060c0611f8a8a828b01611e13565b91505092959891949750929550565b611fa281611df2565b82525050565b6000602082019050611fbd6000830184611f99565b92915050565b60008060008060008060c08789031215611fe057611fdf611c31565b5b600087013567ffffffffffffffff811115611ffe57611ffd611c36565b5b61200a89828a01611dc4565b965050602061201b89828a01611e13565b955050604061202c89828a01611d46565b945050606061203d89828a01611d46565b935050608061204e89828a01611d46565b92505060a061205f89828a01611e4b565b9150509295509295509295565b6000806000806080858703121561208657612085611c31565b5b600061209487828801611d46565b94505060206120a587828801611d46565b93505060406120b687828801611d46565b92505060606120c787828801611e13565b91505092959194509250565b6120dc81611d1d565b82525050565b60006020820190506120f760008301846120d3565b92915050565b7f4e487b7100000000000000000000000000000000000000000000000000000000600052603260045260246000fd5b600060408201905061214160008301856120d3565b61214e60208301846120d3565b9392505050565b60008151905061216481611d2f565b92915050565b6000602082840312156121805761217f611c31565b5b600061218e84828501612155565b91505092915050565b600082825260208201905092915050565b7f6e6f7420616c6c6f776564000000000000000000000000000000000000000000600082015250565b60006121de600b83612197565b91506121e9826121a8565b602082019050919050565b6000602082019050818103600083015261220d816121d1565b9050919050565b60008151905061222381611dfc565b92915050565b60006020828403121561223f5761223e611c31565b5b600061224d84828501612214565b91505092915050565b600060408201905061226b60008301856120d3565b6122786020830184611f99565b9392505050565b60008151905061228e81611e34565b92915050565b6000602082840312156122aa576122a9611c31565b5b60006122b88482850161227f565b91505092915050565b7f4e487b7100000000000000000000000000000000000000000000000000000000600052601160045260246000fd5b60006122fb82611df2565b915061230683611df2565b925082820190508082111561231e5761231d6122c1565b5b92915050565b7f617262206e6f742070726f66697461626c650000000000000000000000000000600082015250565b600061235a601283612197565b915061236582612324565b602082019050919050565b600060208201905081810360008301526123898161234d565b9050919050565b600061239b82611df2565b91506123a683611df2565b92508282039050818111156123be576123bd6122c1565b5b92915050565b60006123cf82611df2565b91506123da83611df2565b92508282026123e881611df2565b915082820484148315176123ff576123fe6122c1565b5b5092915050565b7f4e487b7100000000000000000000000000000000000000000000000000000000600052601260045260246000fd5b600061244082611df2565b915061244b83611df2565b92508261245b5761245a612406565b5b828204905092915050565b7f556e697377617056324c6962726172793a20494e56414c49445f504154480000600082015250565b600061249c601e83612197565b91506124a782612466565b602082019050919050565b600060208201905081810360008301526124cb8161248f565b9050919050565b60006124dd82611df2565b91507fffffffffffffffffffffffffffffffffffffffffffffffffffffffffffffffff820361250f5761250e6122c1565b5b600182019050919050565b600060608201905061252f60008301866120d3565b61253c60208301856120d3565b6125496040830184611f99565b949350505050565b7f7472616e73666572206661696c65640000000000000000000000000000000000600082015250565b6000612587600f83612197565b915061259282612551565b602082019050919050565b600060208201905081810360008301526125b68161257a565b9050919050565b600081519050919050565b600082825260208201905092915050565b60005b838110156125f75780820151818401526020810190506125dc565b60008484015250505050565b600061260e826125bd565b61261881856125c8565b93506126288185602086016125d9565b61263181611c40565b840191505092915050565b60006080820190506126516000830187611f99565b61265e6020830186611f99565b61266b60408301856120d3565b818103606083015261267d8184612603565b905095945050505050565b60006dffffffffffffffffffffffffffff82169050919050565b6126ab81612688565b81146126b657600080fd5b50565b6000815190506126c8816126a2565b92915050565b600063ffffffff82169050919050565b6126e7816126ce565b81146126f257600080fd5b50565b600081519050612704816126de565b92915050565b60008060006060848603121561272357612722611c31565b5b6000612731868287016126b9565b9350506020612742868287016126b9565b9250506040612753868287016126f5565b9150509250925092565b7f556e697377617056324c6962726172793a20494e53554646494349454e545f4960008201527f4e5055545f414d4f554e54000000000000000000000000000000000000000000602082015250565b60006127b9602b83612197565b91506127c48261275d565b604082019050919050565b600060208201905081810360008301526127e8816127ac565b9050919050565b7f556e697377617056324c6962726172793a20494e53554646494349454e545f4c60008201527f4951554944495459000000000000000000000000000000000000000000000000602082015250565b600061284b602883612197565b9150612856826127ef565b604082019050919050565b6000602082019050818103600083015261287a8161283e565b9050919050565b7f556e697377617056324c6962726172793a204944454e544943414c5f4144445260008201527f4553534553000000000000000000000000000000000000000000000000000000602082015250565b60006128dd602583612197565b91506128e882612881565b604082019050919050565b6000602082019050818103600083015261290c816128d0565b9050919050565b7f556e697377617056324c6962726172793a205a45524f5f414444524553530000600082015250565b6000612949601e83612197565b915061295482612913565b602082019050919050565b600060208201905081810360008301526129788161293c565b9050919050565b7f64732d6d6174682d6d756c2d6f766572666c6f77000000000000000000000000600082015250565b60006129b5601483612197565b91506129c08261297f565b602082019050919050565b600060208201905081810360008301526129e4816129a8565b9050919050565b7f64732d6d6174682d6164642d6f766572666c6f77000000000000000000000000600082015250565b6000612a21601483612197565b9150612a2c826129eb565b602082019050919050565b60006020820190508181036000830152612a5081612a14565b905091905056fea264697066735822122000dac20ba5054c2c250944bfa1724d854bbc5aa7e03065fa365a21ccf810faf264736f6c63430008120033","opcodes":"PUSH1 0x80 PUSH1 0x40 MSTORE CALLVALUE DUP1 ISZERO PUSH3 0x11 JUMPI PUSH1 0x0 DUP1 REVERT JUMPDEST POP PUSH1 0x40 MLOAD PUSH3 0x2C39 CODESIZE SUB DUP1 PUSH3 0x2C39 DUP4 CODECOPY DUP2 DUP2 ADD PUSH1 0x40 MSTORE DUP2 ADD SWAP1 PUSH3 0x37 SWAP2 SWAP1 PUSH3 0x16A JUMP JUMPDEST DUP1 PUSH1 0x0 DUP1 PUSH2 0x100 EXP DUP2 SLOAD DUP2 PUSH20 0xFFFFFFFFFFFFFFFFFFFFFFFFFFFFFFFFFFFFFFFF MUL NOT AND SWAP1 DUP4 PUSH20 0xFFFFFFFFFFFFFFFFFFFFFFFFFFFFFFFFFFFFFFFF AND MUL OR SWAP1 SSTORE POP DUP1 PUSH1 0x2 PUSH1 0x0 PUSH2 0x100 EXP DUP2 SLOAD DUP2 PUSH20 0xFFFFFFFFFFFFFFFFFFFFFFFFFFFFFFFFFFFFFFFF MUL NOT AND SWAP1 DUP4 PUSH20 0xFFFFFFFFFFFFFFFFFFFFFFFFFFFFFFFFFFFFFFFF AND MUL OR SWAP1 SSTORE POP CALLER PUSH1 0x1 PUSH1 0x0 PUSH2 0x100 EXP DUP2 SLOAD DUP2 PUSH20 0xFFFFFFFFFFFFFFFFFFFFFFFFFFFFFFFFFFFFFFFF MUL NOT AND SWAP1 DUP4 PUSH20 0xFFFFFFFFFFFFFFFFFFFFFFFFFFFFFFFFFFFFFFFF AND MUL OR SWAP1 SSTORE POP POP PUSH3 0x19C JUMP JUMPDEST PUSH1 0x0 DUP1 REVERT JUMPDEST PUSH1 0x0 PUSH20 0xFFFFFFFFFFFFFFFFFFFFFFFFFFFFFFFFFFFFFFFF DUP3 AND SWAP1 POP SWAP2 SWAP1 POP JUMP JUMPDEST PUSH1 0x0 PUSH3 0x132 DUP3 PUSH3 0x105 JUMP JUMPDEST SWAP1 POP SWAP2 SWAP1 POP JUMP JUMPDEST PUSH3 0x144 DUP2 PUSH3 0x125 JUMP JUMPDEST DUP2 EQ PUSH3 0x150 JUMPI PUSH1 0x0 DUP1 REVERT JUMPDEST POP JUMP JUMPDEST PUSH1 0x0 DUP2 MLOAD SWAP1 POP PUSH3 0x164 DUP2 PUSH3 0x139 JUMP JUMPDEST SWAP3 SWAP2 POP POP JUMP JUMPDEST PUSH1 0x0 PUSH1 0x20 DUP3 DUP5 SUB SLT ISZERO PUSH3 0x183 JUMPI PUSH3 0x182 PUSH3 0x100 JUMP JUMPDEST JUMPDEST PUSH1 0x0 PUSH3 0x193 DUP5 DUP3 DUP6 ADD PUSH3 0x153 JUMP JUMPDEST SWAP2 POP POP SWAP3 SWAP2 POP POP JUMP JUMPDEST PUSH2 0x2A8D DUP1 PUSH3 0x1AC PUSH1 0x0 CODECOPY PUSH1 0x0 RETURN INVALID PUSH1 0x80 PUSH1 0x40 MSTORE PUSH1 0x4 CALLDATASIZE LT PUSH2 0x59 JUMPI PUSH1 0x0 CALLDATALOAD PUSH1 0xE0 SHR DUP1 PUSH4 0xCC73263 EQ PUSH2 0x62 JUMPI DUP1 PUSH4 0x28A07025 EQ PUSH2 0x8B JUMPI DUP1 PUSH4 0x3437A611 EQ PUSH2 0xA2 JUMPI DUP1 PUSH4 0x7E372601 EQ PUSH2 0xDF JUMPI DUP1 PUSH4 0x86F89BD2 EQ PUSH2 0x11C JUMPI DUP1 PUSH4 0xAD5C4648 EQ PUSH2 0x145 JUMPI PUSH2 0x60 JUMP JUMPDEST CALLDATASIZE PUSH2 0x60 JUMPI STOP JUMPDEST STOP JUMPDEST CALLVALUE DUP1 ISZERO PUSH2 0x6E JUMPI PUSH1 0x0 DUP1 REVERT JUMPDEST POP PUSH2 0x89 PUSH1 0x4 DUP1 CALLDATASIZE SUB DUP2 ADD SWAP1 PUSH2 0x84 SWAP2 SWAP1 PUSH2 0x1E60 JUMP JUMPDEST PUSH2 0x170 JUMP JUMPDEST STOP JUMPDEST CALLVALUE DUP1 ISZERO PUSH2 0x97 JUMPI PUSH1 0x0 DUP1 REVERT JUMPDEST POP PUSH2 0xA0 PUSH2 0x459 JUMP JUMPDEST STOP JUMPDEST CALLVALUE DUP1 ISZERO PUSH2 0xAE JUMPI PUSH1 0x0 DUP1 REVERT JUMPDEST POP PUSH2 0xC9 PUSH1 0x4 DUP1 CALLDATASIZE SUB DUP2 ADD SWAP1 PUSH2 0xC4 SWAP2 SWAP1 PUSH2 0x1EF7 JUMP JUMPDEST PUSH2 0x649 JUMP JUMPDEST PUSH1 0x40 MLOAD PUSH2 0xD6 SWAP2 SWAP1 PUSH2 0x1FA8 JUMP JUMPDEST PUSH1 0x40 MLOAD DUP1 SWAP2 SUB SWAP1 RETURN JUMPDEST CALLVALUE DUP1 ISZERO PUSH2 0xEB JUMPI PUSH1 0x0 DUP1 REVERT JUMPDEST POP PUSH2 0x106 PUSH1 0x4 DUP1 CALLDATASIZE SUB DUP2 ADD SWAP1 PUSH2 0x101 SWAP2 SWAP1 PUSH2 0x1FC3 JUMP JUMPDEST PUSH2 0x8CF JUMP JUMPDEST PUSH1 0x40 MLOAD PUSH2 0x113 SWAP2 SWAP1 PUSH2 0x1FA8 JUMP JUMPDEST PUSH1 0x40 MLOAD DUP1 SWAP2 SUB SWAP1 RETURN JUMPDEST CALLVALUE DUP1 ISZERO PUSH2 0x128 JUMPI PUSH1 0x0 DUP1 REVERT JUMPDEST POP PUSH2 0x143 PUSH1 0x4 DUP1 CALLDATASIZE SUB DUP2 ADD SWAP1 PUSH2 0x13E SWAP2 SWAP1 PUSH2 0x206C JUMP JUMPDEST PUSH2 0xC07 JUMP JUMPDEST STOP JUMPDEST CALLVALUE DUP1 ISZERO PUSH2 0x151 JUMPI PUSH1 0x0 DUP1 REVERT JUMPDEST POP PUSH2 0x15A PUSH2 0x1326 JUMP JUMPDEST PUSH1 0x40 MLOAD PUSH2 0x167 SWAP2 SWAP1 PUSH2 0x20E2 JUMP JUMPDEST PUSH1 0x40 MLOAD DUP1 SWAP2 SUB SWAP1 RETURN JUMPDEST PUSH1 0x0 DUP4 PUSH20 0xFFFFFFFFFFFFFFFFFFFFFFFFFFFFFFFFFFFFFFFF AND PUSH4 0xE6A43905 DUP8 PUSH1 0x0 DUP2 MLOAD DUP2 LT PUSH2 0x1A2 JUMPI PUSH2 0x1A1 PUSH2 0x20FD JUMP JUMPDEST JUMPDEST PUSH1 0x20 MUL PUSH1 0x20 ADD ADD MLOAD DUP9 PUSH1 0x1 DUP2 MLOAD DUP2 LT PUSH2 0x1BE JUMPI PUSH2 0x1BD PUSH2 0x20FD JUMP JUMPDEST JUMPDEST PUSH1 0x20 MUL PUSH1 0x20 ADD ADD MLOAD PUSH1 0x40 MLOAD DUP4 PUSH4 0xFFFFFFFF AND PUSH1 0xE0 SHL DUP2 MSTORE PUSH1 0x4 ADD PUSH2 0x1E3 SWAP3 SWAP2 SWAP1 PUSH2 0x212C JUMP JUMPDEST PUSH1 0x20 PUSH1 0x40 MLOAD DUP1 DUP4 SUB DUP2 DUP7 GAS STATICCALL ISZERO DUP1 ISZERO PUSH2 0x200 JUMPI RETURNDATASIZE PUSH1 0x0 DUP1 RETURNDATACOPY RETURNDATASIZE PUSH1 0x0 REVERT JUMPDEST POP POP POP POP PUSH1 0x40 MLOAD RETURNDATASIZE PUSH1 0x1F NOT PUSH1 0x1F DUP3 ADD AND DUP3 ADD DUP1 PUSH1 0x40 MSTORE POP DUP2 ADD SWAP1 PUSH2 0x224 SWAP2 SWAP1 PUSH2 0x216A JUMP JUMPDEST SWAP1 POP PUSH1 0x0 PUSH2 0x233 DUP6 DUP8 DUP10 PUSH2 0x134A JUMP JUMPDEST SWAP1 POP PUSH2 0x450 DUP8 PUSH1 0x0 DUP2 MLOAD DUP2 LT PUSH2 0x24C JUMPI PUSH2 0x24B PUSH2 0x20FD JUMP JUMPDEST JUMPDEST PUSH1 0x20 MUL PUSH1 0x20 ADD ADD MLOAD PUSH20 0xFFFFFFFFFFFFFFFFFFFFFFFFFFFFFFFFFFFFFFFF AND DUP4 PUSH20 0xFFFFFFFFFFFFFFFFFFFFFFFFFFFFFFFFFFFFFFFF AND PUSH4 0xDFE1681 PUSH1 0x40 MLOAD DUP2 PUSH4 0xFFFFFFFF AND PUSH1 0xE0 SHL DUP2 MSTORE PUSH1 0x4 ADD PUSH1 0x20 PUSH1 0x40 MLOAD DUP1 DUP4 SUB DUP2 DUP7 GAS STATICCALL ISZERO DUP1 ISZERO PUSH2 0x2B5 JUMPI RETURNDATASIZE PUSH1 0x0 DUP1 RETURNDATACOPY RETURNDATASIZE PUSH1 0x0 REVERT JUMPDEST POP POP POP POP PUSH1 0x40 MLOAD RETURNDATASIZE PUSH1 0x1F NOT PUSH1 0x1F DUP3 ADD AND DUP3 ADD DUP1 PUSH1 0x40 MSTORE POP DUP2 ADD SWAP1 PUSH2 0x2D9 SWAP2 SWAP1 PUSH2 0x216A JUMP JUMPDEST PUSH20 0xFFFFFFFFFFFFFFFFFFFFFFFFFFFFFFFFFFFFFFFF AND EQ PUSH2 0x315 JUMPI DUP2 PUSH1 0x1 DUP2 MLOAD DUP2 LT PUSH2 0x308 JUMPI PUSH2 0x307 PUSH2 0x20FD JUMP JUMPDEST JUMPDEST PUSH1 0x20 MUL PUSH1 0x20 ADD ADD MLOAD PUSH2 0x332 JUMP JUMPDEST DUP2 PUSH1 0x0 DUP2 MLOAD DUP2 LT PUSH2 0x329 JUMPI PUSH2 0x328 PUSH2 0x20FD JUMP JUMPDEST JUMPDEST PUSH1 0x20 MUL PUSH1 0x20 ADD ADD MLOAD JUMPDEST DUP9 PUSH1 0x0 DUP2 MLOAD DUP2 LT PUSH2 0x346 JUMPI PUSH2 0x345 PUSH2 0x20FD JUMP JUMPDEST JUMPDEST PUSH1 0x20 MUL PUSH1 0x20 ADD ADD MLOAD PUSH20 0xFFFFFFFFFFFFFFFFFFFFFFFFFFFFFFFFFFFFFFFF AND DUP5 PUSH20 0xFFFFFFFFFFFFFFFFFFFFFFFFFFFFFFFFFFFFFFFF AND PUSH4 0xDFE1681 PUSH1 0x40 MLOAD DUP2 PUSH4 0xFFFFFFFF AND PUSH1 0xE0 SHL DUP2 MSTORE PUSH1 0x4 ADD PUSH1 0x20 PUSH1 0x40 MLOAD DUP1 DUP4 SUB DUP2 DUP7 GAS STATICCALL ISZERO DUP1 ISZERO PUSH2 0x3AF JUMPI RETURNDATASIZE PUSH1 0x0 DUP1 RETURNDATACOPY RETURNDATASIZE PUSH1 0x0 REVERT JUMPDEST POP POP POP POP PUSH1 0x40 MLOAD RETURNDATASIZE PUSH1 0x1F NOT PUSH1 0x1F DUP3 ADD AND DUP3 ADD DUP1 PUSH1 0x40 MSTORE POP DUP2 ADD SWAP1 PUSH2 0x3D3 SWAP2 SWAP1 PUSH2 0x216A JUMP JUMPDEST PUSH20 0xFFFFFFFFFFFFFFFFFFFFFFFFFFFFFFFFFFFFFFFF AND EQ PUSH2 0x40F JUMPI DUP3 PUSH1 0x0 DUP2 MLOAD DUP2 LT PUSH2 0x402 JUMPI PUSH2 0x401 PUSH2 0x20FD JUMP JUMPDEST JUMPDEST PUSH1 0x20 MUL PUSH1 0x20 ADD ADD MLOAD PUSH2 0x42C JUMP JUMPDEST DUP3 PUSH1 0x1 DUP2 MLOAD DUP2 LT PUSH2 0x423 JUMPI PUSH2 0x422 PUSH2 0x20FD JUMP JUMPDEST JUMPDEST PUSH1 0x20 MUL PUSH1 0x20 ADD ADD MLOAD JUMPDEST DUP10 PUSH1 0x0 DUP2 MLOAD DUP2 LT PUSH2 0x440 JUMPI PUSH2 0x43F PUSH2 0x20FD JUMP JUMPDEST JUMPDEST PUSH1 0x20 MUL PUSH1 0x20 ADD ADD MLOAD DUP6 DUP9 DUP9 PUSH2 0x14D5 JUMP JUMPDEST POP POP POP POP POP POP POP JUMP JUMPDEST PUSH1 0x1 PUSH1 0x0 SWAP1 SLOAD SWAP1 PUSH2 0x100 EXP SWAP1 DIV PUSH20 0xFFFFFFFFFFFFFFFFFFFFFFFFFFFFFFFFFFFFFFFF AND PUSH20 0xFFFFFFFFFFFFFFFFFFFFFFFFFFFFFFFFFFFFFFFF AND CALLER PUSH20 0xFFFFFFFFFFFFFFFFFFFFFFFFFFFFFFFFFFFFFFFF AND EQ PUSH2 0x4E9 JUMPI PUSH1 0x40 MLOAD PUSH32 0x8C379A000000000000000000000000000000000000000000000000000000000 DUP2 MSTORE PUSH1 0x4 ADD PUSH2 0x4E0 SWAP1 PUSH2 0x21F4 JUMP JUMPDEST PUSH1 0x40 MLOAD DUP1 SWAP2 SUB SWAP1 REVERT JUMPDEST PUSH1 0x2 PUSH1 0x0 SWAP1 SLOAD SWAP1 PUSH2 0x100 EXP SWAP1 DIV PUSH20 0xFFFFFFFFFFFFFFFFFFFFFFFFFFFFFFFFFFFFFFFF AND PUSH20 0xFFFFFFFFFFFFFFFFFFFFFFFFFFFFFFFFFFFFFFFF AND PUSH4 0xA9059CBB PUSH1 0x1 PUSH1 0x0 SWAP1 SLOAD SWAP1 PUSH2 0x100 EXP SWAP1 DIV PUSH20 0xFFFFFFFFFFFFFFFFFFFFFFFFFFFFFFFFFFFFFFFF AND PUSH1 0x2 PUSH1 0x0 SWAP1 SLOAD SWAP1 PUSH2 0x100 EXP SWAP1 DIV PUSH20 0xFFFFFFFFFFFFFFFFFFFFFFFFFFFFFFFFFFFFFFFF AND PUSH20 0xFFFFFFFFFFFFFFFFFFFFFFFFFFFFFFFFFFFFFFFF AND PUSH4 0x70A08231 ADDRESS PUSH1 0x40 MLOAD DUP3 PUSH4 0xFFFFFFFF AND PUSH1 0xE0 SHL DUP2 MSTORE PUSH1 0x4 ADD PUSH2 0x5A5 SWAP2 SWAP1 PUSH2 0x20E2 JUMP JUMPDEST PUSH1 0x20 PUSH1 0x40 MLOAD DUP1 DUP4 SUB DUP2 DUP7 GAS STATICCALL ISZERO DUP1 ISZERO PUSH2 0x5C2 JUMPI RETURNDATASIZE PUSH1 0x0 DUP1 RETURNDATACOPY RETURNDATASIZE PUSH1 0x0 REVERT JUMPDEST POP POP POP POP PUSH1 0x40 MLOAD RETURNDATASIZE PUSH1 0x1F NOT PUSH1 0x1F DUP3 ADD AND DUP3 ADD DUP1 PUSH1 0x40 MSTORE POP DUP2 ADD SWAP1 PUSH2 0x5E6 SWAP2 SWAP1 PUSH2 0x2229 JUMP JUMPDEST PUSH1 0x40 MLOAD DUP4 PUSH4 0xFFFFFFFF AND PUSH1 0xE0 SHL DUP2 MSTORE PUSH1 0x4 ADD PUSH2 0x603 SWAP3 SWAP2 SWAP1 PUSH2 0x2256 JUMP JUMPDEST PUSH1 0x20 PUSH1 0x40 MLOAD DUP1 DUP4 SUB DUP2 PUSH1 0x0 DUP8 GAS CALL ISZERO DUP1 ISZERO PUSH2 0x622 JUMPI RETURNDATASIZE PUSH1 0x0 DUP1 RETURNDATACOPY RETURNDATASIZE PUSH1 0x0 REVERT JUMPDEST POP POP POP POP PUSH1 0x40 MLOAD RETURNDATASIZE PUSH1 0x1F NOT PUSH1 0x1F DUP3 ADD AND DUP3 ADD DUP1 PUSH1 0x40 MSTORE POP DUP2 ADD SWAP1 PUSH2 0x646 SWAP2 SWAP1 PUSH2 0x2294 JUMP JUMPDEST POP JUMP JUMPDEST PUSH1 0x0 DUP1 PUSH1 0x2 PUSH8 0xFFFFFFFFFFFFFFFF DUP2 GT ISZERO PUSH2 0x667 JUMPI PUSH2 0x666 PUSH2 0x1C51 JUMP JUMPDEST JUMPDEST PUSH1 0x40 MLOAD SWAP1 DUP1 DUP3 MSTORE DUP1 PUSH1 0x20 MUL PUSH1 0x20 ADD DUP3 ADD PUSH1 0x40 MSTORE DUP1 ISZERO PUSH2 0x695 JUMPI DUP2 PUSH1 0x20 ADD PUSH1 0x20 DUP3 MUL DUP1 CALLDATASIZE DUP4 CALLDATACOPY DUP1 DUP3 ADD SWAP2 POP POP SWAP1 POP JUMPDEST POP SWAP1 POP DUP8 DUP2 PUSH1 0x0 DUP2 MLOAD DUP2 LT PUSH2 0x6AD JUMPI PUSH2 0x6AC PUSH2 0x20FD JUMP JUMPDEST JUMPDEST PUSH1 0x20 MUL PUSH1 0x20 ADD ADD SWAP1 PUSH20 0xFFFFFFFFFFFFFFFFFFFFFFFFFFFFFFFFFFFFFFFF AND SWAP1 DUP2 PUSH20 0xFFFFFFFFFFFFFFFFFFFFFFFFFFFFFFFFFFFFFFFF AND DUP2 MSTORE POP POP DUP9 DUP2 PUSH1 0x1 DUP2 MLOAD DUP2 LT PUSH2 0x6FC JUMPI PUSH2 0x6FB PUSH2 0x20FD JUMP JUMPDEST JUMPDEST PUSH1 0x20 MUL PUSH1 0x20 ADD ADD SWAP1 PUSH20 0xFFFFFFFFFFFFFFFFFFFFFFFFFFFFFFFFFFFFFFFF AND SWAP1 DUP2 PUSH20 0xFFFFFFFFFFFFFFFFFFFFFFFFFFFFFFFFFFFFFFFF AND DUP2 MSTORE POP POP PUSH2 0x745 DUP2 DUP5 DUP10 ADDRESS DUP10 PUSH1 0x0 PUSH2 0x8CF JUMP JUMPDEST POP PUSH1 0x0 PUSH1 0x2 PUSH8 0xFFFFFFFFFFFFFFFF DUP2 GT ISZERO PUSH2 0x763 JUMPI PUSH2 0x762 PUSH2 0x1C51 JUMP JUMPDEST JUMPDEST PUSH1 0x40 MLOAD SWAP1 DUP1 DUP3 MSTORE DUP1 PUSH1 0x20 MUL PUSH1 0x20 ADD DUP3 ADD PUSH1 0x40 MSTORE DUP1 ISZERO PUSH2 0x791 JUMPI DUP2 PUSH1 0x20 ADD PUSH1 0x20 DUP3 MUL DUP1 CALLDATASIZE DUP4 CALLDATACOPY DUP1 DUP3 ADD SWAP2 POP POP SWAP1 POP JUMPDEST POP SWAP1 POP DUP10 DUP2 PUSH1 0x0 DUP2 MLOAD DUP2 LT PUSH2 0x7A9 JUMPI PUSH2 0x7A8 PUSH2 0x20FD JUMP JUMPDEST JUMPDEST PUSH1 0x20 MUL PUSH1 0x20 ADD ADD SWAP1 PUSH20 0xFFFFFFFFFFFFFFFFFFFFFFFFFFFFFFFFFFFFFFFF AND SWAP1 DUP2 PUSH20 0xFFFFFFFFFFFFFFFFFFFFFFFFFFFFFFFFFFFFFFFF AND DUP2 MSTORE POP POP DUP9 DUP2 PUSH1 0x1 DUP2 MLOAD DUP2 LT PUSH2 0x7F8 JUMPI PUSH2 0x7F7 PUSH2 0x20FD JUMP JUMPDEST JUMPDEST PUSH1 0x20 MUL PUSH1 0x20 ADD ADD SWAP1 PUSH20 0xFFFFFFFFFFFFFFFFFFFFFFFFFFFFFFFFFFFFFFFF AND SWAP1 DUP2 PUSH20 0xFFFFFFFFFFFFFFFFFFFFFFFFFFFFFFFFFFFFFFFF AND DUP2 MSTORE POP POP PUSH1 0x0 DUP11 SWAP1 POP PUSH2 0x8BF DUP3 DUP3 PUSH20 0xFFFFFFFFFFFFFFFFFFFFFFFFFFFFFFFFFFFFFFFF AND PUSH4 0x70A08231 ADDRESS PUSH1 0x40 MLOAD DUP3 PUSH4 0xFFFFFFFF AND PUSH1 0xE0 SHL DUP2 MSTORE PUSH1 0x4 ADD PUSH2 0x874 SWAP2 SWAP1 PUSH2 0x20E2 JUMP JUMPDEST PUSH1 0x20 PUSH1 0x40 MLOAD DUP1 DUP4 SUB DUP2 DUP7 GAS STATICCALL ISZERO DUP1 ISZERO PUSH2 0x891 JUMPI RETURNDATASIZE PUSH1 0x0 DUP1 RETURNDATACOPY RETURNDATASIZE PUSH1 0x0 REVERT JUMPDEST POP POP POP POP PUSH1 0x40 MLOAD RETURNDATASIZE PUSH1 0x1F NOT PUSH1 0x1F DUP3 ADD AND DUP3 ADD DUP1 PUSH1 0x40 MSTORE POP DUP2 ADD SWAP1 PUSH2 0x8B5 SWAP2 SWAP1 PUSH2 0x2229 JUMP JUMPDEST DUP11 CALLER DUP11 PUSH1 0x1 PUSH2 0x8CF JUMP JUMPDEST SWAP4 POP POP POP POP SWAP8 SWAP7 POP POP POP POP POP POP POP JUMP JUMPDEST PUSH1 0x0 DUP1 DUP4 SWAP1 POP PUSH1 0x0 PUSH2 0x8E2 DUP8 DUP10 DUP12 PUSH2 0x134A JUMP JUMPDEST SWAP1 POP PUSH2 0xAFF DUP10 PUSH1 0x0 DUP2 MLOAD DUP2 LT PUSH2 0x8FB JUMPI PUSH2 0x8FA PUSH2 0x20FD JUMP JUMPDEST JUMPDEST PUSH1 0x20 MUL PUSH1 0x20 ADD ADD MLOAD PUSH20 0xFFFFFFFFFFFFFFFFFFFFFFFFFFFFFFFFFFFFFFFF AND DUP4 PUSH20 0xFFFFFFFFFFFFFFFFFFFFFFFFFFFFFFFFFFFFFFFF AND PUSH4 0xDFE1681 PUSH1 0x40 MLOAD DUP2 PUSH4 0xFFFFFFFF AND PUSH1 0xE0 SHL DUP2 MSTORE PUSH1 0x4 ADD PUSH1 0x20 PUSH1 0x40 MLOAD DUP1 DUP4 SUB DUP2 DUP7 GAS STATICCALL ISZERO DUP1 ISZERO PUSH2 0x964 JUMPI RETURNDATASIZE PUSH1 0x0 DUP1 RETURNDATACOPY RETURNDATASIZE PUSH1 0x0 REVERT JUMPDEST POP POP POP POP PUSH1 0x40 MLOAD RETURNDATASIZE PUSH1 0x1F NOT PUSH1 0x1F DUP3 ADD AND DUP3 ADD DUP1 PUSH1 0x40 MSTORE POP DUP2 ADD SWAP1 PUSH2 0x988 SWAP2 SWAP1 PUSH2 0x216A JUMP JUMPDEST PUSH20 0xFFFFFFFFFFFFFFFFFFFFFFFFFFFFFFFFFFFFFFFF AND EQ PUSH2 0x9C4 JUMPI DUP2 PUSH1 0x1 DUP2 MLOAD DUP2 LT PUSH2 0x9B7 JUMPI PUSH2 0x9B6 PUSH2 0x20FD JUMP JUMPDEST JUMPDEST PUSH1 0x20 MUL PUSH1 0x20 ADD ADD MLOAD PUSH2 0x9E1 JUMP JUMPDEST DUP2 PUSH1 0x0 DUP2 MLOAD DUP2 LT PUSH2 0x9D8 JUMPI PUSH2 0x9D7 PUSH2 0x20FD JUMP JUMPDEST JUMPDEST PUSH1 0x20 MUL PUSH1 0x20 ADD ADD MLOAD JUMPDEST DUP11 PUSH1 0x0 DUP2 MLOAD DUP2 LT PUSH2 0x9F5 JUMPI PUSH2 0x9F4 PUSH2 0x20FD JUMP JUMPDEST JUMPDEST PUSH1 0x20 MUL PUSH1 0x20 ADD ADD MLOAD PUSH20 0xFFFFFFFFFFFFFFFFFFFFFFFFFFFFFFFFFFFFFFFF AND DUP5 PUSH20 0xFFFFFFFFFFFFFFFFFFFFFFFFFFFFFFFFFFFFFFFF AND PUSH4 0xDFE1681 PUSH1 0x40 MLOAD DUP2 PUSH4 0xFFFFFFFF AND PUSH1 0xE0 SHL DUP2 MSTORE PUSH1 0x4 ADD PUSH1 0x20 PUSH1 0x40 MLOAD DUP1 DUP4 SUB DUP2 DUP7 GAS STATICCALL ISZERO DUP1 ISZERO PUSH2 0xA5E JUMPI RETURNDATASIZE PUSH1 0x0 DUP1 RETURNDATACOPY RETURNDATASIZE PUSH1 0x0 REVERT JUMPDEST POP POP POP POP PUSH1 0x40 MLOAD RETURNDATASIZE PUSH1 0x1F NOT PUSH1 0x1F DUP3 ADD AND DUP3 ADD DUP1 PUSH1 0x40 MSTORE POP DUP2 ADD SWAP1 PUSH2 0xA82 SWAP2 SWAP1 PUSH2 0x216A JUMP JUMPDEST PUSH20 0xFFFFFFFFFFFFFFFFFFFFFFFFFFFFFFFFFFFFFFFF AND EQ PUSH2 0xABE JUMPI DUP3 PUSH1 0x0 DUP2 MLOAD DUP2 LT PUSH2 0xAB1 JUMPI PUSH2 0xAB0 PUSH2 0x20FD JUMP JUMPDEST JUMPDEST PUSH1 0x20 MUL PUSH1 0x20 ADD ADD MLOAD PUSH2 0xADB JUMP JUMPDEST DUP3 PUSH1 0x1 DUP2 MLOAD DUP2 LT PUSH2 0xAD2 JUMPI PUSH2 0xAD1 PUSH2 0x20FD JUMP JUMPDEST JUMPDEST PUSH1 0x20 MUL PUSH1 0x20 ADD ADD MLOAD JUMPDEST DUP12 PUSH1 0x0 DUP2 MLOAD DUP2 LT PUSH2 0xAEF JUMPI PUSH2 0xAEE PUSH2 0x20FD JUMP JUMPDEST JUMPDEST PUSH1 0x20 MUL PUSH1 0x20 ADD ADD MLOAD DUP9 DUP11 DUP10 PUSH2 0x14D5 JUMP JUMPDEST DUP2 PUSH20 0xFFFFFFFFFFFFFFFFFFFFFFFFFFFFFFFFFFFFFFFF AND PUSH4 0xDFE1681 PUSH1 0x40 MLOAD DUP2 PUSH4 0xFFFFFFFF AND PUSH1 0xE0 SHL DUP2 MSTORE PUSH1 0x4 ADD PUSH1 0x20 PUSH1 0x40 MLOAD DUP1 DUP4 SUB DUP2 DUP7 GAS STATICCALL ISZERO DUP1 ISZERO PUSH2 0xB4A JUMPI RETURNDATASIZE PUSH1 0x0 DUP1 RETURNDATACOPY RETURNDATASIZE PUSH1 0x0 REVERT JUMPDEST POP POP POP POP PUSH1 0x40 MLOAD RETURNDATASIZE PUSH1 0x1F NOT PUSH1 0x1F DUP3 ADD AND DUP3 ADD DUP1 PUSH1 0x40 MSTORE POP DUP2 ADD SWAP1 PUSH2 0xB6E SWAP2 SWAP1 PUSH2 0x216A JUMP JUMPDEST PUSH20 0xFFFFFFFFFFFFFFFFFFFFFFFFFFFFFFFFFFFFFFFF AND DUP10 PUSH1 0x1 DUP2 MLOAD DUP2 LT PUSH2 0xB98 JUMPI PUSH2 0xB97 PUSH2 0x20FD JUMP JUMPDEST JUMPDEST PUSH1 0x20 MUL PUSH1 0x20 ADD ADD MLOAD PUSH20 0xFFFFFFFFFFFFFFFFFFFFFFFFFFFFFFFFFFFFFFFF AND EQ PUSH2 0xBDC JUMPI DUP1 PUSH1 0x1 DUP2 MLOAD DUP2 LT PUSH2 0xBCF JUMPI PUSH2 0xBCE PUSH2 0x20FD JUMP JUMPDEST JUMPDEST PUSH1 0x20 MUL PUSH1 0x20 ADD ADD MLOAD PUSH2 0xBF9 JUMP JUMPDEST DUP1 PUSH1 0x0 DUP2 MLOAD DUP2 LT PUSH2 0xBF0 JUMPI PUSH2 0xBEF PUSH2 0x20FD JUMP JUMPDEST JUMPDEST PUSH1 0x20 MUL PUSH1 0x20 ADD ADD MLOAD JUMPDEST SWAP3 POP POP POP SWAP7 SWAP6 POP POP POP POP POP POP JUMP JUMPDEST PUSH1 0x0 PUSH1 0x2 PUSH1 0x0 SWAP1 SLOAD SWAP1 PUSH2 0x100 EXP SWAP1 DIV PUSH20 0xFFFFFFFFFFFFFFFFFFFFFFFFFFFFFFFFFFFFFFFF AND PUSH20 0xFFFFFFFFFFFFFFFFFFFFFFFFFFFFFFFFFFFFFFFF AND PUSH4 0x70A08231 ADDRESS PUSH1 0x40 MLOAD DUP3 PUSH4 0xFFFFFFFF AND PUSH1 0xE0 SHL DUP2 MSTORE PUSH1 0x4 ADD PUSH2 0xC64 SWAP2 SWAP1 PUSH2 0x20E2 JUMP JUMPDEST PUSH1 0x20 PUSH1 0x40 MLOAD DUP1 DUP4 SUB DUP2 DUP7 GAS STATICCALL ISZERO DUP1 ISZERO PUSH2 0xC81 JUMPI RETURNDATASIZE PUSH1 0x0 DUP1 RETURNDATACOPY RETURNDATASIZE PUSH1 0x0 REVERT JUMPDEST POP POP POP POP PUSH1 0x40 MLOAD RETURNDATASIZE PUSH1 0x1F NOT PUSH1 0x1F DUP3 ADD AND DUP3 ADD DUP1 PUSH1 0x40 MSTORE POP DUP2 ADD SWAP1 PUSH2 0xCA5 SWAP2 SWAP1 PUSH2 0x2229 JUMP JUMPDEST SWAP1 POP PUSH1 0x0 PUSH1 0x2 PUSH8 0xFFFFFFFFFFFFFFFF DUP2 GT ISZERO PUSH2 0xCC4 JUMPI PUSH2 0xCC3 PUSH2 0x1C51 JUMP JUMPDEST JUMPDEST PUSH1 0x40 MLOAD SWAP1 DUP1 DUP3 MSTORE DUP1 PUSH1 0x20 MUL PUSH1 0x20 ADD DUP3 ADD PUSH1 0x40 MSTORE DUP1 ISZERO PUSH2 0xCF2 JUMPI DUP2 PUSH1 0x20 ADD PUSH1 0x20 DUP3 MUL DUP1 CALLDATASIZE DUP4 CALLDATACOPY DUP1 DUP3 ADD SWAP2 POP POP SWAP1 POP JUMPDEST POP SWAP1 POP PUSH1 0x0 PUSH1 0x2 PUSH8 0xFFFFFFFFFFFFFFFF DUP2 GT ISZERO PUSH2 0xD12 JUMPI PUSH2 0xD11 PUSH2 0x1C51 JUMP JUMPDEST JUMPDEST PUSH1 0x40 MLOAD SWAP1 DUP1 DUP3 MSTORE DUP1 PUSH1 0x20 MUL PUSH1 0x20 ADD DUP3 ADD PUSH1 0x40 MSTORE DUP1 ISZERO PUSH2 0xD40 JUMPI DUP2 PUSH1 0x20 ADD PUSH1 0x20 DUP3 MUL DUP1 CALLDATASIZE DUP4 CALLDATACOPY DUP1 DUP3 ADD SWAP2 POP POP SWAP1 POP JUMPDEST POP SWAP1 POP PUSH1 0x0 DUP1 SLOAD SWAP1 PUSH2 0x100 EXP SWAP1 DIV PUSH20 0xFFFFFFFFFFFFFFFFFFFFFFFFFFFFFFFFFFFFFFFF AND DUP3 PUSH1 0x0 DUP2 MLOAD DUP2 LT PUSH2 0xD78 JUMPI PUSH2 0xD77 PUSH2 0x20FD JUMP JUMPDEST JUMPDEST PUSH1 0x20 MUL PUSH1 0x20 ADD ADD SWAP1 PUSH20 0xFFFFFFFFFFFFFFFFFFFFFFFFFFFFFFFFFFFFFFFF AND SWAP1 DUP2 PUSH20 0xFFFFFFFFFFFFFFFFFFFFFFFFFFFFFFFFFFFFFFFF AND DUP2 MSTORE POP POP DUP7 DUP3 PUSH1 0x1 DUP2 MLOAD DUP2 LT PUSH2 0xDC7 JUMPI PUSH2 0xDC6 PUSH2 0x20FD JUMP JUMPDEST JUMPDEST PUSH1 0x20 MUL PUSH1 0x20 ADD ADD SWAP1 PUSH20 0xFFFFFFFFFFFFFFFFFFFFFFFFFFFFFFFFFFFFFFFF AND SWAP1 DUP2 PUSH20 0xFFFFFFFFFFFFFFFFFFFFFFFFFFFFFFFFFFFFFFFF AND DUP2 MSTORE POP POP DUP7 DUP2 PUSH1 0x0 DUP2 MLOAD DUP2 LT PUSH2 0xE16 JUMPI PUSH2 0xE15 PUSH2 0x20FD JUMP JUMPDEST JUMPDEST PUSH1 0x20 MUL PUSH1 0x20 ADD ADD SWAP1 PUSH20 0xFFFFFFFFFFFFFFFFFFFFFFFFFFFFFFFFFFFFFFFF AND SWAP1 DUP2 PUSH20 0xFFFFFFFFFFFFFFFFFFFFFFFFFFFFFFFFFFFFFFFF AND DUP2 MSTORE POP POP PUSH1 0x0 DUP1 SLOAD SWAP1 PUSH2 0x100 EXP SWAP1 DIV PUSH20 0xFFFFFFFFFFFFFFFFFFFFFFFFFFFFFFFFFFFFFFFF AND DUP2 PUSH1 0x1 DUP2 MLOAD DUP2 LT PUSH2 0xE85 JUMPI PUSH2 0xE84 PUSH2 0x20FD JUMP JUMPDEST JUMPDEST PUSH1 0x20 MUL PUSH1 0x20 ADD ADD SWAP1 PUSH20 0xFFFFFFFFFFFFFFFFFFFFFFFFFFFFFFFFFFFFFFFF AND SWAP1 DUP2 PUSH20 0xFFFFFFFFFFFFFFFFFFFFFFFFFFFFFFFFFFFFFFFF AND DUP2 MSTORE POP POP PUSH2 0xECD DUP3 DUP6 DUP9 ADDRESS PUSH1 0x0 PUSH2 0x170 JUMP JUMPDEST PUSH2 0xF54 DUP2 DUP9 PUSH20 0xFFFFFFFFFFFFFFFFFFFFFFFFFFFFFFFFFFFFFFFF AND PUSH4 0x70A08231 ADDRESS PUSH1 0x40 MLOAD DUP3 PUSH4 0xFFFFFFFF AND PUSH1 0xE0 SHL DUP2 MSTORE PUSH1 0x4 ADD PUSH2 0xF0A SWAP2 SWAP1 PUSH2 0x20E2 JUMP JUMPDEST PUSH1 0x20 PUSH1 0x40 MLOAD DUP1 DUP4 SUB DUP2 DUP7 GAS STATICCALL ISZERO DUP1 ISZERO PUSH2 0xF27 JUMPI RETURNDATASIZE PUSH1 0x0 DUP1 RETURNDATACOPY RETURNDATASIZE PUSH1 0x0 REVERT JUMPDEST POP POP POP POP PUSH1 0x40 MLOAD RETURNDATASIZE PUSH1 0x1F NOT PUSH1 0x1F DUP3 ADD AND DUP3 ADD DUP1 PUSH1 0x40 MSTORE POP DUP2 ADD SWAP1 PUSH2 0xF4B SWAP2 SWAP1 PUSH2 0x2229 JUMP JUMPDEST DUP8 ADDRESS PUSH1 0x1 PUSH2 0x170 JUMP JUMPDEST DUP4 DUP4 PUSH2 0xF60 SWAP2 SWAP1 PUSH2 0x22F0 JUMP JUMPDEST PUSH1 0x2 PUSH1 0x0 SWAP1 SLOAD SWAP1 PUSH2 0x100 EXP SWAP1 DIV PUSH20 0xFFFFFFFFFFFFFFFFFFFFFFFFFFFFFFFFFFFFFFFF AND PUSH20 0xFFFFFFFFFFFFFFFFFFFFFFFFFFFFFFFFFFFFFFFF AND PUSH4 0x70A08231 ADDRESS PUSH1 0x40 MLOAD DUP3 PUSH4 0xFFFFFFFF AND PUSH1 0xE0 SHL DUP2 MSTORE PUSH1 0x4 ADD PUSH2 0xFBB SWAP2 SWAP1 PUSH2 0x20E2 JUMP JUMPDEST PUSH1 0x20 PUSH1 0x40 MLOAD DUP1 DUP4 SUB DUP2 DUP7 GAS STATICCALL ISZERO DUP1 ISZERO PUSH2 0xFD8 JUMPI RETURNDATASIZE PUSH1 0x0 DUP1 RETURNDATACOPY RETURNDATASIZE PUSH1 0x0 REVERT JUMPDEST POP POP POP POP PUSH1 0x40 MLOAD RETURNDATASIZE PUSH1 0x1F NOT PUSH1 0x1F DUP3 ADD AND DUP3 ADD DUP1 PUSH1 0x40 MSTORE POP DUP2 ADD SWAP1 PUSH2 0xFFC SWAP2 SWAP1 PUSH2 0x2229 JUMP JUMPDEST GT PUSH2 0x103C JUMPI PUSH1 0x40 MLOAD PUSH32 0x8C379A000000000000000000000000000000000000000000000000000000000 DUP2 MSTORE PUSH1 0x4 ADD PUSH2 0x1033 SWAP1 PUSH2 0x2370 JUMP JUMPDEST PUSH1 0x40 MLOAD DUP1 SWAP2 SUB SWAP1 REVERT JUMPDEST PUSH1 0x0 PUSH2 0x2710 PUSH2 0x2328 DUP7 DUP7 PUSH1 0x2 PUSH1 0x0 SWAP1 SLOAD SWAP1 PUSH2 0x100 EXP SWAP1 DIV PUSH20 0xFFFFFFFFFFFFFFFFFFFFFFFFFFFFFFFFFFFFFFFF AND PUSH20 0xFFFFFFFFFFFFFFFFFFFFFFFFFFFFFFFFFFFFFFFF AND PUSH4 0x70A08231 ADDRESS PUSH1 0x40 MLOAD DUP3 PUSH4 0xFFFFFFFF AND PUSH1 0xE0 SHL DUP2 MSTORE PUSH1 0x4 ADD PUSH2 0x10A1 SWAP2 SWAP1 PUSH2 0x20E2 JUMP JUMPDEST PUSH1 0x20 PUSH1 0x40 MLOAD DUP1 DUP4 SUB DUP2 DUP7 GAS STATICCALL ISZERO DUP1 ISZERO PUSH2 0x10BE JUMPI RETURNDATASIZE PUSH1 0x0 DUP1 RETURNDATACOPY RETURNDATASIZE PUSH1 0x0 REVERT JUMPDEST POP POP POP POP PUSH1 0x40 MLOAD RETURNDATASIZE PUSH1 0x1F NOT PUSH1 0x1F DUP3 ADD AND DUP3 ADD DUP1 PUSH1 0x40 MSTORE POP DUP2 ADD SWAP1 PUSH2 0x10E2 SWAP2 SWAP1 PUSH2 0x2229 JUMP JUMPDEST PUSH2 0x10EC SWAP2 SWAP1 PUSH2 0x2390 JUMP JUMPDEST PUSH2 0x10F6 SWAP2 SWAP1 PUSH2 0x2390 JUMP JUMPDEST PUSH2 0x1100 SWAP2 SWAP1 PUSH2 0x23C4 JUMP JUMPDEST PUSH2 0x110A SWAP2 SWAP1 PUSH2 0x2435 JUMP JUMPDEST SWAP1 POP PUSH1 0x2 PUSH1 0x0 SWAP1 SLOAD SWAP1 PUSH2 0x100 EXP SWAP1 DIV PUSH20 0xFFFFFFFFFFFFFFFFFFFFFFFFFFFFFFFFFFFFFFFF AND PUSH20 0xFFFFFFFFFFFFFFFFFFFFFFFFFFFFFFFFFFFFFFFF AND PUSH4 0x2E1A7D4D DUP3 PUSH1 0x40 MLOAD DUP3 PUSH4 0xFFFFFFFF AND PUSH1 0xE0 SHL DUP2 MSTORE PUSH1 0x4 ADD PUSH2 0x1167 SWAP2 SWAP1 PUSH2 0x1FA8 JUMP JUMPDEST PUSH1 0x0 PUSH1 0x40 MLOAD DUP1 DUP4 SUB DUP2 PUSH1 0x0 DUP8 DUP1 EXTCODESIZE ISZERO DUP1 ISZERO PUSH2 0x1181 JUMPI PUSH1 0x0 DUP1 REVERT JUMPDEST POP GAS CALL ISZERO DUP1 ISZERO PUSH2 0x1195 JUMPI RETURNDATASIZE PUSH1 0x0 DUP1 RETURNDATACOPY RETURNDATASIZE PUSH1 0x0 REVERT JUMPDEST POP POP POP POP COINBASE PUSH20 0xFFFFFFFFFFFFFFFFFFFFFFFFFFFFFFFFFFFFFFFF AND PUSH2 0x8FC DUP3 SWAP1 DUP2 ISZERO MUL SWAP1 PUSH1 0x40 MLOAD PUSH1 0x0 PUSH1 0x40 MLOAD DUP1 DUP4 SUB DUP2 DUP6 DUP9 DUP9 CALL SWAP4 POP POP POP POP ISZERO DUP1 ISZERO PUSH2 0x11DF JUMPI RETURNDATASIZE PUSH1 0x0 DUP1 RETURNDATACOPY RETURNDATASIZE PUSH1 0x0 REVERT JUMPDEST POP PUSH1 0x2 PUSH1 0x0 SWAP1 SLOAD SWAP1 PUSH2 0x100 EXP SWAP1 DIV PUSH20 0xFFFFFFFFFFFFFFFFFFFFFFFFFFFFFFFFFFFFFFFF AND PUSH20 0xFFFFFFFFFFFFFFFFFFFFFFFFFFFFFFFFFFFFFFFF AND PUSH4 0xA9059CBB CALLER PUSH1 0x2 PUSH1 0x0 SWAP1 SLOAD SWAP1 PUSH2 0x100 EXP SWAP1 DIV PUSH20 0xFFFFFFFFFFFFFFFFFFFFFFFFFFFFFFFFFFFFFFFF AND PUSH20 0xFFFFFFFFFFFFFFFFFFFFFFFFFFFFFFFFFFFFFFFF AND PUSH4 0x70A08231 ADDRESS PUSH1 0x40 MLOAD DUP3 PUSH4 0xFFFFFFFF AND PUSH1 0xE0 SHL DUP2 MSTORE PUSH1 0x4 ADD PUSH2 0x127A SWAP2 SWAP1 PUSH2 0x20E2 JUMP JUMPDEST PUSH1 0x20 PUSH1 0x40 MLOAD DUP1 DUP4 SUB DUP2 DUP7 GAS STATICCALL ISZERO DUP1 ISZERO PUSH2 0x1297 JUMPI RETURNDATASIZE PUSH1 0x0 DUP1 RETURNDATACOPY RETURNDATASIZE PUSH1 0x0 REVERT JUMPDEST POP POP POP POP PUSH1 0x40 MLOAD RETURNDATASIZE PUSH1 0x1F NOT PUSH1 0x1F DUP3 ADD AND DUP3 ADD DUP1 PUSH1 0x40 MSTORE POP DUP2 ADD SWAP1 PUSH2 0x12BB SWAP2 SWAP1 PUSH2 0x2229 JUMP JUMPDEST PUSH1 0x40 MLOAD DUP4 PUSH4 0xFFFFFFFF AND PUSH1 0xE0 SHL DUP2 MSTORE PUSH1 0x4 ADD PUSH2 0x12D8 SWAP3 SWAP2 SWAP1 PUSH2 0x2256 JUMP JUMPDEST PUSH1 0x20 PUSH1 0x40 MLOAD DUP1 DUP4 SUB DUP2 PUSH1 0x0 DUP8 GAS CALL ISZERO DUP1 ISZERO PUSH2 0x12F7 JUMPI RETURNDATASIZE PUSH1 0x0 DUP1 RETURNDATACOPY RETURNDATASIZE PUSH1 0x0 REVERT JUMPDEST POP POP POP POP PUSH1 0x40 MLOAD RETURNDATASIZE PUSH1 0x1F NOT PUSH1 0x1F DUP3 ADD AND DUP3 ADD DUP1 PUSH1 0x40 MSTORE POP DUP2 ADD SWAP1 PUSH2 0x131B SWAP2 SWAP1 PUSH2 0x2294 JUMP JUMPDEST POP POP POP POP POP POP POP POP POP JUMP JUMPDEST PUSH1 0x0 DUP1 SLOAD SWAP1 PUSH2 0x100 EXP SWAP1 DIV PUSH20 0xFFFFFFFFFFFFFFFFFFFFFFFFFFFFFFFFFFFFFFFF AND DUP2 JUMP JUMPDEST PUSH1 0x60 PUSH1 0x2 DUP3 MLOAD LT ISZERO PUSH2 0x1391 JUMPI PUSH1 0x40 MLOAD PUSH32 0x8C379A000000000000000000000000000000000000000000000000000000000 DUP2 MSTORE PUSH1 0x4 ADD PUSH2 0x1388 SWAP1 PUSH2 0x24B2 JUMP JUMPDEST PUSH1 0x40 MLOAD DUP1 SWAP2 SUB SWAP1 REVERT JUMPDEST DUP2 MLOAD PUSH8 0xFFFFFFFFFFFFFFFF DUP2 GT ISZERO PUSH2 0x13AC JUMPI PUSH2 0x13AB PUSH2 0x1C51 JUMP JUMPDEST JUMPDEST PUSH1 0x40 MLOAD SWAP1 DUP1 DUP3 MSTORE DUP1 PUSH1 0x20 MUL PUSH1 0x20 ADD DUP3 ADD PUSH1 0x40 MSTORE DUP1 ISZERO PUSH2 0x13DA JUMPI DUP2 PUSH1 0x20 ADD PUSH1 0x20 DUP3 MUL DUP1 CALLDATASIZE DUP4 CALLDATACOPY DUP1 DUP3 ADD SWAP2 POP POP SWAP1 POP JUMPDEST POP SWAP1 POP DUP3 DUP2 PUSH1 0x0 DUP2 MLOAD DUP2 LT PUSH2 0x13F2 JUMPI PUSH2 0x13F1 PUSH2 0x20FD JUMP JUMPDEST JUMPDEST PUSH1 0x20 MUL PUSH1 0x20 ADD ADD DUP2 DUP2 MSTORE POP POP PUSH1 0x0 JUMPDEST PUSH1 0x1 DUP4 MLOAD PUSH2 0x140F SWAP2 SWAP1 PUSH2 0x2390 JUMP JUMPDEST DUP2 LT ISZERO PUSH2 0x14CD JUMPI PUSH1 0x0 DUP1 PUSH2 0x1464 DUP8 DUP7 DUP6 DUP2 MLOAD DUP2 LT PUSH2 0x1430 JUMPI PUSH2 0x142F PUSH2 0x20FD JUMP JUMPDEST JUMPDEST PUSH1 0x20 MUL PUSH1 0x20 ADD ADD MLOAD DUP8 PUSH1 0x1 DUP8 PUSH2 0x1446 SWAP2 SWAP1 PUSH2 0x22F0 JUMP JUMPDEST DUP2 MLOAD DUP2 LT PUSH2 0x1457 JUMPI PUSH2 0x1456 PUSH2 0x20FD JUMP JUMPDEST JUMPDEST PUSH1 0x20 MUL PUSH1 0x20 ADD ADD MLOAD PUSH2 0x17BB JUMP JUMPDEST SWAP2 POP SWAP2 POP PUSH2 0x148D DUP5 DUP5 DUP2 MLOAD DUP2 LT PUSH2 0x147E JUMPI PUSH2 0x147D PUSH2 0x20FD JUMP JUMPDEST JUMPDEST PUSH1 0x20 MUL PUSH1 0x20 ADD ADD MLOAD DUP4 DUP4 PUSH2 0x192F JUMP JUMPDEST DUP5 PUSH1 0x1 DUP6 PUSH2 0x149B SWAP2 SWAP1 PUSH2 0x22F0 JUMP JUMPDEST DUP2 MLOAD DUP2 LT PUSH2 0x14AC JUMPI PUSH2 0x14AB PUSH2 0x20FD JUMP JUMPDEST JUMPDEST PUSH1 0x20 MUL PUSH1 0x20 ADD ADD DUP2 DUP2 MSTORE POP POP POP POP DUP1 DUP1 PUSH2 0x14C5 SWAP1 PUSH2 0x24D2 JUMP JUMPDEST SWAP2 POP POP PUSH2 0x1401 JUMP JUMPDEST POP SWAP4 SWAP3 POP POP POP JUMP JUMPDEST PUSH1 0x0 DUP4 SWAP1 POP PUSH1 0x0 DUP6 SWAP1 POP PUSH1 0x0 DUP7 PUSH20 0xFFFFFFFFFFFFFFFFFFFFFFFFFFFFFFFFFFFFFFFF AND DUP4 PUSH20 0xFFFFFFFFFFFFFFFFFFFFFFFFFFFFFFFFFFFFFFFF AND PUSH4 0xDFE1681 PUSH1 0x40 MLOAD DUP2 PUSH4 0xFFFFFFFF AND PUSH1 0xE0 SHL DUP2 MSTORE PUSH1 0x4 ADD PUSH1 0x20 PUSH1 0x40 MLOAD DUP1 DUP4 SUB DUP2 DUP7 GAS STATICCALL ISZERO DUP1 ISZERO PUSH2 0x1543 JUMPI RETURNDATASIZE PUSH1 0x0 DUP1 RETURNDATACOPY RETURNDATASIZE PUSH1 0x0 REVERT JUMPDEST POP POP POP POP PUSH1 0x40 MLOAD RETURNDATASIZE PUSH1 0x1F NOT PUSH1 0x1F DUP3 ADD AND DUP3 ADD DUP1 PUSH1 0x40 MSTORE POP DUP2 ADD SWAP1 PUSH2 0x1567 SWAP2 SWAP1 PUSH2 0x216A JUMP JUMPDEST PUSH20 0xFFFFFFFFFFFFFFFFFFFFFFFFFFFFFFFFFFFFFFFF AND EQ PUSH2 0x1588 JUMPI DUP8 PUSH2 0x158A JUMP JUMPDEST DUP9 JUMPDEST SWAP1 POP DUP4 PUSH2 0x1616 JUMPI DUP2 PUSH20 0xFFFFFFFFFFFFFFFFFFFFFFFFFFFFFFFFFFFFFFFF AND PUSH4 0x23B872DD CALLER DUP9 DUP5 PUSH1 0x40 MLOAD DUP5 PUSH4 0xFFFFFFFF AND PUSH1 0xE0 SHL DUP2 MSTORE PUSH1 0x4 ADD PUSH2 0x15CE SWAP4 SWAP3 SWAP2 SWAP1 PUSH2 0x251A JUMP JUMPDEST PUSH1 0x20 PUSH1 0x40 MLOAD DUP1 DUP4 SUB DUP2 PUSH1 0x0 DUP8 GAS CALL ISZERO DUP1 ISZERO PUSH2 0x15ED JUMPI RETURNDATASIZE PUSH1 0x0 DUP1 RETURNDATACOPY RETURNDATASIZE PUSH1 0x0 REVERT JUMPDEST POP POP POP POP PUSH1 0x40 MLOAD RETURNDATASIZE PUSH1 0x1F NOT PUSH1 0x1F DUP3 ADD AND DUP3 ADD DUP1 PUSH1 0x40 MSTORE POP DUP2 ADD SWAP1 PUSH2 0x1611 SWAP2 SWAP1 PUSH2 0x2294 JUMP JUMPDEST PUSH2 0x1695 JUMP JUMPDEST DUP2 PUSH20 0xFFFFFFFFFFFFFFFFFFFFFFFFFFFFFFFFFFFFFFFF AND PUSH4 0xA9059CBB DUP8 DUP4 PUSH1 0x40 MLOAD DUP4 PUSH4 0xFFFFFFFF AND PUSH1 0xE0 SHL DUP2 MSTORE PUSH1 0x4 ADD PUSH2 0x1651 SWAP3 SWAP2 SWAP1 PUSH2 0x2256 JUMP JUMPDEST PUSH1 0x20 PUSH1 0x40 MLOAD DUP1 DUP4 SUB DUP2 PUSH1 0x0 DUP8 GAS CALL ISZERO DUP1 ISZERO PUSH2 0x1670 JUMPI RETURNDATASIZE PUSH1 0x0 DUP1 RETURNDATACOPY RETURNDATASIZE PUSH1 0x0 REVERT JUMPDEST POP POP POP POP PUSH1 0x40 MLOAD RETURNDATASIZE PUSH1 0x1F NOT PUSH1 0x1F DUP3 ADD AND DUP3 ADD DUP1 PUSH1 0x40 MSTORE POP DUP2 ADD SWAP1 PUSH2 0x1694 SWAP2 SWAP1 PUSH2 0x2294 JUMP JUMPDEST JUMPDEST PUSH2 0x16D4 JUMPI PUSH1 0x40 MLOAD PUSH32 0x8C379A000000000000000000000000000000000000000000000000000000000 DUP2 MSTORE PUSH1 0x4 ADD PUSH2 0x16CB SWAP1 PUSH2 0x259D JUMP JUMPDEST PUSH1 0x40 MLOAD DUP1 SWAP2 SUB SWAP1 REVERT JUMPDEST DUP3 PUSH20 0xFFFFFFFFFFFFFFFFFFFFFFFFFFFFFFFFFFFFFFFF AND PUSH4 0x22C0D9F DUP3 DUP12 EQ PUSH2 0x16FD JUMPI DUP11 PUSH2 0x1700 JUMP JUMPDEST PUSH1 0x0 JUMPDEST DUP4 DUP12 EQ PUSH2 0x170D JUMPI DUP11 PUSH2 0x1710 JUMP JUMPDEST PUSH1 0x0 JUMPDEST DUP9 PUSH1 0x0 PUSH8 0xFFFFFFFFFFFFFFFF DUP2 GT ISZERO PUSH2 0x172C JUMPI PUSH2 0x172B PUSH2 0x1C51 JUMP JUMPDEST JUMPDEST PUSH1 0x40 MLOAD SWAP1 DUP1 DUP3 MSTORE DUP1 PUSH1 0x1F ADD PUSH1 0x1F NOT AND PUSH1 0x20 ADD DUP3 ADD PUSH1 0x40 MSTORE DUP1 ISZERO PUSH2 0x175E JUMPI DUP2 PUSH1 0x20 ADD PUSH1 0x1 DUP3 MUL DUP1 CALLDATASIZE DUP4 CALLDATACOPY DUP1 DUP3 ADD SWAP2 POP POP SWAP1 POP JUMPDEST POP PUSH1 0x40 MLOAD DUP6 PUSH4 0xFFFFFFFF AND PUSH1 0xE0 SHL DUP2 MSTORE PUSH1 0x4 ADD PUSH2 0x177E SWAP5 SWAP4 SWAP3 SWAP2 SWAP1 PUSH2 0x263C JUMP JUMPDEST PUSH1 0x0 PUSH1 0x40 MLOAD DUP1 DUP4 SUB DUP2 PUSH1 0x0 DUP8 DUP1 EXTCODESIZE ISZERO DUP1 ISZERO PUSH2 0x1798 JUMPI PUSH1 0x0 DUP1 REVERT JUMPDEST POP GAS CALL ISZERO DUP1 ISZERO PUSH2 0x17AC JUMPI RETURNDATASIZE PUSH1 0x0 DUP1 RETURNDATACOPY RETURNDATASIZE PUSH1 0x0 REVERT JUMPDEST POP POP POP POP POP POP POP POP POP POP POP POP POP JUMP JUMPDEST PUSH1 0x0 DUP1 PUSH1 0x0 PUSH2 0x17CA DUP6 DUP6 PUSH2 0x1A35 JUMP JUMPDEST POP SWAP1 POP PUSH1 0x0 DUP1 DUP8 PUSH20 0xFFFFFFFFFFFFFFFFFFFFFFFFFFFFFFFFFFFFFFFF AND PUSH4 0xE6A43905 DUP9 DUP9 PUSH1 0x40 MLOAD DUP4 PUSH4 0xFFFFFFFF AND PUSH1 0xE0 SHL DUP2 MSTORE PUSH1 0x4 ADD PUSH2 0x180B SWAP3 SWAP2 SWAP1 PUSH2 0x212C JUMP JUMPDEST PUSH1 0x20 PUSH1 0x40 MLOAD DUP1 DUP4 SUB DUP2 DUP7 GAS STATICCALL ISZERO DUP1 ISZERO PUSH2 0x1828 JUMPI RETURNDATASIZE PUSH1 0x0 DUP1 RETURNDATACOPY RETURNDATASIZE PUSH1 0x0 REVERT JUMPDEST POP POP POP POP PUSH1 0x40 MLOAD RETURNDATASIZE PUSH1 0x1F NOT PUSH1 0x1F DUP3 ADD AND DUP3 ADD DUP1 PUSH1 0x40 MSTORE POP DUP2 ADD SWAP1 PUSH2 0x184C SWAP2 SWAP1 PUSH2 0x216A JUMP JUMPDEST PUSH20 0xFFFFFFFFFFFFFFFFFFFFFFFFFFFFFFFFFFFFFFFF AND PUSH4 0x902F1AC PUSH1 0x40 MLOAD DUP2 PUSH4 0xFFFFFFFF AND PUSH1 0xE0 SHL DUP2 MSTORE PUSH1 0x4 ADD PUSH1 0x60 PUSH1 0x40 MLOAD DUP1 DUP4 SUB DUP2 DUP7 GAS STATICCALL ISZERO DUP1 ISZERO PUSH2 0x1896 JUMPI RETURNDATASIZE PUSH1 0x0 DUP1 RETURNDATACOPY RETURNDATASIZE PUSH1 0x0 REVERT JUMPDEST POP POP POP POP PUSH1 0x40 MLOAD RETURNDATASIZE PUSH1 0x1F NOT PUSH1 0x1F DUP3 ADD AND DUP3 ADD DUP1 PUSH1 0x40 MSTORE POP DUP2 ADD SWAP1 PUSH2 0x18BA SWAP2 SWAP1 PUSH2 0x270A JUMP JUMPDEST POP PUSH14 0xFFFFFFFFFFFFFFFFFFFFFFFFFFFF AND SWAP2 POP PUSH14 0xFFFFFFFFFFFFFFFFFFFFFFFFFFFF AND SWAP2 POP DUP3 PUSH20 0xFFFFFFFFFFFFFFFFFFFFFFFFFFFFFFFFFFFFFFFF AND DUP8 PUSH20 0xFFFFFFFFFFFFFFFFFFFFFFFFFFFFFFFFFFFFFFFF AND EQ PUSH2 0x1919 JUMPI DUP1 DUP3 PUSH2 0x191C JUMP JUMPDEST DUP2 DUP2 JUMPDEST DUP1 SWAP6 POP DUP2 SWAP7 POP POP POP POP POP POP SWAP4 POP SWAP4 SWAP2 POP POP JUMP JUMPDEST PUSH1 0x0 DUP1 DUP5 GT PUSH2 0x1973 JUMPI PUSH1 0x40 MLOAD PUSH32 0x8C379A000000000000000000000000000000000000000000000000000000000 DUP2 MSTORE PUSH1 0x4 ADD PUSH2 0x196A SWAP1 PUSH2 0x27CF JUMP JUMPDEST PUSH1 0x40 MLOAD DUP1 SWAP2 SUB SWAP1 REVERT JUMPDEST PUSH1 0x0 DUP4 GT DUP1 ISZERO PUSH2 0x1983 JUMPI POP PUSH1 0x0 DUP3 GT JUMPDEST PUSH2 0x19C2 JUMPI PUSH1 0x40 MLOAD PUSH32 0x8C379A000000000000000000000000000000000000000000000000000000000 DUP2 MSTORE PUSH1 0x4 ADD PUSH2 0x19B9 SWAP1 PUSH2 0x2861 JUMP JUMPDEST PUSH1 0x40 MLOAD DUP1 SWAP2 SUB SWAP1 REVERT JUMPDEST PUSH1 0x0 PUSH2 0x19D9 PUSH2 0x3E5 DUP7 PUSH2 0x1B61 SWAP1 SWAP2 SWAP1 PUSH4 0xFFFFFFFF AND JUMP JUMPDEST SWAP1 POP PUSH1 0x0 PUSH2 0x19F0 DUP5 DUP4 PUSH2 0x1B61 SWAP1 SWAP2 SWAP1 PUSH4 0xFFFFFFFF AND JUMP JUMPDEST SWAP1 POP PUSH1 0x0 PUSH2 0x1A1B DUP4 PUSH2 0x1A0D PUSH2 0x3E8 DUP10 PUSH2 0x1B61 SWAP1 SWAP2 SWAP1 PUSH4 0xFFFFFFFF AND JUMP JUMPDEST PUSH2 0x1BCE SWAP1 SWAP2 SWAP1 PUSH4 0xFFFFFFFF AND JUMP JUMPDEST SWAP1 POP DUP1 DUP3 PUSH2 0x1A29 SWAP2 SWAP1 PUSH2 0x2435 JUMP JUMPDEST SWAP4 POP POP POP POP SWAP4 SWAP3 POP POP POP JUMP JUMPDEST PUSH1 0x0 DUP1 DUP3 PUSH20 0xFFFFFFFFFFFFFFFFFFFFFFFFFFFFFFFFFFFFFFFF AND DUP5 PUSH20 0xFFFFFFFFFFFFFFFFFFFFFFFFFFFFFFFFFFFFFFFF AND SUB PUSH2 0x1AA6 JUMPI PUSH1 0x40 MLOAD PUSH32 0x8C379A000000000000000000000000000000000000000000000000000000000 DUP2 MSTORE PUSH1 0x4 ADD PUSH2 0x1A9D SWAP1 PUSH2 0x28F3 JUMP JUMPDEST PUSH1 0x40 MLOAD DUP1 SWAP2 SUB SWAP1 REVERT JUMPDEST DUP3 PUSH20 0xFFFFFFFFFFFFFFFFFFFFFFFFFFFFFFFFFFFFFFFF AND DUP5 PUSH20 0xFFFFFFFFFFFFFFFFFFFFFFFFFFFFFFFFFFFFFFFF AND LT PUSH2 0x1AE0 JUMPI DUP3 DUP5 PUSH2 0x1AE3 JUMP JUMPDEST DUP4 DUP4 JUMPDEST DUP1 SWAP3 POP DUP2 SWAP4 POP POP POP PUSH1 0x0 PUSH20 0xFFFFFFFFFFFFFFFFFFFFFFFFFFFFFFFFFFFFFFFF AND DUP3 PUSH20 0xFFFFFFFFFFFFFFFFFFFFFFFFFFFFFFFFFFFFFFFF AND SUB PUSH2 0x1B5A JUMPI PUSH1 0x40 MLOAD PUSH32 0x8C379A000000000000000000000000000000000000000000000000000000000 DUP2 MSTORE PUSH1 0x4 ADD PUSH2 0x1B51 SWAP1 PUSH2 0x295F JUMP JUMPDEST PUSH1 0x40 MLOAD DUP1 SWAP2 SUB SWAP1 REVERT JUMPDEST SWAP3 POP SWAP3 SWAP1 POP JUMP JUMPDEST PUSH1 0x0 DUP1 DUP3 EQ DUP1 PUSH2 0x1B89 JUMPI POP DUP3 DUP3 DUP4 DUP6 PUSH2 0x1B7A SWAP2 SWAP1 PUSH2 0x23C4 JUMP JUMPDEST SWAP3 POP DUP3 PUSH2 0x1B87 SWAP2 SWAP1 PUSH2 0x2435 JUMP JUMPDEST EQ JUMPDEST PUSH2 0x1BC8 JUMPI PUSH1 0x40 MLOAD PUSH32 0x8C379A000000000000000000000000000000000000000000000000000000000 DUP2 MSTORE PUSH1 0x4 ADD PUSH2 0x1BBF SWAP1 PUSH2 0x29CB JUMP JUMPDEST PUSH1 0x40 MLOAD DUP1 SWAP2 SUB SWAP1 REVERT JUMPDEST SWAP3 SWAP2 POP POP JUMP JUMPDEST PUSH1 0x0 DUP3 DUP3 DUP5 PUSH2 0x1BDD SWAP2 SWAP1 PUSH2 0x22F0 JUMP JUMPDEST SWAP2 POP DUP2 LT ISZERO PUSH2 0x1C21 JUMPI PUSH1 0x40 MLOAD PUSH32 0x8C379A000000000000000000000000000000000000000000000000000000000 DUP2 MSTORE PUSH1 0x4 ADD PUSH2 0x1C18 SWAP1 PUSH2 0x2A37 JUMP JUMPDEST PUSH1 0x40 MLOAD DUP1 SWAP2 SUB SWAP1 REVERT JUMPDEST SWAP3 SWAP2 POP POP JUMP JUMPDEST PUSH1 0x0 PUSH1 0x40 MLOAD SWAP1 POP SWAP1 JUMP JUMPDEST PUSH1 0x0 DUP1 REVERT JUMPDEST PUSH1 0x0 DUP1 REVERT JUMPDEST PUSH1 0x0 DUP1 REVERT JUMPDEST PUSH1 0x0 PUSH1 0x1F NOT PUSH1 0x1F DUP4 ADD AND SWAP1 POP SWAP2 SWAP1 POP JUMP JUMPDEST PUSH32 0x4E487B7100000000000000000000000000000000000000000000000000000000 PUSH1 0x0 MSTORE PUSH1 0x41 PUSH1 0x4 MSTORE PUSH1 0x24 PUSH1 0x0 REVERT JUMPDEST PUSH2 0x1C89 DUP3 PUSH2 0x1C40 JUMP JUMPDEST DUP2 ADD DUP2 DUP2 LT PUSH8 0xFFFFFFFFFFFFFFFF DUP3 GT OR ISZERO PUSH2 0x1CA8 JUMPI PUSH2 0x1CA7 PUSH2 0x1C51 JUMP JUMPDEST JUMPDEST DUP1 PUSH1 0x40 MSTORE POP POP POP JUMP JUMPDEST PUSH1 0x0 PUSH2 0x1CBB PUSH2 0x1C27 JUMP JUMPDEST SWAP1 POP PUSH2 0x1CC7 DUP3 DUP3 PUSH2 0x1C80 JUMP JUMPDEST SWAP2 SWAP1 POP JUMP JUMPDEST PUSH1 0x0 PUSH8 0xFFFFFFFFFFFFFFFF DUP3 GT ISZERO PUSH2 0x1CE7 JUMPI PUSH2 0x1CE6 PUSH2 0x1C51 JUMP JUMPDEST JUMPDEST PUSH1 0x20 DUP3 MUL SWAP1 POP PUSH1 0x20 DUP2 ADD SWAP1 POP SWAP2 SWAP1 POP JUMP JUMPDEST PUSH1 0x0 DUP1 REVERT JUMPDEST PUSH1 0x0 PUSH20 0xFFFFFFFFFFFFFFFFFFFFFFFFFFFFFFFFFFFFFFFF DUP3 AND SWAP1 POP SWAP2 SWAP1 POP JUMP JUMPDEST PUSH1 0x0 PUSH2 0x1D28 DUP3 PUSH2 0x1CFD JUMP JUMPDEST SWAP1 POP SWAP2 SWAP1 POP JUMP JUMPDEST PUSH2 0x1D38 DUP2 PUSH2 0x1D1D JUMP JUMPDEST DUP2 EQ PUSH2 0x1D43 JUMPI PUSH1 0x0 DUP1 REVERT JUMPDEST POP JUMP JUMPDEST PUSH1 0x0 DUP2 CALLDATALOAD SWAP1 POP PUSH2 0x1D55 DUP2 PUSH2 0x1D2F JUMP JUMPDEST SWAP3 SWAP2 POP POP JUMP JUMPDEST PUSH1 0x0 PUSH2 0x1D6E PUSH2 0x1D69 DUP5 PUSH2 0x1CCC JUMP JUMPDEST PUSH2 0x1CB1 JUMP JUMPDEST SWAP1 POP DUP1 DUP4 DUP3 MSTORE PUSH1 0x20 DUP3 ADD SWAP1 POP PUSH1 0x20 DUP5 MUL DUP4 ADD DUP6 DUP2 GT ISZERO PUSH2 0x1D91 JUMPI PUSH2 0x1D90 PUSH2 0x1CF8 JUMP JUMPDEST JUMPDEST DUP4 JUMPDEST DUP2 DUP2 LT ISZERO PUSH2 0x1DBA JUMPI DUP1 PUSH2 0x1DA6 DUP9 DUP3 PUSH2 0x1D46 JUMP JUMPDEST DUP5 MSTORE PUSH1 0x20 DUP5 ADD SWAP4 POP POP PUSH1 0x20 DUP2 ADD SWAP1 POP PUSH2 0x1D93 JUMP JUMPDEST POP POP POP SWAP4 SWAP3 POP POP POP JUMP JUMPDEST PUSH1 0x0 DUP3 PUSH1 0x1F DUP4 ADD SLT PUSH2 0x1DD9 JUMPI PUSH2 0x1DD8 PUSH2 0x1C3B JUMP JUMPDEST JUMPDEST DUP2 CALLDATALOAD PUSH2 0x1DE9 DUP5 DUP3 PUSH1 0x20 DUP7 ADD PUSH2 0x1D5B JUMP JUMPDEST SWAP2 POP POP SWAP3 SWAP2 POP POP JUMP JUMPDEST PUSH1 0x0 DUP2 SWAP1 POP SWAP2 SWAP1 POP JUMP JUMPDEST PUSH2 0x1E05 DUP2 PUSH2 0x1DF2 JUMP JUMPDEST DUP2 EQ PUSH2 0x1E10 JUMPI PUSH1 0x0 DUP1 REVERT JUMPDEST POP JUMP JUMPDEST PUSH1 0x0 DUP2 CALLDATALOAD SWAP1 POP PUSH2 0x1E22 DUP2 PUSH2 0x1DFC JUMP JUMPDEST SWAP3 SWAP2 POP POP JUMP JUMPDEST PUSH1 0x0 DUP2 ISZERO ISZERO SWAP1 POP SWAP2 SWAP1 POP JUMP JUMPDEST PUSH2 0x1E3D DUP2 PUSH2 0x1E28 JUMP JUMPDEST DUP2 EQ PUSH2 0x1E48 JUMPI PUSH1 0x0 DUP1 REVERT JUMPDEST POP JUMP JUMPDEST PUSH1 0x0 DUP2 CALLDATALOAD SWAP1 POP PUSH2 0x1E5A DUP2 PUSH2 0x1E34 JUMP JUMPDEST SWAP3 SWAP2 POP POP JUMP JUMPDEST PUSH1 0x0 DUP1 PUSH1 0x0 DUP1 PUSH1 0x0 PUSH1 0xA0 DUP7 DUP9 SUB SLT ISZERO PUSH2 0x1E7C JUMPI PUSH2 0x1E7B PUSH2 0x1C31 JUMP JUMPDEST JUMPDEST PUSH1 0x0 DUP7 ADD CALLDATALOAD PUSH8 0xFFFFFFFFFFFFFFFF DUP2 GT ISZERO PUSH2 0x1E9A JUMPI PUSH2 0x1E99 PUSH2 0x1C36 JUMP JUMPDEST JUMPDEST PUSH2 0x1EA6 DUP9 DUP3 DUP10 ADD PUSH2 0x1DC4 JUMP JUMPDEST SWAP6 POP POP PUSH1 0x20 PUSH2 0x1EB7 DUP9 DUP3 DUP10 ADD PUSH2 0x1E13 JUMP JUMPDEST SWAP5 POP POP PUSH1 0x40 PUSH2 0x1EC8 DUP9 DUP3 DUP10 ADD PUSH2 0x1D46 JUMP JUMPDEST SWAP4 POP POP PUSH1 0x60 PUSH2 0x1ED9 DUP9 DUP3 DUP10 ADD PUSH2 0x1D46 JUMP JUMPDEST SWAP3 POP POP PUSH1 0x80 PUSH2 0x1EEA DUP9 DUP3 DUP10 ADD PUSH2 0x1E4B JUMP JUMPDEST SWAP2 POP POP SWAP3 SWAP6 POP SWAP3 SWAP6 SWAP1 SWAP4 POP JUMP JUMPDEST PUSH1 0x0 DUP1 PUSH1 0x0 DUP1 PUSH1 0x0 DUP1 PUSH1 0x0 PUSH1 0xE0 DUP9 DUP11 SUB SLT ISZERO PUSH2 0x1F16 JUMPI PUSH2 0x1F15 PUSH2 0x1C31 JUMP JUMPDEST JUMPDEST PUSH1 0x0 PUSH2 0x1F24 DUP11 DUP3 DUP12 ADD PUSH2 0x1D46 JUMP JUMPDEST SWAP8 POP POP PUSH1 0x20 PUSH2 0x1F35 DUP11 DUP3 DUP12 ADD PUSH2 0x1D46 JUMP JUMPDEST SWAP7 POP POP PUSH1 0x40 PUSH2 0x1F46 DUP11 DUP3 DUP12 ADD PUSH2 0x1D46 JUMP JUMPDEST SWAP6 POP POP PUSH1 0x60 PUSH2 0x1F57 DUP11 DUP3 DUP12 ADD PUSH2 0x1D46 JUMP JUMPDEST SWAP5 POP POP PUSH1 0x80 PUSH2 0x1F68 DUP11 DUP3 DUP12 ADD PUSH2 0x1D46 JUMP JUMPDEST SWAP4 POP POP PUSH1 0xA0 PUSH2 0x1F79 DUP11 DUP3 DUP12 ADD PUSH2 0x1D46 JUMP JUMPDEST SWAP3 POP POP PUSH1 0xC0 PUSH2 0x1F8A DUP11 DUP3 DUP12 ADD PUSH2 0x1E13 JUMP JUMPDEST SWAP2 POP POP SWAP3 SWAP6 SWAP9 SWAP2 SWAP5 SWAP8 POP SWAP3 SWAP6 POP JUMP JUMPDEST PUSH2 0x1FA2 DUP2 PUSH2 0x1DF2 JUMP JUMPDEST DUP3 MSTORE POP POP JUMP JUMPDEST PUSH1 0x0 PUSH1 0x20 DUP3 ADD SWAP1 POP PUSH2 0x1FBD PUSH1 0x0 DUP4 ADD DUP5 PUSH2 0x1F99 JUMP JUMPDEST SWAP3 SWAP2 POP POP JUMP JUMPDEST PUSH1 0x0 DUP1 PUSH1 0x0 DUP1 PUSH1 0x0 DUP1 PUSH1 0xC0 DUP8 DUP10 SUB SLT ISZERO PUSH2 0x1FE0 JUMPI PUSH2 0x1FDF PUSH2 0x1C31 JUMP JUMPDEST JUMPDEST PUSH1 0x0 DUP8 ADD CALLDATALOAD PUSH8 0xFFFFFFFFFFFFFFFF DUP2 GT ISZERO PUSH2 0x1FFE JUMPI PUSH2 0x1FFD PUSH2 0x1C36 JUMP JUMPDEST JUMPDEST PUSH2 0x200A DUP10 DUP3 DUP11 ADD PUSH2 0x1DC4 JUMP JUMPDEST SWAP7 POP POP PUSH1 0x20 PUSH2 0x201B DUP10 DUP3 DUP11 ADD PUSH2 0x1E13 JUMP JUMPDEST SWAP6 POP POP PUSH1 0x40 PUSH2 0x202C DUP10 DUP3 DUP11 ADD PUSH2 0x1D46 JUMP JUMPDEST SWAP5 POP POP PUSH1 0x60 PUSH2 0x203D DUP10 DUP3 DUP11 ADD PUSH2 0x1D46 JUMP JUMPDEST SWAP4 POP POP PUSH1 0x80 PUSH2 0x204E DUP10 DUP3 DUP11 ADD PUSH2 0x1D46 JUMP JUMPDEST SWAP3 POP POP PUSH1 0xA0 PUSH2 0x205F DUP10 DUP3 DUP11 ADD PUSH2 0x1E4B JUMP JUMPDEST SWAP2 POP POP SWAP3 SWAP6 POP SWAP3 SWAP6 POP SWAP3 SWAP6 JUMP JUMPDEST PUSH1 0x0 DUP1 PUSH1 0x0 DUP1 PUSH1 0x80 DUP6 DUP8 SUB SLT ISZERO PUSH2 0x2086 JUMPI PUSH2 0x2085 PUSH2 0x1C31 JUMP JUMPDEST JUMPDEST PUSH1 0x0 PUSH2 0x2094 DUP8 DUP3 DUP9 ADD PUSH2 0x1D46 JUMP JUMPDEST SWAP5 POP POP PUSH1 0x20 PUSH2 0x20A5 DUP8 DUP3 DUP9 ADD PUSH2 0x1D46 JUMP JUMPDEST SWAP4 POP POP PUSH1 0x40 PUSH2 0x20B6 DUP8 DUP3 DUP9 ADD PUSH2 0x1D46 JUMP JUMPDEST SWAP3 POP POP PUSH1 0x60 PUSH2 0x20C7 DUP8 DUP3 DUP9 ADD PUSH2 0x1E13 JUMP JUMPDEST SWAP2 POP POP SWAP3 SWAP6 SWAP2 SWAP5 POP SWAP3 POP JUMP JUMPDEST PUSH2 0x20DC DUP2 PUSH2 0x1D1D JUMP JUMPDEST DUP3 MSTORE POP POP JUMP JUMPDEST PUSH1 0x0 PUSH1 0x20 DUP3 ADD SWAP1 POP PUSH2 0x20F7 PUSH1 0x0 DUP4 ADD DUP5 PUSH2 0x20D3 JUMP JUMPDEST SWAP3 SWAP2 POP POP JUMP JUMPDEST PUSH32 0x4E487B7100000000000000000000000000000000000000000000000000000000 PUSH1 0x0 MSTORE PUSH1 0x32 PUSH1 0x4 MSTORE PUSH1 0x24 PUSH1 0x0 REVERT JUMPDEST PUSH1 0x0 PUSH1 0x40 DUP3 ADD SWAP1 POP PUSH2 0x2141 PUSH1 0x0 DUP4 ADD DUP6 PUSH2 0x20D3 JUMP JUMPDEST PUSH2 0x214E PUSH1 0x20 DUP4 ADD DUP5 PUSH2 0x20D3 JUMP JUMPDEST SWAP4 SWAP3 POP POP POP JUMP JUMPDEST PUSH1 0x0 DUP2 MLOAD SWAP1 POP PUSH2 0x2164 DUP2 PUSH2 0x1D2F JUMP JUMPDEST SWAP3 SWAP2 POP POP JUMP JUMPDEST PUSH1 0x0 PUSH1 0x20 DUP3 DUP5 SUB SLT ISZERO PUSH2 0x2180 JUMPI PUSH2 0x217F PUSH2 0x1C31 JUMP JUMPDEST JUMPDEST PUSH1 0x0 PUSH2 0x218E DUP5 DUP3 DUP6 ADD PUSH2 0x2155 JUMP JUMPDEST SWAP2 POP POP SWAP3 SWAP2 POP POP JUMP JUMPDEST PUSH1 0x0 DUP3 DUP3 MSTORE PUSH1 0x20 DUP3 ADD SWAP1 POP SWAP3 SWAP2 POP POP JUMP JUMPDEST PUSH32 0x6E6F7420616C6C6F776564000000000000000000000000000000000000000000 PUSH1 0x0 DUP3 ADD MSTORE POP JUMP JUMPDEST PUSH1 0x0 PUSH2 0x21DE PUSH1 0xB DUP4 PUSH2 0x2197 JUMP JUMPDEST SWAP2 POP PUSH2 0x21E9 DUP3 PUSH2 0x21A8 JUMP JUMPDEST PUSH1 0x20 DUP3 ADD SWAP1 POP SWAP2 SWAP1 POP JUMP JUMPDEST PUSH1 0x0 PUSH1 0x20 DUP3 ADD SWAP1 POP DUP2 DUP2 SUB PUSH1 0x0 DUP4 ADD MSTORE PUSH2 0x220D DUP2 PUSH2 0x21D1 JUMP JUMPDEST SWAP1 POP SWAP2 SWAP1 POP JUMP JUMPDEST PUSH1 0x0 DUP2 MLOAD SWAP1 POP PUSH2 0x2223 DUP2 PUSH2 0x1DFC JUMP JUMPDEST SWAP3 SWAP2 POP POP JUMP JUMPDEST PUSH1 0x0 PUSH1 0x20 DUP3 DUP5 SUB SLT ISZERO PUSH2 0x223F JUMPI PUSH2 0x223E PUSH2 0x1C31 JUMP JUMPDEST JUMPDEST PUSH1 0x0 PUSH2 0x224D DUP5 DUP3 DUP6 ADD PUSH2 0x2214 JUMP JUMPDEST SWAP2 POP POP SWAP3 SWAP2 POP POP JUMP JUMPDEST PUSH1 0x0 PUSH1 0x40 DUP3 ADD SWAP1 POP PUSH2 0x226B PUSH1 0x0 DUP4 ADD DUP6 PUSH2 0x20D3 JUMP JUMPDEST PUSH2 0x2278 PUSH1 0x20 DUP4 ADD DUP5 PUSH2 0x1F99 JUMP JUMPDEST SWAP4 SWAP3 POP POP POP JUMP JUMPDEST PUSH1 0x0 DUP2 MLOAD SWAP1 POP PUSH2 0x228E DUP2 PUSH2 0x1E34 JUMP JUMPDEST SWAP3 SWAP2 POP POP JUMP JUMPDEST PUSH1 0x0 PUSH1 0x20 DUP3 DUP5 SUB SLT ISZERO PUSH2 0x22AA JUMPI PUSH2 0x22A9 PUSH2 0x1C31 JUMP JUMPDEST JUMPDEST PUSH1 0x0 PUSH2 0x22B8 DUP5 DUP3 DUP6 ADD PUSH2 0x227F JUMP JUMPDEST SWAP2 POP POP SWAP3 SWAP2 POP POP JUMP JUMPDEST PUSH32 0x4E487B7100000000000000000000000000000000000000000000000000000000 PUSH1 0x0 MSTORE PUSH1 0x11 PUSH1 0x4 MSTORE PUSH1 0x24 PUSH1 0x0 REVERT JUMPDEST PUSH1 0x0 PUSH2 0x22FB DUP3 PUSH2 0x1DF2 JUMP JUMPDEST SWAP2 POP PUSH2 0x2306 DUP4 PUSH2 0x1DF2 JUMP JUMPDEST SWAP3 POP DUP3 DUP3 ADD SWAP1 POP DUP1 DUP3 GT ISZERO PUSH2 0x231E JUMPI PUSH2 0x231D PUSH2 0x22C1 JUMP JUMPDEST JUMPDEST SWAP3 SWAP2 POP POP JUMP JUMPDEST PUSH32 0x617262206E6F742070726F66697461626C650000000000000000000000000000 PUSH1 0x0 DUP3 ADD MSTORE POP JUMP JUMPDEST PUSH1 0x0 PUSH2 0x235A PUSH1 0x12 DUP4 PUSH2 0x2197 JUMP JUMPDEST SWAP2 POP PUSH2 0x2365 DUP3 PUSH2 0x2324 JUMP JUMPDEST PUSH1 0x20 DUP3 ADD SWAP1 POP SWAP2 SWAP1 POP JUMP JUMPDEST PUSH1 0x0 PUSH1 0x20 DUP3 ADD SWAP1 POP DUP2 DUP2 SUB PUSH1 0x0 DUP4 ADD MSTORE PUSH2 0x2389 DUP2 PUSH2 0x234D JUMP JUMPDEST SWAP1 POP SWAP2 SWAP1 POP JUMP JUMPDEST PUSH1 0x0 PUSH2 0x239B DUP3 PUSH2 0x1DF2 JUMP JUMPDEST SWAP2 POP PUSH2 0x23A6 DUP4 PUSH2 0x1DF2 JUMP JUMPDEST SWAP3 POP DUP3 DUP3 SUB SWAP1 POP DUP2 DUP2 GT ISZERO PUSH2 0x23BE JUMPI PUSH2 0x23BD PUSH2 0x22C1 JUMP JUMPDEST JUMPDEST SWAP3 SWAP2 POP POP JUMP JUMPDEST PUSH1 0x0 PUSH2 0x23CF DUP3 PUSH2 0x1DF2 JUMP JUMPDEST SWAP2 POP PUSH2 0x23DA DUP4 PUSH2 0x1DF2 JUMP JUMPDEST SWAP3 POP DUP3 DUP3 MUL PUSH2 0x23E8 DUP2 PUSH2 0x1DF2 JUMP JUMPDEST SWAP2 POP DUP3 DUP3 DIV DUP5 EQ DUP4 ISZERO OR PUSH2 0x23FF JUMPI PUSH2 0x23FE PUSH2 0x22C1 JUMP JUMPDEST JUMPDEST POP SWAP3 SWAP2 POP POP JUMP JUMPDEST PUSH32 0x4E487B7100000000000000000000000000000000000000000000000000000000 PUSH1 0x0 MSTORE PUSH1 0x12 PUSH1 0x4 MSTORE PUSH1 0x24 PUSH1 0x0 REVERT JUMPDEST PUSH1 0x0 PUSH2 0x2440 DUP3 PUSH2 0x1DF2 JUMP JUMPDEST SWAP2 POP PUSH2 0x244B DUP4 PUSH2 0x1DF2 JUMP JUMPDEST SWAP3 POP DUP3 PUSH2 0x245B JUMPI PUSH2 0x245A PUSH2 0x2406 JUMP JUMPDEST JUMPDEST DUP3 DUP3 DIV SWAP1 POP SWAP3 SWAP2 POP POP JUMP JUMPDEST PUSH32 0x556E697377617056324C6962726172793A20494E56414C49445F504154480000 PUSH1 0x0 DUP3 ADD MSTORE POP JUMP JUMPDEST PUSH1 0x0 PUSH2 0x249C PUSH1 0x1E DUP4 PUSH2 0x2197 JUMP JUMPDEST SWAP2 POP PUSH2 0x24A7 DUP3 PUSH2 0x2466 JUMP JUMPDEST PUSH1 0x20 DUP3 ADD SWAP1 POP SWAP2 SWAP1 POP JUMP JUMPDEST PUSH1 0x0 PUSH1 0x20 DUP3 ADD SWAP1 POP DUP2 DUP2 SUB PUSH1 0x0 DUP4 ADD MSTORE PUSH2 0x24CB DUP2 PUSH2 0x248F JUMP JUMPDEST SWAP1 POP SWAP2 SWAP1 POP JUMP JUMPDEST PUSH1 0x0 PUSH2 0x24DD DUP3 PUSH2 0x1DF2 JUMP JUMPDEST SWAP2 POP PUSH32 0xFFFFFFFFFFFFFFFFFFFFFFFFFFFFFFFFFFFFFFFFFFFFFFFFFFFFFFFFFFFFFFFF DUP3 SUB PUSH2 0x250F JUMPI PUSH2 0x250E PUSH2 0x22C1 JUMP JUMPDEST JUMPDEST PUSH1 0x1 DUP3 ADD SWAP1 POP SWAP2 SWAP1 POP JUMP JUMPDEST PUSH1 0x0 PUSH1 0x60 DUP3 ADD SWAP1 POP PUSH2 0x252F PUSH1 0x0 DUP4 ADD DUP7 PUSH2 0x20D3 JUMP JUMPDEST PUSH2 0x253C PUSH1 0x20 DUP4 ADD DUP6 PUSH2 0x20D3 JUMP JUMPDEST PUSH2 0x2549 PUSH1 0x40 DUP4 ADD DUP5 PUSH2 0x1F99 JUMP JUMPDEST SWAP5 SWAP4 POP POP POP POP JUMP JUMPDEST PUSH32 0x7472616E73666572206661696C65640000000000000000000000000000000000 PUSH1 0x0 DUP3 ADD MSTORE POP JUMP JUMPDEST PUSH1 0x0 PUSH2 0x2587 PUSH1 0xF DUP4 PUSH2 0x2197 JUMP JUMPDEST SWAP2 POP PUSH2 0x2592 DUP3 PUSH2 0x2551 JUMP JUMPDEST PUSH1 0x20 DUP3 ADD SWAP1 POP SWAP2 SWAP1 POP JUMP JUMPDEST PUSH1 0x0 PUSH1 0x20 DUP3 ADD SWAP1 POP DUP2 DUP2 SUB PUSH1 0x0 DUP4 ADD MSTORE PUSH2 0x25B6 DUP2 PUSH2 0x257A JUMP JUMPDEST SWAP1 POP SWAP2 SWAP1 POP JUMP JUMPDEST PUSH1 0x0 DUP2 MLOAD SWAP1 POP SWAP2 SWAP1 POP JUMP JUMPDEST PUSH1 0x0 DUP3 DUP3 MSTORE PUSH1 0x20 DUP3 ADD SWAP1 POP SWAP3 SWAP2 POP POP JUMP JUMPDEST PUSH1 0x0 JUMPDEST DUP4 DUP2 LT ISZERO PUSH2 0x25F7 JUMPI DUP1 DUP3 ADD MLOAD DUP2 DUP5 ADD MSTORE PUSH1 0x20 DUP2 ADD SWAP1 POP PUSH2 0x25DC JUMP JUMPDEST PUSH1 0x0 DUP5 DUP5 ADD MSTORE POP POP POP POP JUMP JUMPDEST PUSH1 0x0 PUSH2 0x260E DUP3 PUSH2 0x25BD JUMP JUMPDEST PUSH2 0x2618 DUP2 DUP6 PUSH2 0x25C8 JUMP JUMPDEST SWAP4 POP PUSH2 0x2628 DUP2 DUP6 PUSH1 0x20 DUP7 ADD PUSH2 0x25D9 JUMP JUMPDEST PUSH2 0x2631 DUP2 PUSH2 0x1C40 JUMP JUMPDEST DUP5 ADD SWAP2 POP POP SWAP3 SWAP2 POP POP JUMP JUMPDEST PUSH1 0x0 PUSH1 0x80 DUP3 ADD SWAP1 POP PUSH2 0x2651 PUSH1 0x0 DUP4 ADD DUP8 PUSH2 0x1F99 JUMP JUMPDEST PUSH2 0x265E PUSH1 0x20 DUP4 ADD DUP7 PUSH2 0x1F99 JUMP JUMPDEST PUSH2 0x266B PUSH1 0x40 DUP4 ADD DUP6 PUSH2 0x20D3 JUMP JUMPDEST DUP2 DUP2 SUB PUSH1 0x60 DUP4 ADD MSTORE PUSH2 0x267D DUP2 DUP5 PUSH2 0x2603 JUMP JUMPDEST SWAP1 POP SWAP6 SWAP5 POP POP POP POP POP JUMP JUMPDEST PUSH1 0x0 PUSH14 0xFFFFFFFFFFFFFFFFFFFFFFFFFFFF DUP3 AND SWAP1 POP SWAP2 SWAP1 POP JUMP JUMPDEST PUSH2 0x26AB DUP2 PUSH2 0x2688 JUMP JUMPDEST DUP2 EQ PUSH2 0x26B6 JUMPI PUSH1 0x0 DUP1 REVERT JUMPDEST POP JUMP JUMPDEST PUSH1 0x0 DUP2 MLOAD SWAP1 POP PUSH2 0x26C8 DUP2 PUSH2 0x26A2 JUMP JUMPDEST SWAP3 SWAP2 POP POP JUMP JUMPDEST PUSH1 0x0 PUSH4 0xFFFFFFFF DUP3 AND SWAP1 POP SWAP2 SWAP1 POP JUMP JUMPDEST PUSH2 0x26E7 DUP2 PUSH2 0x26CE JUMP JUMPDEST DUP2 EQ PUSH2 0x26F2 JUMPI PUSH1 0x0 DUP1 REVERT JUMPDEST POP JUMP JUMPDEST PUSH1 0x0 DUP2 MLOAD SWAP1 POP PUSH2 0x2704 DUP2 PUSH2 0x26DE JUMP JUMPDEST SWAP3 SWAP2 POP POP JUMP JUMPDEST PUSH1 0x0 DUP1 PUSH1 0x0 PUSH1 0x60 DUP5 DUP7 SUB SLT ISZERO PUSH2 0x2723 JUMPI PUSH2 0x2722 PUSH2 0x1C31 JUMP JUMPDEST JUMPDEST PUSH1 0x0 PUSH2 0x2731 DUP7 DUP3 DUP8 ADD PUSH2 0x26B9 JUMP JUMPDEST SWAP4 POP POP PUSH1 0x20 PUSH2 0x2742 DUP7 DUP3 DUP8 ADD PUSH2 0x26B9 JUMP JUMPDEST SWAP3 POP POP PUSH1 0x40 PUSH2 0x2753 DUP7 DUP3 DUP8 ADD PUSH2 0x26F5 JUMP JUMPDEST SWAP2 POP POP SWAP3 POP SWAP3 POP SWAP3 JUMP JUMPDEST PUSH32 0x556E697377617056324C6962726172793A20494E53554646494349454E545F49 PUSH1 0x0 DUP3 ADD MSTORE PUSH32 0x4E5055545F414D4F554E54000000000000000000000000000000000000000000 PUSH1 0x20 DUP3 ADD MSTORE POP JUMP JUMPDEST PUSH1 0x0 PUSH2 0x27B9 PUSH1 0x2B DUP4 PUSH2 0x2197 JUMP JUMPDEST SWAP2 POP PUSH2 0x27C4 DUP3 PUSH2 0x275D JUMP JUMPDEST PUSH1 0x40 DUP3 ADD SWAP1 POP SWAP2 SWAP1 POP JUMP JUMPDEST PUSH1 0x0 PUSH1 0x20 DUP3 ADD SWAP1 POP DUP2 DUP2 SUB PUSH1 0x0 DUP4 ADD MSTORE PUSH2 0x27E8 DUP2 PUSH2 0x27AC JUMP JUMPDEST SWAP1 POP SWAP2 SWAP1 POP JUMP JUMPDEST PUSH32 0x556E697377617056324C6962726172793A20494E53554646494349454E545F4C PUSH1 0x0 DUP3 ADD MSTORE PUSH32 0x4951554944495459000000000000000000000000000000000000000000000000 PUSH1 0x20 DUP3 ADD MSTORE POP JUMP JUMPDEST PUSH1 0x0 PUSH2 0x284B PUSH1 0x28 DUP4 PUSH2 0x2197 JUMP JUMPDEST SWAP2 POP PUSH2 0x2856 DUP3 PUSH2 0x27EF JUMP JUMPDEST PUSH1 0x40 DUP3 ADD SWAP1 POP SWAP2 SWAP1 POP JUMP JUMPDEST PUSH1 0x0 PUSH1 0x20 DUP3 ADD SWAP1 POP DUP2 DUP2 SUB PUSH1 0x0 DUP4 ADD MSTORE PUSH2 0x287A DUP2 PUSH2 0x283E JUMP JUMPDEST SWAP1 POP SWAP2 SWAP1 POP JUMP JUMPDEST PUSH32 0x556E697377617056324C6962726172793A204944454E544943414C5F41444452 PUSH1 0x0 DUP3 ADD MSTORE PUSH32 0x4553534553000000000000000000000000000000000000000000000000000000 PUSH1 0x20 DUP3 ADD MSTORE POP JUMP JUMPDEST PUSH1 0x0 PUSH2 0x28DD PUSH1 0x25 DUP4 PUSH2 0x2197 JUMP JUMPDEST SWAP2 POP PUSH2 0x28E8 DUP3 PUSH2 0x2881 JUMP JUMPDEST PUSH1 0x40 DUP3 ADD SWAP1 POP SWAP2 SWAP1 POP JUMP JUMPDEST PUSH1 0x0 PUSH1 0x20 DUP3 ADD SWAP1 POP DUP2 DUP2 SUB PUSH1 0x0 DUP4 ADD MSTORE PUSH2 0x290C DUP2 PUSH2 0x28D0 JUMP JUMPDEST SWAP1 POP SWAP2 SWAP1 POP JUMP JUMPDEST PUSH32 0x556E697377617056324C6962726172793A205A45524F5F414444524553530000 PUSH1 0x0 DUP3 ADD MSTORE POP JUMP JUMPDEST PUSH1 0x0 PUSH2 0x2949 PUSH1 0x1E DUP4 PUSH2 0x2197 JUMP JUMPDEST SWAP2 POP PUSH2 0x2954 DUP3 PUSH2 0x2913 JUMP JUMPDEST PUSH1 0x20 DUP3 ADD SWAP1 POP SWAP2 SWAP1 POP JUMP JUMPDEST PUSH1 0x0 PUSH1 0x20 DUP3 ADD SWAP1 POP DUP2 DUP2 SUB PUSH1 0x0 DUP4 ADD MSTORE PUSH2 0x2978 DUP2 PUSH2 0x293C JUMP JUMPDEST SWAP1 POP SWAP2 SWAP1 POP JUMP JUMPDEST PUSH32 0x64732D6D6174682D6D756C2D6F766572666C6F77000000000000000000000000 PUSH1 0x0 DUP3 ADD MSTORE POP JUMP JUMPDEST PUSH1 0x0 PUSH2 0x29B5 PUSH1 0x14 DUP4 PUSH2 0x2197 JUMP JUMPDEST SWAP2 POP PUSH2 0x29C0 DUP3 PUSH2 0x297F JUMP JUMPDEST PUSH1 0x20 DUP3 ADD SWAP1 POP SWAP2 SWAP1 POP JUMP JUMPDEST PUSH1 0x0 PUSH1 0x20 DUP3 ADD SWAP1 POP DUP2 DUP2 SUB PUSH1 0x0 DUP4 ADD MSTORE PUSH2 0x29E4 DUP2 PUSH2 0x29A8 JUMP JUMPDEST SWAP1 POP SWAP2 SWAP1 POP JUMP JUMPDEST PUSH32 0x64732D6D6174682D6164642D6F766572666C6F77000000000000000000000000 PUSH1 0x0 DUP3 ADD MSTORE POP JUMP JUMPDEST PUSH1 0x0 PUSH2 0x2A21 PUSH1 0x14 DUP4 PUSH2 0x2197 JUMP JUMPDEST SWAP2 POP PUSH2 0x2A2C DUP3 PUSH2 0x29EB JUMP JUMPDEST PUSH1 0x20 DUP3 ADD SWAP1 POP SWAP2 SWAP1 POP JUMP JUMPDEST PUSH1 0x0 PUSH1 0x20 DUP3 ADD SWAP1 POP DUP2 DUP2 SUB PUSH1 0x0 DUP4 ADD MSTORE PUSH2 0x2A50 DUP2 PUSH2 0x2A14 JUMP JUMPDEST SWAP1 POP SWAP2 SWAP1 POP JUMP INVALID LOG2 PUSH5 0x6970667358 0x22 SLT KECCAK256 STOP 0xDA 0xC2 SIGNEXTEND 0xA5 SDIV 0x4C 0x2C 0x25 MULMOD PREVRANDAO 0xBF LOG1 PUSH19 0x4D854BBC5AA7E03065FA365A21CCF810FAF264 PUSH20 0x6F6C634300081200330000000000000000000000 "},"methodIdentifiers":{"WETH()":"ad5c4648","arb(address,address,address,address,address,address,uint256)":"3437a611","backrun(address,address,address,uint256)":"86f89bd2","liquidate()":"28a07025","swap(address[],uint256,address,address,bool)":"0cc73263","swapCheaper(address[],uint256,address,address,address,bool)":"7e372601"}}}}}