{
  "_format": "hh-sol-artifact-1",
  "contractName": "AtomicSwap",
  "sourceName": "contracts/atomicSwap.sol",
  "abi": [
    {
      "inputs": [
        {
          "internalType": "address",
          "name": "_weth",
          "type": "address"
        }
      ],
      "stateMutability": "nonpayable",
      "type": "constructor"
    },
    {
      "stateMutability": "payable",
      "type": "fallback"
    },
    {
      "inputs": [],
      "name": "WETH",
      "outputs": [
        {
          "internalType": "address",
          "name": "",
          "type": "address"
        }
      ],
      "stateMutability": "view",
      "type": "function"
    },
    {
      "inputs": [],
      "name": "liquidate",
      "outputs": [],
      "stateMutability": "nonpayable",
      "type": "function"
    },
    {
      "inputs": [
        {
          "internalType": "address[]",
          "name": "path",
          "type": "address[]"
        },
        {
          "internalType": "uint256",
          "name": "amountIn",
          "type": "uint256"
        },
        {
          "internalType": "uint256",
          "name": "amountOutMin",
          "type": "uint256"
        },
        {
          "internalType": "address",
          "name": "factory",
          "type": "address"
        },
        {
          "internalType": "address",
          "name": "recipient",
          "type": "address"
        },
        {
          "internalType": "bool",
          "name": "fromThis",
          "type": "bool"
        }
      ],
      "name": "swap",
      "outputs": [],
      "stateMutability": "nonpayable",
      "type": "function"
    },
    {
      "stateMutability": "payable",
      "type": "receive"
    }
  ],
  "bytecode": "0x60806040523480156200001157600080fd5b5060405162001e9a38038062001e9a83398181016040528101906200003791906200016a565b806000806101000a81548173ffffffffffffffffffffffffffffffffffffffff021916908373ffffffffffffffffffffffffffffffffffffffff16021790555080600260006101000a81548173ffffffffffffffffffffffffffffffffffffffff021916908373ffffffffffffffffffffffffffffffffffffffff16021790555033600160006101000a81548173ffffffffffffffffffffffffffffffffffffffff021916908373ffffffffffffffffffffffffffffffffffffffff160217905550506200019c565b600080fd5b600073ffffffffffffffffffffffffffffffffffffffff82169050919050565b6000620001328262000105565b9050919050565b620001448162000125565b81146200015057600080fd5b50565b600081519050620001648162000139565b92915050565b60006020828403121562000183576200018262000100565b5b6000620001938482850162000153565b91505092915050565b611cee80620001ac6000396000f3fe6080604052600436106100385760003560e01c806328a07025146100bd578063ad5c4648146100d4578063d50bc57c146100ff57610082565b366100825760003411610080576040517f08c379a000000000000000000000000000000000000000000000000000000000815260040161007790610fa2565b60405180910390fd5b005b6040517f08c379a00000000000000000000000000000000000000000000000000000000081526004016100b49061100e565b60405180910390fd5b3480156100c957600080fd5b506100d2610128565b005b3480156100e057600080fd5b506100e9610318565b6040516100f6919061106f565b60405180910390f35b34801561010b57600080fd5b5061012660048036038101906101219190611291565b61033c565b005b600160009054906101000a900473ffffffffffffffffffffffffffffffffffffffff1673ffffffffffffffffffffffffffffffffffffffff163373ffffffffffffffffffffffffffffffffffffffff16146101b8576040517f08c379a00000000000000000000000000000000000000000000000000000000081526004016101af90611386565b60405180910390fd5b600260009054906101000a900473ffffffffffffffffffffffffffffffffffffffff1673ffffffffffffffffffffffffffffffffffffffff1663a9059cbb600160009054906101000a900473ffffffffffffffffffffffffffffffffffffffff16600260009054906101000a900473ffffffffffffffffffffffffffffffffffffffff1673ffffffffffffffffffffffffffffffffffffffff166370a08231306040518263ffffffff1660e01b8152600401610274919061106f565b602060405180830381865afa158015610291573d6000803e3d6000fd5b505050506040513d601f19601f820116820180604052508101906102b591906113bb565b6040518363ffffffff1660e01b81526004016102d29291906113f7565b6020604051808303816000875af11580156102f1573d6000803e3d6000fd5b505050506040513d601f19601f820116820180604052508101906103159190611435565b50565b60008054906101000a900473ffffffffffffffffffffffffffffffffffffffff1681565b6000610349848789610668565b905084816001835161035b9190611491565b8151811061036c5761036b6114c5565b5b602002602001015110156103b5576040517f08c379a00000000000000000000000000000000000000000000000000000000081526004016103ac90611566565b60405180910390fd5b60008473ffffffffffffffffffffffffffffffffffffffff1663e6a43905896000815181106103e7576103e66114c5565b5b60200260200101518a600181518110610403576104026114c5565b5b60200260200101516040518363ffffffff1660e01b8152600401610428929190611586565b602060405180830381865afa158015610445573d6000803e3d6000fd5b505050506040513d601f19601f8201168201806040525081019061046991906115c4565b9050600088600081518110610481576104806114c5565b5b602002602001015173ffffffffffffffffffffffffffffffffffffffff168273ffffffffffffffffffffffffffffffffffffffff16630dfe16816040518163ffffffff1660e01b8152600401602060405180830381865afa1580156104ea573d6000803e3d6000fd5b505050506040513d601f19601f8201168201806040525081019061050e91906115c4565b73ffffffffffffffffffffffffffffffffffffffff161461054a578260018151811061053d5761053c6114c5565b5b602002602001015161054d565b60005b9050600089600081518110610565576105646114c5565b5b602002602001015173ffffffffffffffffffffffffffffffffffffffff168373ffffffffffffffffffffffffffffffffffffffff16630dfe16816040518163ffffffff1660e01b8152600401602060405180830381865afa1580156105ce573d6000803e3d6000fd5b505050506040513d601f19601f820116820180604052508101906105f291906115c4565b73ffffffffffffffffffffffffffffffffffffffff1614610614576000610631565b83600181518110610628576106276114c5565b5b60200260200101515b905061065c82828c60008151811061064c5761064b6114c5565b5b6020026020010151868a8a6107f3565b50505050505050505050565b60606002825110156106af576040517f08c379a00000000000000000000000000000000000000000000000000000000081526004016106a69061163d565b60405180910390fd5b815167ffffffffffffffff8111156106ca576106c96110b4565b5b6040519080825280602002602001820160405280156106f85781602001602082028036833780820191505090505b50905082816000815181106107105761070f6114c5565b5b60200260200101818152505060005b6001835161072d9190611491565b8110156107eb576000806107828786858151811061074e5761074d6114c5565b5b602002602001015187600187610764919061165d565b81518110610775576107746114c5565b5b6020026020010151610ad9565b915091506107ab84848151811061079c5761079b6114c5565b5b60200260200101518383610c4d565b846001856107b9919061165d565b815181106107ca576107c96114c5565b5b602002602001018181525050505080806107e390611691565b91505061071f565b509392505050565b6000839050600085905060008673ffffffffffffffffffffffffffffffffffffffff168373ffffffffffffffffffffffffffffffffffffffff16630dfe16816040518163ffffffff1660e01b8152600401602060405180830381865afa158015610861573d6000803e3d6000fd5b505050506040513d601f19601f8201168201806040525081019061088591906115c4565b73ffffffffffffffffffffffffffffffffffffffff16146108a657876108a8565b885b905083610934578173ffffffffffffffffffffffffffffffffffffffff166323b872dd3388846040518463ffffffff1660e01b81526004016108ec939291906116d9565b6020604051808303816000875af115801561090b573d6000803e3d6000fd5b505050506040513d601f19601f8201168201806040525081019061092f9190611435565b6109b3565b8173ffffffffffffffffffffffffffffffffffffffff1663a9059cbb87836040518363ffffffff1660e01b815260040161096f9291906113f7565b6020604051808303816000875af115801561098e573d6000803e3d6000fd5b505050506040513d601f19601f820116820180604052508101906109b29190611435565b5b6109f2576040517f08c379a00000000000000000000000000000000000000000000000000000000081526004016109e99061175c565b60405180910390fd5b8273ffffffffffffffffffffffffffffffffffffffff1663022c0d9f828b14610a1b578a610a1e565b60005b838b14610a2b578a610a2e565b60005b88600067ffffffffffffffff811115610a4a57610a496110b4565b5b6040519080825280601f01601f191660200182016040528015610a7c5781602001600182028036833780820191505090505b506040518563ffffffff1660e01b8152600401610a9c94939291906117fb565b600060405180830381600087803b158015610ab657600080fd5b505af1158015610aca573d6000803e3d6000fd5b50505050505050505050505050565b6000806000610ae88585610d53565b5090506000808773ffffffffffffffffffffffffffffffffffffffff1663e6a4390588886040518363ffffffff1660e01b8152600401610b29929190611586565b602060405180830381865afa158015610b46573d6000803e3d6000fd5b505050506040513d601f19601f82011682018060405250810190610b6a91906115c4565b73ffffffffffffffffffffffffffffffffffffffff16630902f1ac6040518163ffffffff1660e01b8152600401606060405180830381865afa158015610bb4573d6000803e3d6000fd5b505050506040513d601f19601f82011682018060405250810190610bd891906118c9565b506dffffffffffffffffffffffffffff1691506dffffffffffffffffffffffffffff1691508273ffffffffffffffffffffffffffffffffffffffff168773ffffffffffffffffffffffffffffffffffffffff1614610c37578082610c3a565b81815b8095508196505050505050935093915050565b6000808411610c91576040517f08c379a0000000000000000000000000000000000000000000000000000000008152600401610c889061198e565b60405180910390fd5b600083118015610ca15750600082115b610ce0576040517f08c379a0000000000000000000000000000000000000000000000000000000008152600401610cd790611a20565b60405180910390fd5b6000610cf76103e586610e7f90919063ffffffff16565b90506000610d0e8483610e7f90919063ffffffff16565b90506000610d3983610d2b6103e889610e7f90919063ffffffff16565b610eec90919063ffffffff16565b90508082610d479190611a6f565b93505050509392505050565b6000808273ffffffffffffffffffffffffffffffffffffffff168473ffffffffffffffffffffffffffffffffffffffff1603610dc4576040517f08c379a0000000000000000000000000000000000000000000000000000000008152600401610dbb90611b12565b60405180910390fd5b8273ffffffffffffffffffffffffffffffffffffffff168473ffffffffffffffffffffffffffffffffffffffff1610610dfe578284610e01565b83835b8092508193505050600073ffffffffffffffffffffffffffffffffffffffff168273ffffffffffffffffffffffffffffffffffffffff1603610e78576040517f08c379a0000000000000000000000000000000000000000000000000000000008152600401610e6f90611b7e565b60405180910390fd5b9250929050565b600080821480610ea7575082828385610e989190611b9e565b925082610ea59190611a6f565b145b610ee6576040517f08c379a0000000000000000000000000000000000000000000000000000000008152600401610edd90611c2c565b60405180910390fd5b92915050565b6000828284610efb919061165d565b9150811015610f3f576040517f08c379a0000000000000000000000000000000000000000000000000000000008152600401610f3690611c98565b60405180910390fd5b92915050565b600082825260208201905092915050565b7f4d7573742073656e642045544800000000000000000000000000000000000000600082015250565b6000610f8c600d83610f45565b9150610f9782610f56565b602082019050919050565b60006020820190508181036000830152610fbb81610f7f565b9050919050565b7f46756e6374696f6e20646f6573206e6f74206578697374000000000000000000600082015250565b6000610ff8601783610f45565b915061100382610fc2565b602082019050919050565b6000602082019050818103600083015261102781610feb565b9050919050565b600073ffffffffffffffffffffffffffffffffffffffff82169050919050565b60006110598261102e565b9050919050565b6110698161104e565b82525050565b60006020820190506110846000830184611060565b92915050565b6000604051905090565b600080fd5b600080fd5b600080fd5b6000601f19601f8301169050919050565b7f4e487b7100000000000000000000000000000000000000000000000000000000600052604160045260246000fd5b6110ec826110a3565b810181811067ffffffffffffffff8211171561110b5761110a6110b4565b5b80604052505050565b600061111e61108a565b905061112a82826110e3565b919050565b600067ffffffffffffffff82111561114a576111496110b4565b5b602082029050602081019050919050565b600080fd5b6111698161104e565b811461117457600080fd5b50565b60008135905061118681611160565b92915050565b600061119f61119a8461112f565b611114565b905080838252602082019050602084028301858111156111c2576111c161115b565b5b835b818110156111eb57806111d78882611177565b8452602084019350506020810190506111c4565b5050509392505050565b600082601f83011261120a5761120961109e565b5b813561121a84826020860161118c565b91505092915050565b6000819050919050565b61123681611223565b811461124157600080fd5b50565b6000813590506112538161122d565b92915050565b60008115159050919050565b61126e81611259565b811461127957600080fd5b50565b60008135905061128b81611265565b92915050565b60008060008060008060c087890312156112ae576112ad611094565b5b600087013567ffffffffffffffff8111156112cc576112cb611099565b5b6112d889828a016111f5565b96505060206112e989828a01611244565b95505060406112fa89828a01611244565b945050606061130b89828a01611177565b935050608061131c89828a01611177565b92505060a061132d89828a0161127c565b9150509295509295509295565b7f6e6f7420616c6c6f776564000000000000000000000000000000000000000000600082015250565b6000611370600b83610f45565b915061137b8261133a565b602082019050919050565b6000602082019050818103600083015261139f81611363565b9050919050565b6000815190506113b58161122d565b92915050565b6000602082840312156113d1576113d0611094565b5b60006113df848285016113a6565b91505092915050565b6113f181611223565b82525050565b600060408201905061140c6000830185611060565b61141960208301846113e8565b9392505050565b60008151905061142f81611265565b92915050565b60006020828403121561144b5761144a611094565b5b600061145984828501611420565b91505092915050565b7f4e487b7100000000000000000000000000000000000000000000000000000000600052601160045260246000fd5b600061149c82611223565b91506114a783611223565b92508282039050818111156114bf576114be611462565b5b92915050565b7f4e487b7100000000000000000000000000000000000000000000000000000000600052603260045260246000fd5b7f41746f6d6963537761703a20494e53554646494349454e545f4f55545055545f60008201527f414d4f554e540000000000000000000000000000000000000000000000000000602082015250565b6000611550602683610f45565b915061155b826114f4565b604082019050919050565b6000602082019050818103600083015261157f81611543565b9050919050565b600060408201905061159b6000830185611060565b6115a86020830184611060565b9392505050565b6000815190506115be81611160565b92915050565b6000602082840312156115da576115d9611094565b5b60006115e8848285016115af565b91505092915050565b7f556e697377617056324c6962726172793a20494e56414c49445f504154480000600082015250565b6000611627601e83610f45565b9150611632826115f1565b602082019050919050565b600060208201905081810360008301526116568161161a565b9050919050565b600061166882611223565b915061167383611223565b925082820190508082111561168b5761168a611462565b5b92915050565b600061169c82611223565b91507fffffffffffffffffffffffffffffffffffffffffffffffffffffffffffffffff82036116ce576116cd611462565b5b600182019050919050565b60006060820190506116ee6000830186611060565b6116fb6020830185611060565b61170860408301846113e8565b949350505050565b7f7472616e73666572206661696c65640000000000000000000000000000000000600082015250565b6000611746600f83610f45565b915061175182611710565b602082019050919050565b6000602082019050818103600083015261177581611739565b9050919050565b600081519050919050565b600082825260208201905092915050565b60005b838110156117b657808201518184015260208101905061179b565b60008484015250505050565b60006117cd8261177c565b6117d78185611787565b93506117e7818560208601611798565b6117f0816110a3565b840191505092915050565b600060808201905061181060008301876113e8565b61181d60208301866113e8565b61182a6040830185611060565b818103606083015261183c81846117c2565b905095945050505050565b60006dffffffffffffffffffffffffffff82169050919050565b61186a81611847565b811461187557600080fd5b50565b60008151905061188781611861565b92915050565b600063ffffffff82169050919050565b6118a68161188d565b81146118b157600080fd5b50565b6000815190506118c38161189d565b92915050565b6000806000606084860312156118e2576118e1611094565b5b60006118f086828701611878565b935050602061190186828701611878565b9250506040611912868287016118b4565b9150509250925092565b7f556e697377617056324c6962726172793a20494e53554646494349454e545f4960008201527f4e5055545f414d4f554e54000000000000000000000000000000000000000000602082015250565b6000611978602b83610f45565b91506119838261191c565b604082019050919050565b600060208201905081810360008301526119a78161196b565b9050919050565b7f556e697377617056324c6962726172793a20494e53554646494349454e545f4c60008201527f4951554944495459000000000000000000000000000000000000000000000000602082015250565b6000611a0a602883610f45565b9150611a15826119ae565b604082019050919050565b60006020820190508181036000830152611a39816119fd565b9050919050565b7f4e487b7100000000000000000000000000000000000000000000000000000000600052601260045260246000fd5b6000611a7a82611223565b9150611a8583611223565b925082611a9557611a94611a40565b5b828204905092915050565b7f556e697377617056324c6962726172793a204944454e544943414c5f4144445260008201527f4553534553000000000000000000000000000000000000000000000000000000602082015250565b6000611afc602583610f45565b9150611b0782611aa0565b604082019050919050565b60006020820190508181036000830152611b2b81611aef565b9050919050565b7f556e697377617056324c6962726172793a205a45524f5f414444524553530000600082015250565b6000611b68601e83610f45565b9150611b7382611b32565b602082019050919050565b60006020820190508181036000830152611b9781611b5b565b9050919050565b6000611ba982611223565b9150611bb483611223565b9250828202611bc281611223565b91508282048414831517611bd957611bd8611462565b5b5092915050565b7f64732d6d6174682d6d756c2d6f766572666c6f77000000000000000000000000600082015250565b6000611c16601483610f45565b9150611c2182611be0565b602082019050919050565b60006020820190508181036000830152611c4581611c09565b9050919050565b7f64732d6d6174682d6164642d6f766572666c6f77000000000000000000000000600082015250565b6000611c82601483610f45565b9150611c8d82611c4c565b602082019050919050565b60006020820190508181036000830152611cb181611c75565b905091905056fea26469706673582212202d423f056fa73251cdd006368b28445e0562eed92662eaf2feee2434a4e224f964736f6c63430008120033",
  "linkReferences": {},
  "deployedLinkReferences": {}
}