{
  "contracts/atomicSwap.sol": {
    "AtomicSwap": {
      "abi": [
        {
          "inputs": [
            {
              "internalType": "address",
              "name": "_weth",
              "type": "address"
            }
          ],
          "stateMutability": "nonpayable",
          "type": "constructor"
        },
        {
          "stateMutability": "payable",
          "type": "fallback"
        },
        {
          "inputs": [],
          "name": "WETH",
          "outputs": [
            {
              "internalType": "address",
              "name": "",
              "type": "address"
            }
          ],
          "stateMutability": "view",
          "type": "function"
        },
        {
          "inputs": [],
          "name": "liquidate",
          "outputs": [],
          "stateMutability": "nonpayable",
          "type": "function"
        },
        {
          "inputs": [
            {
              "internalType": "address[]",
              "name": "path",
              "type": "address[]"
            },
            {
              "internalType": "uint256",
              "name": "amountIn",
              "type": "uint256"
            },
            {
              "internalType": "uint256",
              "name": "amountOutMin",
              "type": "uint256"
            },
            {
              "internalType": "address",
              "name": "factory",
              "type": "address"
            },
            {
              "internalType": "address",
              "name": "recipient",
              "type": "address"
            },
            {
              "internalType": "bool",
              "name": "fromThis",
              "type": "bool"
            }
          ],
          "name": "swap",
          "outputs": [],
          "stateMutability": "nonpayable",
          "type": "function"
        },
        {
          "stateMutability": "payable",
          "type": "receive"
        }
      ],
      "evm": {
        "bytecode": {
          "linkReferences": {},
          "object": "60806040523480156200001157600080fd5b5060405162001e9a38038062001e9a83398181016040528101906200003791906200016a565b806000806101000a81548173ffffffffffffffffffffffffffffffffffffffff021916908373ffffffffffffffffffffffffffffffffffffffff16021790555080600260006101000a81548173ffffffffffffffffffffffffffffffffffffffff021916908373ffffffffffffffffffffffffffffffffffffffff16021790555033600160006101000a81548173ffffffffffffffffffffffffffffffffffffffff021916908373ffffffffffffffffffffffffffffffffffffffff160217905550506200019c565b600080fd5b600073ffffffffffffffffffffffffffffffffffffffff82169050919050565b6000620001328262000105565b9050919050565b620001448162000125565b81146200015057600080fd5b50565b600081519050620001648162000139565b92915050565b60006020828403121562000183576200018262000100565b5b6000620001938482850162000153565b91505092915050565b611cee80620001ac6000396000f3fe6080604052600436106100385760003560e01c806328a07025146100bd578063ad5c4648146100d4578063d50bc57c146100ff57610082565b366100825760003411610080576040517f08c379a000000000000000000000000000000000000000000000000000000000815260040161007790610fa2565b60405180910390fd5b005b6040517f08c379a00000000000000000000000000000000000000000000000000000000081526004016100b49061100e565b60405180910390fd5b3480156100c957600080fd5b506100d2610128565b005b3480156100e057600080fd5b506100e9610318565b6040516100f6919061106f565b60405180910390f35b34801561010b57600080fd5b5061012660048036038101906101219190611291565b61033c565b005b600160009054906101000a900473ffffffffffffffffffffffffffffffffffffffff1673ffffffffffffffffffffffffffffffffffffffff163373ffffffffffffffffffffffffffffffffffffffff16146101b8576040517f08c379a00000000000000000000000000000000000000000000000000000000081526004016101af90611386565b60405180910390fd5b600260009054906101000a900473ffffffffffffffffffffffffffffffffffffffff1673ffffffffffffffffffffffffffffffffffffffff1663a9059cbb600160009054906101000a900473ffffffffffffffffffffffffffffffffffffffff16600260009054906101000a900473ffffffffffffffffffffffffffffffffffffffff1673ffffffffffffffffffffffffffffffffffffffff166370a08231306040518263ffffffff1660e01b8152600401610274919061106f565b602060405180830381865afa158015610291573d6000803e3d6000fd5b505050506040513d601f19601f820116820180604052508101906102b591906113bb565b6040518363ffffffff1660e01b81526004016102d29291906113f7565b6020604051808303816000875af11580156102f1573d6000803e3d6000fd5b505050506040513d601f19601f820116820180604052508101906103159190611435565b50565b60008054906101000a900473ffffffffffffffffffffffffffffffffffffffff1681565b6000610349848789610668565b905084816001835161035b9190611491565b8151811061036c5761036b6114c5565b5b602002602001015110156103b5576040517f08c379a00000000000000000000000000000000000000000000000000000000081526004016103ac90611566565b60405180910390fd5b60008473ffffffffffffffffffffffffffffffffffffffff1663e6a43905896000815181106103e7576103e66114c5565b5b60200260200101518a600181518110610403576104026114c5565b5b60200260200101516040518363ffffffff1660e01b8152600401610428929190611586565b602060405180830381865afa158015610445573d6000803e3d6000fd5b505050506040513d601f19601f8201168201806040525081019061046991906115c4565b9050600088600081518110610481576104806114c5565b5b602002602001015173ffffffffffffffffffffffffffffffffffffffff168273ffffffffffffffffffffffffffffffffffffffff16630dfe16816040518163ffffffff1660e01b8152600401602060405180830381865afa1580156104ea573d6000803e3d6000fd5b505050506040513d601f19601f8201168201806040525081019061050e91906115c4565b73ffffffffffffffffffffffffffffffffffffffff161461054a578260018151811061053d5761053c6114c5565b5b602002602001015161054d565b60005b9050600089600081518110610565576105646114c5565b5b602002602001015173ffffffffffffffffffffffffffffffffffffffff168373ffffffffffffffffffffffffffffffffffffffff16630dfe16816040518163ffffffff1660e01b8152600401602060405180830381865afa1580156105ce573d6000803e3d6000fd5b505050506040513d601f19601f820116820180604052508101906105f291906115c4565b73ffffffffffffffffffffffffffffffffffffffff1614610614576000610631565b83600181518110610628576106276114c5565b5b60200260200101515b905061065c82828c60008151811061064c5761064b6114c5565b5b6020026020010151868a8a6107f3565b50505050505050505050565b60606002825110156106af576040517f08c379a00000000000000000000000000000000000000000000000000000000081526004016106a69061163d565b60405180910390fd5b815167ffffffffffffffff8111156106ca576106c96110b4565b5b6040519080825280602002602001820160405280156106f85781602001602082028036833780820191505090505b50905082816000815181106107105761070f6114c5565b5b60200260200101818152505060005b6001835161072d9190611491565b8110156107eb576000806107828786858151811061074e5761074d6114c5565b5b602002602001015187600187610764919061165d565b81518110610775576107746114c5565b5b6020026020010151610ad9565b915091506107ab84848151811061079c5761079b6114c5565b5b60200260200101518383610c4d565b846001856107b9919061165d565b815181106107ca576107c96114c5565b5b602002602001018181525050505080806107e390611691565b91505061071f565b509392505050565b6000839050600085905060008673ffffffffffffffffffffffffffffffffffffffff168373ffffffffffffffffffffffffffffffffffffffff16630dfe16816040518163ffffffff1660e01b8152600401602060405180830381865afa158015610861573d6000803e3d6000fd5b505050506040513d601f19601f8201168201806040525081019061088591906115c4565b73ffffffffffffffffffffffffffffffffffffffff16146108a657876108a8565b885b905083610934578173ffffffffffffffffffffffffffffffffffffffff166323b872dd3388846040518463ffffffff1660e01b81526004016108ec939291906116d9565b6020604051808303816000875af115801561090b573d6000803e3d6000fd5b505050506040513d601f19601f8201168201806040525081019061092f9190611435565b6109b3565b8173ffffffffffffffffffffffffffffffffffffffff1663a9059cbb87836040518363ffffffff1660e01b815260040161096f9291906113f7565b6020604051808303816000875af115801561098e573d6000803e3d6000fd5b505050506040513d601f19601f820116820180604052508101906109b29190611435565b5b6109f2576040517f08c379a00000000000000000000000000000000000000000000000000000000081526004016109e99061175c565b60405180910390fd5b8273ffffffffffffffffffffffffffffffffffffffff1663022c0d9f828b14610a1b578a610a1e565b60005b838b14610a2b578a610a2e565b60005b88600067ffffffffffffffff811115610a4a57610a496110b4565b5b6040519080825280601f01601f191660200182016040528015610a7c5781602001600182028036833780820191505090505b506040518563ffffffff1660e01b8152600401610a9c94939291906117fb565b600060405180830381600087803b158015610ab657600080fd5b505af1158015610aca573d6000803e3d6000fd5b50505050505050505050505050565b6000806000610ae88585610d53565b5090506000808773ffffffffffffffffffffffffffffffffffffffff1663e6a4390588886040518363ffffffff1660e01b8152600401610b29929190611586565b602060405180830381865afa158015610b46573d6000803e3d6000fd5b505050506040513d601f19601f82011682018060405250810190610b6a91906115c4565b73ffffffffffffffffffffffffffffffffffffffff16630902f1ac6040518163ffffffff1660e01b8152600401606060405180830381865afa158015610bb4573d6000803e3d6000fd5b505050506040513d601f19601f82011682018060405250810190610bd891906118c9565b506dffffffffffffffffffffffffffff1691506dffffffffffffffffffffffffffff1691508273ffffffffffffffffffffffffffffffffffffffff168773ffffffffffffffffffffffffffffffffffffffff1614610c37578082610c3a565b81815b8095508196505050505050935093915050565b6000808411610c91576040517f08c379a0000000000000000000000000000000000000000000000000000000008152600401610c889061198e565b60405180910390fd5b600083118015610ca15750600082115b610ce0576040517f08c379a0000000000000000000000000000000000000000000000000000000008152600401610cd790611a20565b60405180910390fd5b6000610cf76103e586610e7f90919063ffffffff16565b90506000610d0e8483610e7f90919063ffffffff16565b90506000610d3983610d2b6103e889610e7f90919063ffffffff16565b610eec90919063ffffffff16565b90508082610d479190611a6f565b93505050509392505050565b6000808273ffffffffffffffffffffffffffffffffffffffff168473ffffffffffffffffffffffffffffffffffffffff1603610dc4576040517f08c379a0000000000000000000000000000000000000000000000000000000008152600401610dbb90611b12565b60405180910390fd5b8273ffffffffffffffffffffffffffffffffffffffff168473ffffffffffffffffffffffffffffffffffffffff1610610dfe578284610e01565b83835b8092508193505050600073ffffffffffffffffffffffffffffffffffffffff168273ffffffffffffffffffffffffffffffffffffffff1603610e78576040517f08c379a0000000000000000000000000000000000000000000000000000000008152600401610e6f90611b7e565b60405180910390fd5b9250929050565b600080821480610ea7575082828385610e989190611b9e565b925082610ea59190611a6f565b145b610ee6576040517f08c379a0000000000000000000000000000000000000000000000000000000008152600401610edd90611c2c565b60405180910390fd5b92915050565b6000828284610efb919061165d565b9150811015610f3f576040517f08c379a0000000000000000000000000000000000000000000000000000000008152600401610f3690611c98565b60405180910390fd5b92915050565b600082825260208201905092915050565b7f4d7573742073656e642045544800000000000000000000000000000000000000600082015250565b6000610f8c600d83610f45565b9150610f9782610f56565b602082019050919050565b60006020820190508181036000830152610fbb81610f7f565b9050919050565b7f46756e6374696f6e20646f6573206e6f74206578697374000000000000000000600082015250565b6000610ff8601783610f45565b915061100382610fc2565b602082019050919050565b6000602082019050818103600083015261102781610feb565b9050919050565b600073ffffffffffffffffffffffffffffffffffffffff82169050919050565b60006110598261102e565b9050919050565b6110698161104e565b82525050565b60006020820190506110846000830184611060565b92915050565b6000604051905090565b600080fd5b600080fd5b600080fd5b6000601f19601f8301169050919050565b7f4e487b7100000000000000000000000000000000000000000000000000000000600052604160045260246000fd5b6110ec826110a3565b810181811067ffffffffffffffff8211171561110b5761110a6110b4565b5b80604052505050565b600061111e61108a565b905061112a82826110e3565b919050565b600067ffffffffffffffff82111561114a576111496110b4565b5b602082029050602081019050919050565b600080fd5b6111698161104e565b811461117457600080fd5b50565b60008135905061118681611160565b92915050565b600061119f61119a8461112f565b611114565b905080838252602082019050602084028301858111156111c2576111c161115b565b5b835b818110156111eb57806111d78882611177565b8452602084019350506020810190506111c4565b5050509392505050565b600082601f83011261120a5761120961109e565b5b813561121a84826020860161118c565b91505092915050565b6000819050919050565b61123681611223565b811461124157600080fd5b50565b6000813590506112538161122d565b92915050565b60008115159050919050565b61126e81611259565b811461127957600080fd5b50565b60008135905061128b81611265565b92915050565b60008060008060008060c087890312156112ae576112ad611094565b5b600087013567ffffffffffffffff8111156112cc576112cb611099565b5b6112d889828a016111f5565b96505060206112e989828a01611244565b95505060406112fa89828a01611244565b945050606061130b89828a01611177565b935050608061131c89828a01611177565b92505060a061132d89828a0161127c565b9150509295509295509295565b7f6e6f7420616c6c6f776564000000000000000000000000000000000000000000600082015250565b6000611370600b83610f45565b915061137b8261133a565b602082019050919050565b6000602082019050818103600083015261139f81611363565b9050919050565b6000815190506113b58161122d565b92915050565b6000602082840312156113d1576113d0611094565b5b60006113df848285016113a6565b91505092915050565b6113f181611223565b82525050565b600060408201905061140c6000830185611060565b61141960208301846113e8565b9392505050565b60008151905061142f81611265565b92915050565b60006020828403121561144b5761144a611094565b5b600061145984828501611420565b91505092915050565b7f4e487b7100000000000000000000000000000000000000000000000000000000600052601160045260246000fd5b600061149c82611223565b91506114a783611223565b92508282039050818111156114bf576114be611462565b5b92915050565b7f4e487b7100000000000000000000000000000000000000000000000000000000600052603260045260246000fd5b7f41746f6d6963537761703a20494e53554646494349454e545f4f55545055545f60008201527f414d4f554e540000000000000000000000000000000000000000000000000000602082015250565b6000611550602683610f45565b915061155b826114f4565b604082019050919050565b6000602082019050818103600083015261157f81611543565b9050919050565b600060408201905061159b6000830185611060565b6115a86020830184611060565b9392505050565b6000815190506115be81611160565b92915050565b6000602082840312156115da576115d9611094565b5b60006115e8848285016115af565b91505092915050565b7f556e697377617056324c6962726172793a20494e56414c49445f504154480000600082015250565b6000611627601e83610f45565b9150611632826115f1565b602082019050919050565b600060208201905081810360008301526116568161161a565b9050919050565b600061166882611223565b915061167383611223565b925082820190508082111561168b5761168a611462565b5b92915050565b600061169c82611223565b91507fffffffffffffffffffffffffffffffffffffffffffffffffffffffffffffffff82036116ce576116cd611462565b5b600182019050919050565b60006060820190506116ee6000830186611060565b6116fb6020830185611060565b61170860408301846113e8565b949350505050565b7f7472616e73666572206661696c65640000000000000000000000000000000000600082015250565b6000611746600f83610f45565b915061175182611710565b602082019050919050565b6000602082019050818103600083015261177581611739565b9050919050565b600081519050919050565b600082825260208201905092915050565b60005b838110156117b657808201518184015260208101905061179b565b60008484015250505050565b60006117cd8261177c565b6117d78185611787565b93506117e7818560208601611798565b6117f0816110a3565b840191505092915050565b600060808201905061181060008301876113e8565b61181d60208301866113e8565b61182a6040830185611060565b818103606083015261183c81846117c2565b905095945050505050565b60006dffffffffffffffffffffffffffff82169050919050565b61186a81611847565b811461187557600080fd5b50565b60008151905061188781611861565b92915050565b600063ffffffff82169050919050565b6118a68161188d565b81146118b157600080fd5b50565b6000815190506118c38161189d565b92915050565b6000806000606084860312156118e2576118e1611094565b5b60006118f086828701611878565b935050602061190186828701611878565b9250506040611912868287016118b4565b9150509250925092565b7f556e697377617056324c6962726172793a20494e53554646494349454e545f4960008201527f4e5055545f414d4f554e54000000000000000000000000000000000000000000602082015250565b6000611978602b83610f45565b91506119838261191c565b604082019050919050565b600060208201905081810360008301526119a78161196b565b9050919050565b7f556e697377617056324c6962726172793a20494e53554646494349454e545f4c60008201527f4951554944495459000000000000000000000000000000000000000000000000602082015250565b6000611a0a602883610f45565b9150611a15826119ae565b604082019050919050565b60006020820190508181036000830152611a39816119fd565b9050919050565b7f4e487b7100000000000000000000000000000000000000000000000000000000600052601260045260246000fd5b6000611a7a82611223565b9150611a8583611223565b925082611a9557611a94611a40565b5b828204905092915050565b7f556e697377617056324c6962726172793a204944454e544943414c5f4144445260008201527f4553534553000000000000000000000000000000000000000000000000000000602082015250565b6000611afc602583610f45565b9150611b0782611aa0565b604082019050919050565b60006020820190508181036000830152611b2b81611aef565b9050919050565b7f556e697377617056324c6962726172793a205a45524f5f414444524553530000600082015250565b6000611b68601e83610f45565b9150611b7382611b32565b602082019050919050565b60006020820190508181036000830152611b9781611b5b565b9050919050565b6000611ba982611223565b9150611bb483611223565b9250828202611bc281611223565b91508282048414831517611bd957611bd8611462565b5b5092915050565b7f64732d6d6174682d6d756c2d6f766572666c6f77000000000000000000000000600082015250565b6000611c16601483610f45565b9150611c2182611be0565b602082019050919050565b60006020820190508181036000830152611c4581611c09565b9050919050565b7f64732d6d6174682d6164642d6f766572666c6f77000000000000000000000000600082015250565b6000611c82601483610f45565b9150611c8d82611c4c565b602082019050919050565b60006020820190508181036000830152611cb181611c75565b905091905056fea26469706673582212202d423f056fa73251cdd006368b28445e0562eed92662eaf2feee2434a4e224f964736f6c63430008120033",
          "opcodes": "PUSH1 0x80 PUSH1 0x40 MSTORE CALLVALUE DUP1 ISZERO PUSH3 0x11 JUMPI PUSH1 0x0 DUP1 REVERT JUMPDEST POP PUSH1 0x40 MLOAD PUSH3 0x1E9A CODESIZE SUB DUP1 PUSH3 0x1E9A DUP4 CODECOPY DUP2 DUP2 ADD PUSH1 0x40 MSTORE DUP2 ADD SWAP1 PUSH3 0x37 SWAP2 SWAP1 PUSH3 0x16A JUMP JUMPDEST DUP1 PUSH1 0x0 DUP1 PUSH2 0x100 EXP DUP2 SLOAD DUP2 PUSH20 0xFFFFFFFFFFFFFFFFFFFFFFFFFFFFFFFFFFFFFFFF MUL NOT AND SWAP1 DUP4 PUSH20 0xFFFFFFFFFFFFFFFFFFFFFFFFFFFFFFFFFFFFFFFF AND MUL OR SWAP1 SSTORE POP DUP1 PUSH1 0x2 PUSH1 0x0 PUSH2 0x100 EXP DUP2 SLOAD DUP2 PUSH20 0xFFFFFFFFFFFFFFFFFFFFFFFFFFFFFFFFFFFFFFFF MUL NOT AND SWAP1 DUP4 PUSH20 0xFFFFFFFFFFFFFFFFFFFFFFFFFFFFFFFFFFFFFFFF AND MUL OR SWAP1 SSTORE POP CALLER PUSH1 0x1 PUSH1 0x0 PUSH2 0x100 EXP DUP2 SLOAD DUP2 PUSH20 0xFFFFFFFFFFFFFFFFFFFFFFFFFFFFFFFFFFFFFFFF MUL NOT AND SWAP1 DUP4 PUSH20 0xFFFFFFFFFFFFFFFFFFFFFFFFFFFFFFFFFFFFFFFF AND MUL OR SWAP1 SSTORE POP POP PUSH3 0x19C JUMP JUMPDEST PUSH1 0x0 DUP1 REVERT JUMPDEST PUSH1 0x0 PUSH20 0xFFFFFFFFFFFFFFFFFFFFFFFFFFFFFFFFFFFFFFFF DUP3 AND SWAP1 POP SWAP2 SWAP1 POP JUMP JUMPDEST PUSH1 0x0 PUSH3 0x132 DUP3 PUSH3 0x105 JUMP JUMPDEST SWAP1 POP SWAP2 SWAP1 POP JUMP JUMPDEST PUSH3 0x144 DUP2 PUSH3 0x125 JUMP JUMPDEST DUP2 EQ PUSH3 0x150 JUMPI PUSH1 0x0 DUP1 REVERT JUMPDEST POP JUMP JUMPDEST PUSH1 0x0 DUP2 MLOAD SWAP1 POP PUSH3 0x164 DUP2 PUSH3 0x139 JUMP JUMPDEST SWAP3 SWAP2 POP POP JUMP JUMPDEST PUSH1 0x0 PUSH1 0x20 DUP3 DUP5 SUB SLT ISZERO PUSH3 0x183 JUMPI PUSH3 0x182 PUSH3 0x100 JUMP JUMPDEST JUMPDEST PUSH1 0x0 PUSH3 0x193 DUP5 DUP3 DUP6 ADD PUSH3 0x153 JUMP JUMPDEST SWAP2 POP POP SWAP3 SWAP2 POP POP JUMP JUMPDEST PUSH2 0x1CEE DUP1 PUSH3 0x1AC PUSH1 0x0 CODECOPY PUSH1 0x0 RETURN INVALID PUSH1 0x80 PUSH1 0x40 MSTORE PUSH1 0x4 CALLDATASIZE LT PUSH2 0x38 JUMPI PUSH1 0x0 CALLDATALOAD PUSH1 0xE0 SHR DUP1 PUSH4 0x28A07025 EQ PUSH2 0xBD JUMPI DUP1 PUSH4 0xAD5C4648 EQ PUSH2 0xD4 JUMPI DUP1 PUSH4 0xD50BC57C EQ PUSH2 0xFF JUMPI PUSH2 0x82 JUMP JUMPDEST CALLDATASIZE PUSH2 0x82 JUMPI PUSH1 0x0 CALLVALUE GT PUSH2 0x80 JUMPI PUSH1 0x40 MLOAD PUSH32 0x8C379A000000000000000000000000000000000000000000000000000000000 DUP2 MSTORE PUSH1 0x4 ADD PUSH2 0x77 SWAP1 PUSH2 0xFA2 JUMP JUMPDEST PUSH1 0x40 MLOAD DUP1 SWAP2 SUB SWAP1 REVERT JUMPDEST STOP JUMPDEST PUSH1 0x40 MLOAD PUSH32 0x8C379A000000000000000000000000000000000000000000000000000000000 DUP2 MSTORE PUSH1 0x4 ADD PUSH2 0xB4 SWAP1 PUSH2 0x100E JUMP JUMPDEST PUSH1 0x40 MLOAD DUP1 SWAP2 SUB SWAP1 REVERT JUMPDEST CALLVALUE DUP1 ISZERO PUSH2 0xC9 JUMPI PUSH1 0x0 DUP1 REVERT JUMPDEST POP PUSH2 0xD2 PUSH2 0x128 JUMP JUMPDEST STOP JUMPDEST CALLVALUE DUP1 ISZERO PUSH2 0xE0 JUMPI PUSH1 0x0 DUP1 REVERT JUMPDEST POP PUSH2 0xE9 PUSH2 0x318 JUMP JUMPDEST PUSH1 0x40 MLOAD PUSH2 0xF6 SWAP2 SWAP1 PUSH2 0x106F JUMP JUMPDEST PUSH1 0x40 MLOAD DUP1 SWAP2 SUB SWAP1 RETURN JUMPDEST CALLVALUE DUP1 ISZERO PUSH2 0x10B JUMPI PUSH1 0x0 DUP1 REVERT JUMPDEST POP PUSH2 0x126 PUSH1 0x4 DUP1 CALLDATASIZE SUB DUP2 ADD SWAP1 PUSH2 0x121 SWAP2 SWAP1 PUSH2 0x1291 JUMP JUMPDEST PUSH2 0x33C JUMP JUMPDEST STOP JUMPDEST PUSH1 0x1 PUSH1 0x0 SWAP1 SLOAD SWAP1 PUSH2 0x100 EXP SWAP1 DIV PUSH20 0xFFFFFFFFFFFFFFFFFFFFFFFFFFFFFFFFFFFFFFFF AND PUSH20 0xFFFFFFFFFFFFFFFFFFFFFFFFFFFFFFFFFFFFFFFF AND CALLER PUSH20 0xFFFFFFFFFFFFFFFFFFFFFFFFFFFFFFFFFFFFFFFF AND EQ PUSH2 0x1B8 JUMPI PUSH1 0x40 MLOAD PUSH32 0x8C379A000000000000000000000000000000000000000000000000000000000 DUP2 MSTORE PUSH1 0x4 ADD PUSH2 0x1AF SWAP1 PUSH2 0x1386 JUMP JUMPDEST PUSH1 0x40 MLOAD DUP1 SWAP2 SUB SWAP1 REVERT JUMPDEST PUSH1 0x2 PUSH1 0x0 SWAP1 SLOAD SWAP1 PUSH2 0x100 EXP SWAP1 DIV PUSH20 0xFFFFFFFFFFFFFFFFFFFFFFFFFFFFFFFFFFFFFFFF AND PUSH20 0xFFFFFFFFFFFFFFFFFFFFFFFFFFFFFFFFFFFFFFFF AND PUSH4 0xA9059CBB PUSH1 0x1 PUSH1 0x0 SWAP1 SLOAD SWAP1 PUSH2 0x100 EXP SWAP1 DIV PUSH20 0xFFFFFFFFFFFFFFFFFFFFFFFFFFFFFFFFFFFFFFFF AND PUSH1 0x2 PUSH1 0x0 SWAP1 SLOAD SWAP1 PUSH2 0x100 EXP SWAP1 DIV PUSH20 0xFFFFFFFFFFFFFFFFFFFFFFFFFFFFFFFFFFFFFFFF AND PUSH20 0xFFFFFFFFFFFFFFFFFFFFFFFFFFFFFFFFFFFFFFFF AND PUSH4 0x70A08231 ADDRESS PUSH1 0x40 MLOAD DUP3 PUSH4 0xFFFFFFFF AND PUSH1 0xE0 SHL DUP2 MSTORE PUSH1 0x4 ADD PUSH2 0x274 SWAP2 SWAP1 PUSH2 0x106F JUMP JUMPDEST PUSH1 0x20 PUSH1 0x40 MLOAD DUP1 DUP4 SUB DUP2 DUP7 GAS STATICCALL ISZERO DUP1 ISZERO PUSH2 0x291 JUMPI RETURNDATASIZE PUSH1 0x0 DUP1 RETURNDATACOPY RETURNDATASIZE PUSH1 0x0 REVERT JUMPDEST POP POP POP POP PUSH1 0x40 MLOAD RETURNDATASIZE PUSH1 0x1F NOT PUSH1 0x1F DUP3 ADD AND DUP3 ADD DUP1 PUSH1 0x40 MSTORE POP DUP2 ADD SWAP1 PUSH2 0x2B5 SWAP2 SWAP1 PUSH2 0x13BB JUMP JUMPDEST PUSH1 0x40 MLOAD DUP4 PUSH4 0xFFFFFFFF AND PUSH1 0xE0 SHL DUP2 MSTORE PUSH1 0x4 ADD PUSH2 0x2D2 SWAP3 SWAP2 SWAP1 PUSH2 0x13F7 JUMP JUMPDEST PUSH1 0x20 PUSH1 0x40 MLOAD DUP1 DUP4 SUB DUP2 PUSH1 0x0 DUP8 GAS CALL ISZERO DUP1 ISZERO PUSH2 0x2F1 JUMPI RETURNDATASIZE PUSH1 0x0 DUP1 RETURNDATACOPY RETURNDATASIZE PUSH1 0x0 REVERT JUMPDEST POP POP POP POP PUSH1 0x40 MLOAD RETURNDATASIZE PUSH1 0x1F NOT PUSH1 0x1F DUP3 ADD AND DUP3 ADD DUP1 PUSH1 0x40 MSTORE POP DUP2 ADD SWAP1 PUSH2 0x315 SWAP2 SWAP1 PUSH2 0x1435 JUMP JUMPDEST POP JUMP JUMPDEST PUSH1 0x0 DUP1 SLOAD SWAP1 PUSH2 0x100 EXP SWAP1 DIV PUSH20 0xFFFFFFFFFFFFFFFFFFFFFFFFFFFFFFFFFFFFFFFF AND DUP2 JUMP JUMPDEST PUSH1 0x0 PUSH2 0x349 DUP5 DUP8 DUP10 PUSH2 0x668 JUMP JUMPDEST SWAP1 POP DUP5 DUP2 PUSH1 0x1 DUP4 MLOAD PUSH2 0x35B SWAP2 SWAP1 PUSH2 0x1491 JUMP JUMPDEST DUP2 MLOAD DUP2 LT PUSH2 0x36C JUMPI PUSH2 0x36B PUSH2 0x14C5 JUMP JUMPDEST JUMPDEST PUSH1 0x20 MUL PUSH1 0x20 ADD ADD MLOAD LT ISZERO PUSH2 0x3B5 JUMPI PUSH1 0x40 MLOAD PUSH32 0x8C379A000000000000000000000000000000000000000000000000000000000 DUP2 MSTORE PUSH1 0x4 ADD PUSH2 0x3AC SWAP1 PUSH2 0x1566 JUMP JUMPDEST PUSH1 0x40 MLOAD DUP1 SWAP2 SUB SWAP1 REVERT JUMPDEST PUSH1 0x0 DUP5 PUSH20 0xFFFFFFFFFFFFFFFFFFFFFFFFFFFFFFFFFFFFFFFF AND PUSH4 0xE6A43905 DUP10 PUSH1 0x0 DUP2 MLOAD DUP2 LT PUSH2 0x3E7 JUMPI PUSH2 0x3E6 PUSH2 0x14C5 JUMP JUMPDEST JUMPDEST PUSH1 0x20 MUL PUSH1 0x20 ADD ADD MLOAD DUP11 PUSH1 0x1 DUP2 MLOAD DUP2 LT PUSH2 0x403 JUMPI PUSH2 0x402 PUSH2 0x14C5 JUMP JUMPDEST JUMPDEST PUSH1 0x20 MUL PUSH1 0x20 ADD ADD MLOAD PUSH1 0x40 MLOAD DUP4 PUSH4 0xFFFFFFFF AND PUSH1 0xE0 SHL DUP2 MSTORE PUSH1 0x4 ADD PUSH2 0x428 SWAP3 SWAP2 SWAP1 PUSH2 0x1586 JUMP JUMPDEST PUSH1 0x20 PUSH1 0x40 MLOAD DUP1 DUP4 SUB DUP2 DUP7 GAS STATICCALL ISZERO DUP1 ISZERO PUSH2 0x445 JUMPI RETURNDATASIZE PUSH1 0x0 DUP1 RETURNDATACOPY RETURNDATASIZE PUSH1 0x0 REVERT JUMPDEST POP POP POP POP PUSH1 0x40 MLOAD RETURNDATASIZE PUSH1 0x1F NOT PUSH1 0x1F DUP3 ADD AND DUP3 ADD DUP1 PUSH1 0x40 MSTORE POP DUP2 ADD SWAP1 PUSH2 0x469 SWAP2 SWAP1 PUSH2 0x15C4 JUMP JUMPDEST SWAP1 POP PUSH1 0x0 DUP9 PUSH1 0x0 DUP2 MLOAD DUP2 LT PUSH2 0x481 JUMPI PUSH2 0x480 PUSH2 0x14C5 JUMP JUMPDEST JUMPDEST PUSH1 0x20 MUL PUSH1 0x20 ADD ADD MLOAD PUSH20 0xFFFFFFFFFFFFFFFFFFFFFFFFFFFFFFFFFFFFFFFF AND DUP3 PUSH20 0xFFFFFFFFFFFFFFFFFFFFFFFFFFFFFFFFFFFFFFFF AND PUSH4 0xDFE1681 PUSH1 0x40 MLOAD DUP2 PUSH4 0xFFFFFFFF AND PUSH1 0xE0 SHL DUP2 MSTORE PUSH1 0x4 ADD PUSH1 0x20 PUSH1 0x40 MLOAD DUP1 DUP4 SUB DUP2 DUP7 GAS STATICCALL ISZERO DUP1 ISZERO PUSH2 0x4EA JUMPI RETURNDATASIZE PUSH1 0x0 DUP1 RETURNDATACOPY RETURNDATASIZE PUSH1 0x0 REVERT JUMPDEST POP POP POP POP PUSH1 0x40 MLOAD RETURNDATASIZE PUSH1 0x1F NOT PUSH1 0x1F DUP3 ADD AND DUP3 ADD DUP1 PUSH1 0x40 MSTORE POP DUP2 ADD SWAP1 PUSH2 0x50E SWAP2 SWAP1 PUSH2 0x15C4 JUMP JUMPDEST PUSH20 0xFFFFFFFFFFFFFFFFFFFFFFFFFFFFFFFFFFFFFFFF AND EQ PUSH2 0x54A JUMPI DUP3 PUSH1 0x1 DUP2 MLOAD DUP2 LT PUSH2 0x53D JUMPI PUSH2 0x53C PUSH2 0x14C5 JUMP JUMPDEST JUMPDEST PUSH1 0x20 MUL PUSH1 0x20 ADD ADD MLOAD PUSH2 0x54D JUMP JUMPDEST PUSH1 0x0 JUMPDEST SWAP1 POP PUSH1 0x0 DUP10 PUSH1 0x0 DUP2 MLOAD DUP2 LT PUSH2 0x565 JUMPI PUSH2 0x564 PUSH2 0x14C5 JUMP JUMPDEST JUMPDEST PUSH1 0x20 MUL PUSH1 0x20 ADD ADD MLOAD PUSH20 0xFFFFFFFFFFFFFFFFFFFFFFFFFFFFFFFFFFFFFFFF AND DUP4 PUSH20 0xFFFFFFFFFFFFFFFFFFFFFFFFFFFFFFFFFFFFFFFF AND PUSH4 0xDFE1681 PUSH1 0x40 MLOAD DUP2 PUSH4 0xFFFFFFFF AND PUSH1 0xE0 SHL DUP2 MSTORE PUSH1 0x4 ADD PUSH1 0x20 PUSH1 0x40 MLOAD DUP1 DUP4 SUB DUP2 DUP7 GAS STATICCALL ISZERO DUP1 ISZERO PUSH2 0x5CE JUMPI RETURNDATASIZE PUSH1 0x0 DUP1 RETURNDATACOPY RETURNDATASIZE PUSH1 0x0 REVERT JUMPDEST POP POP POP POP PUSH1 0x40 MLOAD RETURNDATASIZE PUSH1 0x1F NOT PUSH1 0x1F DUP3 ADD AND DUP3 ADD DUP1 PUSH1 0x40 MSTORE POP DUP2 ADD SWAP1 PUSH2 0x5F2 SWAP2 SWAP1 PUSH2 0x15C4 JUMP JUMPDEST PUSH20 0xFFFFFFFFFFFFFFFFFFFFFFFFFFFFFFFFFFFFFFFF AND EQ PUSH2 0x614 JUMPI PUSH1 0x0 PUSH2 0x631 JUMP JUMPDEST DUP4 PUSH1 0x1 DUP2 MLOAD DUP2 LT PUSH2 0x628 JUMPI PUSH2 0x627 PUSH2 0x14C5 JUMP JUMPDEST JUMPDEST PUSH1 0x20 MUL PUSH1 0x20 ADD ADD MLOAD JUMPDEST SWAP1 POP PUSH2 0x65C DUP3 DUP3 DUP13 PUSH1 0x0 DUP2 MLOAD DUP2 LT PUSH2 0x64C JUMPI PUSH2 0x64B PUSH2 0x14C5 JUMP JUMPDEST JUMPDEST PUSH1 0x20 MUL PUSH1 0x20 ADD ADD MLOAD DUP7 DUP11 DUP11 PUSH2 0x7F3 JUMP JUMPDEST POP POP POP POP POP POP POP POP POP POP JUMP JUMPDEST PUSH1 0x60 PUSH1 0x2 DUP3 MLOAD LT ISZERO PUSH2 0x6AF JUMPI PUSH1 0x40 MLOAD PUSH32 0x8C379A000000000000000000000000000000000000000000000000000000000 DUP2 MSTORE PUSH1 0x4 ADD PUSH2 0x6A6 SWAP1 PUSH2 0x163D JUMP JUMPDEST PUSH1 0x40 MLOAD DUP1 SWAP2 SUB SWAP1 REVERT JUMPDEST DUP2 MLOAD PUSH8 0xFFFFFFFFFFFFFFFF DUP2 GT ISZERO PUSH2 0x6CA JUMPI PUSH2 0x6C9 PUSH2 0x10B4 JUMP JUMPDEST JUMPDEST PUSH1 0x40 MLOAD SWAP1 DUP1 DUP3 MSTORE DUP1 PUSH1 0x20 MUL PUSH1 0x20 ADD DUP3 ADD PUSH1 0x40 MSTORE DUP1 ISZERO PUSH2 0x6F8 JUMPI DUP2 PUSH1 0x20 ADD PUSH1 0x20 DUP3 MUL DUP1 CALLDATASIZE DUP4 CALLDATACOPY DUP1 DUP3 ADD SWAP2 POP POP SWAP1 POP JUMPDEST POP SWAP1 POP DUP3 DUP2 PUSH1 0x0 DUP2 MLOAD DUP2 LT PUSH2 0x710 JUMPI PUSH2 0x70F PUSH2 0x14C5 JUMP JUMPDEST JUMPDEST PUSH1 0x20 MUL PUSH1 0x20 ADD ADD DUP2 DUP2 MSTORE POP POP PUSH1 0x0 JUMPDEST PUSH1 0x1 DUP4 MLOAD PUSH2 0x72D SWAP2 SWAP1 PUSH2 0x1491 JUMP JUMPDEST DUP2 LT ISZERO PUSH2 0x7EB JUMPI PUSH1 0x0 DUP1 PUSH2 0x782 DUP8 DUP7 DUP6 DUP2 MLOAD DUP2 LT PUSH2 0x74E JUMPI PUSH2 0x74D PUSH2 0x14C5 JUMP JUMPDEST JUMPDEST PUSH1 0x20 MUL PUSH1 0x20 ADD ADD MLOAD DUP8 PUSH1 0x1 DUP8 PUSH2 0x764 SWAP2 SWAP1 PUSH2 0x165D JUMP JUMPDEST DUP2 MLOAD DUP2 LT PUSH2 0x775 JUMPI PUSH2 0x774 PUSH2 0x14C5 JUMP JUMPDEST JUMPDEST PUSH1 0x20 MUL PUSH1 0x20 ADD ADD MLOAD PUSH2 0xAD9 JUMP JUMPDEST SWAP2 POP SWAP2 POP PUSH2 0x7AB DUP5 DUP5 DUP2 MLOAD DUP2 LT PUSH2 0x79C JUMPI PUSH2 0x79B PUSH2 0x14C5 JUMP JUMPDEST JUMPDEST PUSH1 0x20 MUL PUSH1 0x20 ADD ADD MLOAD DUP4 DUP4 PUSH2 0xC4D JUMP JUMPDEST DUP5 PUSH1 0x1 DUP6 PUSH2 0x7B9 SWAP2 SWAP1 PUSH2 0x165D JUMP JUMPDEST DUP2 MLOAD DUP2 LT PUSH2 0x7CA JUMPI PUSH2 0x7C9 PUSH2 0x14C5 JUMP JUMPDEST JUMPDEST PUSH1 0x20 MUL PUSH1 0x20 ADD ADD DUP2 DUP2 MSTORE POP POP POP POP DUP1 DUP1 PUSH2 0x7E3 SWAP1 PUSH2 0x1691 JUMP JUMPDEST SWAP2 POP POP PUSH2 0x71F JUMP JUMPDEST POP SWAP4 SWAP3 POP POP POP JUMP JUMPDEST PUSH1 0x0 DUP4 SWAP1 POP PUSH1 0x0 DUP6 SWAP1 POP PUSH1 0x0 DUP7 PUSH20 0xFFFFFFFFFFFFFFFFFFFFFFFFFFFFFFFFFFFFFFFF AND DUP4 PUSH20 0xFFFFFFFFFFFFFFFFFFFFFFFFFFFFFFFFFFFFFFFF AND PUSH4 0xDFE1681 PUSH1 0x40 MLOAD DUP2 PUSH4 0xFFFFFFFF AND PUSH1 0xE0 SHL DUP2 MSTORE PUSH1 0x4 ADD PUSH1 0x20 PUSH1 0x40 MLOAD DUP1 DUP4 SUB DUP2 DUP7 GAS STATICCALL ISZERO DUP1 ISZERO PUSH2 0x861 JUMPI RETURNDATASIZE PUSH1 0x0 DUP1 RETURNDATACOPY RETURNDATASIZE PUSH1 0x0 REVERT JUMPDEST POP POP POP POP PUSH1 0x40 MLOAD RETURNDATASIZE PUSH1 0x1F NOT PUSH1 0x1F DUP3 ADD AND DUP3 ADD DUP1 PUSH1 0x40 MSTORE POP DUP2 ADD SWAP1 PUSH2 0x885 SWAP2 SWAP1 PUSH2 0x15C4 JUMP JUMPDEST PUSH20 0xFFFFFFFFFFFFFFFFFFFFFFFFFFFFFFFFFFFFFFFF AND EQ PUSH2 0x8A6 JUMPI DUP8 PUSH2 0x8A8 JUMP JUMPDEST DUP9 JUMPDEST SWAP1 POP DUP4 PUSH2 0x934 JUMPI DUP2 PUSH20 0xFFFFFFFFFFFFFFFFFFFFFFFFFFFFFFFFFFFFFFFF AND PUSH4 0x23B872DD CALLER DUP9 DUP5 PUSH1 0x40 MLOAD DUP5 PUSH4 0xFFFFFFFF AND PUSH1 0xE0 SHL DUP2 MSTORE PUSH1 0x4 ADD PUSH2 0x8EC SWAP4 SWAP3 SWAP2 SWAP1 PUSH2 0x16D9 JUMP JUMPDEST PUSH1 0x20 PUSH1 0x40 MLOAD DUP1 DUP4 SUB DUP2 PUSH1 0x0 DUP8 GAS CALL ISZERO DUP1 ISZERO PUSH2 0x90B JUMPI RETURNDATASIZE PUSH1 0x0 DUP1 RETURNDATACOPY RETURNDATASIZE PUSH1 0x0 REVERT JUMPDEST POP POP POP POP PUSH1 0x40 MLOAD RETURNDATASIZE PUSH1 0x1F NOT PUSH1 0x1F DUP3 ADD AND DUP3 ADD DUP1 PUSH1 0x40 MSTORE POP DUP2 ADD SWAP1 PUSH2 0x92F SWAP2 SWAP1 PUSH2 0x1435 JUMP JUMPDEST PUSH2 0x9B3 JUMP JUMPDEST DUP2 PUSH20 0xFFFFFFFFFFFFFFFFFFFFFFFFFFFFFFFFFFFFFFFF AND PUSH4 0xA9059CBB DUP8 DUP4 PUSH1 0x40 MLOAD DUP4 PUSH4 0xFFFFFFFF AND PUSH1 0xE0 SHL DUP2 MSTORE PUSH1 0x4 ADD PUSH2 0x96F SWAP3 SWAP2 SWAP1 PUSH2 0x13F7 JUMP JUMPDEST PUSH1 0x20 PUSH1 0x40 MLOAD DUP1 DUP4 SUB DUP2 PUSH1 0x0 DUP8 GAS CALL ISZERO DUP1 ISZERO PUSH2 0x98E JUMPI RETURNDATASIZE PUSH1 0x0 DUP1 RETURNDATACOPY RETURNDATASIZE PUSH1 0x0 REVERT JUMPDEST POP POP POP POP PUSH1 0x40 MLOAD RETURNDATASIZE PUSH1 0x1F NOT PUSH1 0x1F DUP3 ADD AND DUP3 ADD DUP1 PUSH1 0x40 MSTORE POP DUP2 ADD SWAP1 PUSH2 0x9B2 SWAP2 SWAP1 PUSH2 0x1435 JUMP JUMPDEST JUMPDEST PUSH2 0x9F2 JUMPI PUSH1 0x40 MLOAD PUSH32 0x8C379A000000000000000000000000000000000000000000000000000000000 DUP2 MSTORE PUSH1 0x4 ADD PUSH2 0x9E9 SWAP1 PUSH2 0x175C JUMP JUMPDEST PUSH1 0x40 MLOAD DUP1 SWAP2 SUB SWAP1 REVERT JUMPDEST DUP3 PUSH20 0xFFFFFFFFFFFFFFFFFFFFFFFFFFFFFFFFFFFFFFFF AND PUSH4 0x22C0D9F DUP3 DUP12 EQ PUSH2 0xA1B JUMPI DUP11 PUSH2 0xA1E JUMP JUMPDEST PUSH1 0x0 JUMPDEST DUP4 DUP12 EQ PUSH2 0xA2B JUMPI DUP11 PUSH2 0xA2E JUMP JUMPDEST PUSH1 0x0 JUMPDEST DUP9 PUSH1 0x0 PUSH8 0xFFFFFFFFFFFFFFFF DUP2 GT ISZERO PUSH2 0xA4A JUMPI PUSH2 0xA49 PUSH2 0x10B4 JUMP JUMPDEST JUMPDEST PUSH1 0x40 MLOAD SWAP1 DUP1 DUP3 MSTORE DUP1 PUSH1 0x1F ADD PUSH1 0x1F NOT AND PUSH1 0x20 ADD DUP3 ADD PUSH1 0x40 MSTORE DUP1 ISZERO PUSH2 0xA7C JUMPI DUP2 PUSH1 0x20 ADD PUSH1 0x1 DUP3 MUL DUP1 CALLDATASIZE DUP4 CALLDATACOPY DUP1 DUP3 ADD SWAP2 POP POP SWAP1 POP JUMPDEST POP PUSH1 0x40 MLOAD DUP6 PUSH4 0xFFFFFFFF AND PUSH1 0xE0 SHL DUP2 MSTORE PUSH1 0x4 ADD PUSH2 0xA9C SWAP5 SWAP4 SWAP3 SWAP2 SWAP1 PUSH2 0x17FB JUMP JUMPDEST PUSH1 0x0 PUSH1 0x40 MLOAD DUP1 DUP4 SUB DUP2 PUSH1 0x0 DUP8 DUP1 EXTCODESIZE ISZERO DUP1 ISZERO PUSH2 0xAB6 JUMPI PUSH1 0x0 DUP1 REVERT JUMPDEST POP GAS CALL ISZERO DUP1 ISZERO PUSH2 0xACA JUMPI RETURNDATASIZE PUSH1 0x0 DUP1 RETURNDATACOPY RETURNDATASIZE PUSH1 0x0 REVERT JUMPDEST POP POP POP POP POP POP POP POP POP POP POP POP POP JUMP JUMPDEST PUSH1 0x0 DUP1 PUSH1 0x0 PUSH2 0xAE8 DUP6 DUP6 PUSH2 0xD53 JUMP JUMPDEST POP SWAP1 POP PUSH1 0x0 DUP1 DUP8 PUSH20 0xFFFFFFFFFFFFFFFFFFFFFFFFFFFFFFFFFFFFFFFF AND PUSH4 0xE6A43905 DUP9 DUP9 PUSH1 0x40 MLOAD DUP4 PUSH4 0xFFFFFFFF AND PUSH1 0xE0 SHL DUP2 MSTORE PUSH1 0x4 ADD PUSH2 0xB29 SWAP3 SWAP2 SWAP1 PUSH2 0x1586 JUMP JUMPDEST PUSH1 0x20 PUSH1 0x40 MLOAD DUP1 DUP4 SUB DUP2 DUP7 GAS STATICCALL ISZERO DUP1 ISZERO PUSH2 0xB46 JUMPI RETURNDATASIZE PUSH1 0x0 DUP1 RETURNDATACOPY RETURNDATASIZE PUSH1 0x0 REVERT JUMPDEST POP POP POP POP PUSH1 0x40 MLOAD RETURNDATASIZE PUSH1 0x1F NOT PUSH1 0x1F DUP3 ADD AND DUP3 ADD DUP1 PUSH1 0x40 MSTORE POP DUP2 ADD SWAP1 PUSH2 0xB6A SWAP2 SWAP1 PUSH2 0x15C4 JUMP JUMPDEST PUSH20 0xFFFFFFFFFFFFFFFFFFFFFFFFFFFFFFFFFFFFFFFF AND PUSH4 0x902F1AC PUSH1 0x40 MLOAD DUP2 PUSH4 0xFFFFFFFF AND PUSH1 0xE0 SHL DUP2 MSTORE PUSH1 0x4 ADD PUSH1 0x60 PUSH1 0x40 MLOAD DUP1 DUP4 SUB DUP2 DUP7 GAS STATICCALL ISZERO DUP1 ISZERO PUSH2 0xBB4 JUMPI RETURNDATASIZE PUSH1 0x0 DUP1 RETURNDATACOPY RETURNDATASIZE PUSH1 0x0 REVERT JUMPDEST POP POP POP POP PUSH1 0x40 MLOAD RETURNDATASIZE PUSH1 0x1F NOT PUSH1 0x1F DUP3 ADD AND DUP3 ADD DUP1 PUSH1 0x40 MSTORE POP DUP2 ADD SWAP1 PUSH2 0xBD8 SWAP2 SWAP1 PUSH2 0x18C9 JUMP JUMPDEST POP PUSH14 0xFFFFFFFFFFFFFFFFFFFFFFFFFFFF AND SWAP2 POP PUSH14 0xFFFFFFFFFFFFFFFFFFFFFFFFFFFF AND SWAP2 POP DUP3 PUSH20 0xFFFFFFFFFFFFFFFFFFFFFFFFFFFFFFFFFFFFFFFF AND DUP8 PUSH20 0xFFFFFFFFFFFFFFFFFFFFFFFFFFFFFFFFFFFFFFFF AND EQ PUSH2 0xC37 JUMPI DUP1 DUP3 PUSH2 0xC3A JUMP JUMPDEST DUP2 DUP2 JUMPDEST DUP1 SWAP6 POP DUP2 SWAP7 POP POP POP POP POP POP SWAP4 POP SWAP4 SWAP2 POP POP JUMP JUMPDEST PUSH1 0x0 DUP1 DUP5 GT PUSH2 0xC91 JUMPI PUSH1 0x40 MLOAD PUSH32 0x8C379A000000000000000000000000000000000000000000000000000000000 DUP2 MSTORE PUSH1 0x4 ADD PUSH2 0xC88 SWAP1 PUSH2 0x198E JUMP JUMPDEST PUSH1 0x40 MLOAD DUP1 SWAP2 SUB SWAP1 REVERT JUMPDEST PUSH1 0x0 DUP4 GT DUP1 ISZERO PUSH2 0xCA1 JUMPI POP PUSH1 0x0 DUP3 GT JUMPDEST PUSH2 0xCE0 JUMPI PUSH1 0x40 MLOAD PUSH32 0x8C379A000000000000000000000000000000000000000000000000000000000 DUP2 MSTORE PUSH1 0x4 ADD PUSH2 0xCD7 SWAP1 PUSH2 0x1A20 JUMP JUMPDEST PUSH1 0x40 MLOAD DUP1 SWAP2 SUB SWAP1 REVERT JUMPDEST PUSH1 0x0 PUSH2 0xCF7 PUSH2 0x3E5 DUP7 PUSH2 0xE7F SWAP1 SWAP2 SWAP1 PUSH4 0xFFFFFFFF AND JUMP JUMPDEST SWAP1 POP PUSH1 0x0 PUSH2 0xD0E DUP5 DUP4 PUSH2 0xE7F SWAP1 SWAP2 SWAP1 PUSH4 0xFFFFFFFF AND JUMP JUMPDEST SWAP1 POP PUSH1 0x0 PUSH2 0xD39 DUP4 PUSH2 0xD2B PUSH2 0x3E8 DUP10 PUSH2 0xE7F SWAP1 SWAP2 SWAP1 PUSH4 0xFFFFFFFF AND JUMP JUMPDEST PUSH2 0xEEC SWAP1 SWAP2 SWAP1 PUSH4 0xFFFFFFFF AND JUMP JUMPDEST SWAP1 POP DUP1 DUP3 PUSH2 0xD47 SWAP2 SWAP1 PUSH2 0x1A6F JUMP JUMPDEST SWAP4 POP POP POP POP SWAP4 SWAP3 POP POP POP JUMP JUMPDEST PUSH1 0x0 DUP1 DUP3 PUSH20 0xFFFFFFFFFFFFFFFFFFFFFFFFFFFFFFFFFFFFFFFF AND DUP5 PUSH20 0xFFFFFFFFFFFFFFFFFFFFFFFFFFFFFFFFFFFFFFFF AND SUB PUSH2 0xDC4 JUMPI PUSH1 0x40 MLOAD PUSH32 0x8C379A000000000000000000000000000000000000000000000000000000000 DUP2 MSTORE PUSH1 0x4 ADD PUSH2 0xDBB SWAP1 PUSH2 0x1B12 JUMP JUMPDEST PUSH1 0x40 MLOAD DUP1 SWAP2 SUB SWAP1 REVERT JUMPDEST DUP3 PUSH20 0xFFFFFFFFFFFFFFFFFFFFFFFFFFFFFFFFFFFFFFFF AND DUP5 PUSH20 0xFFFFFFFFFFFFFFFFFFFFFFFFFFFFFFFFFFFFFFFF AND LT PUSH2 0xDFE JUMPI DUP3 DUP5 PUSH2 0xE01 JUMP JUMPDEST DUP4 DUP4 JUMPDEST DUP1 SWAP3 POP DUP2 SWAP4 POP POP POP PUSH1 0x0 PUSH20 0xFFFFFFFFFFFFFFFFFFFFFFFFFFFFFFFFFFFFFFFF AND DUP3 PUSH20 0xFFFFFFFFFFFFFFFFFFFFFFFFFFFFFFFFFFFFFFFF AND SUB PUSH2 0xE78 JUMPI PUSH1 0x40 MLOAD PUSH32 0x8C379A000000000000000000000000000000000000000000000000000000000 DUP2 MSTORE PUSH1 0x4 ADD PUSH2 0xE6F SWAP1 PUSH2 0x1B7E JUMP JUMPDEST PUSH1 0x40 MLOAD DUP1 SWAP2 SUB SWAP1 REVERT JUMPDEST SWAP3 POP SWAP3 SWAP1 POP JUMP JUMPDEST PUSH1 0x0 DUP1 DUP3 EQ DUP1 PUSH2 0xEA7 JUMPI POP DUP3 DUP3 DUP4 DUP6 PUSH2 0xE98 SWAP2 SWAP1 PUSH2 0x1B9E JUMP JUMPDEST SWAP3 POP DUP3 PUSH2 0xEA5 SWAP2 SWAP1 PUSH2 0x1A6F JUMP JUMPDEST EQ JUMPDEST PUSH2 0xEE6 JUMPI PUSH1 0x40 MLOAD PUSH32 0x8C379A000000000000000000000000000000000000000000000000000000000 DUP2 MSTORE PUSH1 0x4 ADD PUSH2 0xEDD SWAP1 PUSH2 0x1C2C JUMP JUMPDEST PUSH1 0x40 MLOAD DUP1 SWAP2 SUB SWAP1 REVERT JUMPDEST SWAP3 SWAP2 POP POP JUMP JUMPDEST PUSH1 0x0 DUP3 DUP3 DUP5 PUSH2 0xEFB SWAP2 SWAP1 PUSH2 0x165D JUMP JUMPDEST SWAP2 POP DUP2 LT ISZERO PUSH2 0xF3F JUMPI PUSH1 0x40 MLOAD PUSH32 0x8C379A000000000000000000000000000000000000000000000000000000000 DUP2 MSTORE PUSH1 0x4 ADD PUSH2 0xF36 SWAP1 PUSH2 0x1C98 JUMP JUMPDEST PUSH1 0x40 MLOAD DUP1 SWAP2 SUB SWAP1 REVERT JUMPDEST SWAP3 SWAP2 POP POP JUMP JUMPDEST PUSH1 0x0 DUP3 DUP3 MSTORE PUSH1 0x20 DUP3 ADD SWAP1 POP SWAP3 SWAP2 POP POP JUMP JUMPDEST PUSH32 0x4D7573742073656E642045544800000000000000000000000000000000000000 PUSH1 0x0 DUP3 ADD MSTORE POP JUMP JUMPDEST PUSH1 0x0 PUSH2 0xF8C PUSH1 0xD DUP4 PUSH2 0xF45 JUMP JUMPDEST SWAP2 POP PUSH2 0xF97 DUP3 PUSH2 0xF56 JUMP JUMPDEST PUSH1 0x20 DUP3 ADD SWAP1 POP SWAP2 SWAP1 POP JUMP JUMPDEST PUSH1 0x0 PUSH1 0x20 DUP3 ADD SWAP1 POP DUP2 DUP2 SUB PUSH1 0x0 DUP4 ADD MSTORE PUSH2 0xFBB DUP2 PUSH2 0xF7F JUMP JUMPDEST SWAP1 POP SWAP2 SWAP1 POP JUMP JUMPDEST PUSH32 0x46756E6374696F6E20646F6573206E6F74206578697374000000000000000000 PUSH1 0x0 DUP3 ADD MSTORE POP JUMP JUMPDEST PUSH1 0x0 PUSH2 0xFF8 PUSH1 0x17 DUP4 PUSH2 0xF45 JUMP JUMPDEST SWAP2 POP PUSH2 0x1003 DUP3 PUSH2 0xFC2 JUMP JUMPDEST PUSH1 0x20 DUP3 ADD SWAP1 POP SWAP2 SWAP1 POP JUMP JUMPDEST PUSH1 0x0 PUSH1 0x20 DUP3 ADD SWAP1 POP DUP2 DUP2 SUB PUSH1 0x0 DUP4 ADD MSTORE PUSH2 0x1027 DUP2 PUSH2 0xFEB JUMP JUMPDEST SWAP1 POP SWAP2 SWAP1 POP JUMP JUMPDEST PUSH1 0x0 PUSH20 0xFFFFFFFFFFFFFFFFFFFFFFFFFFFFFFFFFFFFFFFF DUP3 AND SWAP1 POP SWAP2 SWAP1 POP JUMP JUMPDEST PUSH1 0x0 PUSH2 0x1059 DUP3 PUSH2 0x102E JUMP JUMPDEST SWAP1 POP SWAP2 SWAP1 POP JUMP JUMPDEST PUSH2 0x1069 DUP2 PUSH2 0x104E JUMP JUMPDEST DUP3 MSTORE POP POP JUMP JUMPDEST PUSH1 0x0 PUSH1 0x20 DUP3 ADD SWAP1 POP PUSH2 0x1084 PUSH1 0x0 DUP4 ADD DUP5 PUSH2 0x1060 JUMP JUMPDEST SWAP3 SWAP2 POP POP JUMP JUMPDEST PUSH1 0x0 PUSH1 0x40 MLOAD SWAP1 POP SWAP1 JUMP JUMPDEST PUSH1 0x0 DUP1 REVERT JUMPDEST PUSH1 0x0 DUP1 REVERT JUMPDEST PUSH1 0x0 DUP1 REVERT JUMPDEST PUSH1 0x0 PUSH1 0x1F NOT PUSH1 0x1F DUP4 ADD AND SWAP1 POP SWAP2 SWAP1 POP JUMP JUMPDEST PUSH32 0x4E487B7100000000000000000000000000000000000000000000000000000000 PUSH1 0x0 MSTORE PUSH1 0x41 PUSH1 0x4 MSTORE PUSH1 0x24 PUSH1 0x0 REVERT JUMPDEST PUSH2 0x10EC DUP3 PUSH2 0x10A3 JUMP JUMPDEST DUP2 ADD DUP2 DUP2 LT PUSH8 0xFFFFFFFFFFFFFFFF DUP3 GT OR ISZERO PUSH2 0x110B JUMPI PUSH2 0x110A PUSH2 0x10B4 JUMP JUMPDEST JUMPDEST DUP1 PUSH1 0x40 MSTORE POP POP POP JUMP JUMPDEST PUSH1 0x0 PUSH2 0x111E PUSH2 0x108A JUMP JUMPDEST SWAP1 POP PUSH2 0x112A DUP3 DUP3 PUSH2 0x10E3 JUMP JUMPDEST SWAP2 SWAP1 POP JUMP JUMPDEST PUSH1 0x0 PUSH8 0xFFFFFFFFFFFFFFFF DUP3 GT ISZERO PUSH2 0x114A JUMPI PUSH2 0x1149 PUSH2 0x10B4 JUMP JUMPDEST JUMPDEST PUSH1 0x20 DUP3 MUL SWAP1 POP PUSH1 0x20 DUP2 ADD SWAP1 POP SWAP2 SWAP1 POP JUMP JUMPDEST PUSH1 0x0 DUP1 REVERT JUMPDEST PUSH2 0x1169 DUP2 PUSH2 0x104E JUMP JUMPDEST DUP2 EQ PUSH2 0x1174 JUMPI PUSH1 0x0 DUP1 REVERT JUMPDEST POP JUMP JUMPDEST PUSH1 0x0 DUP2 CALLDATALOAD SWAP1 POP PUSH2 0x1186 DUP2 PUSH2 0x1160 JUMP JUMPDEST SWAP3 SWAP2 POP POP JUMP JUMPDEST PUSH1 0x0 PUSH2 0x119F PUSH2 0x119A DUP5 PUSH2 0x112F JUMP JUMPDEST PUSH2 0x1114 JUMP JUMPDEST SWAP1 POP DUP1 DUP4 DUP3 MSTORE PUSH1 0x20 DUP3 ADD SWAP1 POP PUSH1 0x20 DUP5 MUL DUP4 ADD DUP6 DUP2 GT ISZERO PUSH2 0x11C2 JUMPI PUSH2 0x11C1 PUSH2 0x115B JUMP JUMPDEST JUMPDEST DUP4 JUMPDEST DUP2 DUP2 LT ISZERO PUSH2 0x11EB JUMPI DUP1 PUSH2 0x11D7 DUP9 DUP3 PUSH2 0x1177 JUMP JUMPDEST DUP5 MSTORE PUSH1 0x20 DUP5 ADD SWAP4 POP POP PUSH1 0x20 DUP2 ADD SWAP1 POP PUSH2 0x11C4 JUMP JUMPDEST POP POP POP SWAP4 SWAP3 POP POP POP JUMP JUMPDEST PUSH1 0x0 DUP3 PUSH1 0x1F DUP4 ADD SLT PUSH2 0x120A JUMPI PUSH2 0x1209 PUSH2 0x109E JUMP JUMPDEST JUMPDEST DUP2 CALLDATALOAD PUSH2 0x121A DUP5 DUP3 PUSH1 0x20 DUP7 ADD PUSH2 0x118C JUMP JUMPDEST SWAP2 POP POP SWAP3 SWAP2 POP POP JUMP JUMPDEST PUSH1 0x0 DUP2 SWAP1 POP SWAP2 SWAP1 POP JUMP JUMPDEST PUSH2 0x1236 DUP2 PUSH2 0x1223 JUMP JUMPDEST DUP2 EQ PUSH2 0x1241 JUMPI PUSH1 0x0 DUP1 REVERT JUMPDEST POP JUMP JUMPDEST PUSH1 0x0 DUP2 CALLDATALOAD SWAP1 POP PUSH2 0x1253 DUP2 PUSH2 0x122D JUMP JUMPDEST SWAP3 SWAP2 POP POP JUMP JUMPDEST PUSH1 0x0 DUP2 ISZERO ISZERO SWAP1 POP SWAP2 SWAP1 POP JUMP JUMPDEST PUSH2 0x126E DUP2 PUSH2 0x1259 JUMP JUMPDEST DUP2 EQ PUSH2 0x1279 JUMPI PUSH1 0x0 DUP1 REVERT JUMPDEST POP JUMP JUMPDEST PUSH1 0x0 DUP2 CALLDATALOAD SWAP1 POP PUSH2 0x128B DUP2 PUSH2 0x1265 JUMP JUMPDEST SWAP3 SWAP2 POP POP JUMP JUMPDEST PUSH1 0x0 DUP1 PUSH1 0x0 DUP1 PUSH1 0x0 DUP1 PUSH1 0xC0 DUP8 DUP10 SUB SLT ISZERO PUSH2 0x12AE JUMPI PUSH2 0x12AD PUSH2 0x1094 JUMP JUMPDEST JUMPDEST PUSH1 0x0 DUP8 ADD CALLDATALOAD PUSH8 0xFFFFFFFFFFFFFFFF DUP2 GT ISZERO PUSH2 0x12CC JUMPI PUSH2 0x12CB PUSH2 0x1099 JUMP JUMPDEST JUMPDEST PUSH2 0x12D8 DUP10 DUP3 DUP11 ADD PUSH2 0x11F5 JUMP JUMPDEST SWAP7 POP POP PUSH1 0x20 PUSH2 0x12E9 DUP10 DUP3 DUP11 ADD PUSH2 0x1244 JUMP JUMPDEST SWAP6 POP POP PUSH1 0x40 PUSH2 0x12FA DUP10 DUP3 DUP11 ADD PUSH2 0x1244 JUMP JUMPDEST SWAP5 POP POP PUSH1 0x60 PUSH2 0x130B DUP10 DUP3 DUP11 ADD PUSH2 0x1177 JUMP JUMPDEST SWAP4 POP POP PUSH1 0x80 PUSH2 0x131C DUP10 DUP3 DUP11 ADD PUSH2 0x1177 JUMP JUMPDEST SWAP3 POP POP PUSH1 0xA0 PUSH2 0x132D DUP10 DUP3 DUP11 ADD PUSH2 0x127C JUMP JUMPDEST SWAP2 POP POP SWAP3 SWAP6 POP SWAP3 SWAP6 POP SWAP3 SWAP6 JUMP JUMPDEST PUSH32 0x6E6F7420616C6C6F776564000000000000000000000000000000000000000000 PUSH1 0x0 DUP3 ADD MSTORE POP JUMP JUMPDEST PUSH1 0x0 PUSH2 0x1370 PUSH1 0xB DUP4 PUSH2 0xF45 JUMP JUMPDEST SWAP2 POP PUSH2 0x137B DUP3 PUSH2 0x133A JUMP JUMPDEST PUSH1 0x20 DUP3 ADD SWAP1 POP SWAP2 SWAP1 POP JUMP JUMPDEST PUSH1 0x0 PUSH1 0x20 DUP3 ADD SWAP1 POP DUP2 DUP2 SUB PUSH1 0x0 DUP4 ADD MSTORE PUSH2 0x139F DUP2 PUSH2 0x1363 JUMP JUMPDEST SWAP1 POP SWAP2 SWAP1 POP JUMP JUMPDEST PUSH1 0x0 DUP2 MLOAD SWAP1 POP PUSH2 0x13B5 DUP2 PUSH2 0x122D JUMP JUMPDEST SWAP3 SWAP2 POP POP JUMP JUMPDEST PUSH1 0x0 PUSH1 0x20 DUP3 DUP5 SUB SLT ISZERO PUSH2 0x13D1 JUMPI PUSH2 0x13D0 PUSH2 0x1094 JUMP JUMPDEST JUMPDEST PUSH1 0x0 PUSH2 0x13DF DUP5 DUP3 DUP6 ADD PUSH2 0x13A6 JUMP JUMPDEST SWAP2 POP POP SWAP3 SWAP2 POP POP JUMP JUMPDEST PUSH2 0x13F1 DUP2 PUSH2 0x1223 JUMP JUMPDEST DUP3 MSTORE POP POP JUMP JUMPDEST PUSH1 0x0 PUSH1 0x40 DUP3 ADD SWAP1 POP PUSH2 0x140C PUSH1 0x0 DUP4 ADD DUP6 PUSH2 0x1060 JUMP JUMPDEST PUSH2 0x1419 PUSH1 0x20 DUP4 ADD DUP5 PUSH2 0x13E8 JUMP JUMPDEST SWAP4 SWAP3 POP POP POP JUMP JUMPDEST PUSH1 0x0 DUP2 MLOAD SWAP1 POP PUSH2 0x142F DUP2 PUSH2 0x1265 JUMP JUMPDEST SWAP3 SWAP2 POP POP JUMP JUMPDEST PUSH1 0x0 PUSH1 0x20 DUP3 DUP5 SUB SLT ISZERO PUSH2 0x144B JUMPI PUSH2 0x144A PUSH2 0x1094 JUMP JUMPDEST JUMPDEST PUSH1 0x0 PUSH2 0x1459 DUP5 DUP3 DUP6 ADD PUSH2 0x1420 JUMP JUMPDEST SWAP2 POP POP SWAP3 SWAP2 POP POP JUMP JUMPDEST PUSH32 0x4E487B7100000000000000000000000000000000000000000000000000000000 PUSH1 0x0 MSTORE PUSH1 0x11 PUSH1 0x4 MSTORE PUSH1 0x24 PUSH1 0x0 REVERT JUMPDEST PUSH1 0x0 PUSH2 0x149C DUP3 PUSH2 0x1223 JUMP JUMPDEST SWAP2 POP PUSH2 0x14A7 DUP4 PUSH2 0x1223 JUMP JUMPDEST SWAP3 POP DUP3 DUP3 SUB SWAP1 POP DUP2 DUP2 GT ISZERO PUSH2 0x14BF JUMPI PUSH2 0x14BE PUSH2 0x1462 JUMP JUMPDEST JUMPDEST SWAP3 SWAP2 POP POP JUMP JUMPDEST PUSH32 0x4E487B7100000000000000000000000000000000000000000000000000000000 PUSH1 0x0 MSTORE PUSH1 0x32 PUSH1 0x4 MSTORE PUSH1 0x24 PUSH1 0x0 REVERT JUMPDEST PUSH32 0x41746F6D6963537761703A20494E53554646494349454E545F4F55545055545F PUSH1 0x0 DUP3 ADD MSTORE PUSH32 0x414D4F554E540000000000000000000000000000000000000000000000000000 PUSH1 0x20 DUP3 ADD MSTORE POP JUMP JUMPDEST PUSH1 0x0 PUSH2 0x1550 PUSH1 0x26 DUP4 PUSH2 0xF45 JUMP JUMPDEST SWAP2 POP PUSH2 0x155B DUP3 PUSH2 0x14F4 JUMP JUMPDEST PUSH1 0x40 DUP3 ADD SWAP1 POP SWAP2 SWAP1 POP JUMP JUMPDEST PUSH1 0x0 PUSH1 0x20 DUP3 ADD SWAP1 POP DUP2 DUP2 SUB PUSH1 0x0 DUP4 ADD MSTORE PUSH2 0x157F DUP2 PUSH2 0x1543 JUMP JUMPDEST SWAP1 POP SWAP2 SWAP1 POP JUMP JUMPDEST PUSH1 0x0 PUSH1 0x40 DUP3 ADD SWAP1 POP PUSH2 0x159B PUSH1 0x0 DUP4 ADD DUP6 PUSH2 0x1060 JUMP JUMPDEST PUSH2 0x15A8 PUSH1 0x20 DUP4 ADD DUP5 PUSH2 0x1060 JUMP JUMPDEST SWAP4 SWAP3 POP POP POP JUMP JUMPDEST PUSH1 0x0 DUP2 MLOAD SWAP1 POP PUSH2 0x15BE DUP2 PUSH2 0x1160 JUMP JUMPDEST SWAP3 SWAP2 POP POP JUMP JUMPDEST PUSH1 0x0 PUSH1 0x20 DUP3 DUP5 SUB SLT ISZERO PUSH2 0x15DA JUMPI PUSH2 0x15D9 PUSH2 0x1094 JUMP JUMPDEST JUMPDEST PUSH1 0x0 PUSH2 0x15E8 DUP5 DUP3 DUP6 ADD PUSH2 0x15AF JUMP JUMPDEST SWAP2 POP POP SWAP3 SWAP2 POP POP JUMP JUMPDEST PUSH32 0x556E697377617056324C6962726172793A20494E56414C49445F504154480000 PUSH1 0x0 DUP3 ADD MSTORE POP JUMP JUMPDEST PUSH1 0x0 PUSH2 0x1627 PUSH1 0x1E DUP4 PUSH2 0xF45 JUMP JUMPDEST SWAP2 POP PUSH2 0x1632 DUP3 PUSH2 0x15F1 JUMP JUMPDEST PUSH1 0x20 DUP3 ADD SWAP1 POP SWAP2 SWAP1 POP JUMP JUMPDEST PUSH1 0x0 PUSH1 0x20 DUP3 ADD SWAP1 POP DUP2 DUP2 SUB PUSH1 0x0 DUP4 ADD MSTORE PUSH2 0x1656 DUP2 PUSH2 0x161A JUMP JUMPDEST SWAP1 POP SWAP2 SWAP1 POP JUMP JUMPDEST PUSH1 0x0 PUSH2 0x1668 DUP3 PUSH2 0x1223 JUMP JUMPDEST SWAP2 POP PUSH2 0x1673 DUP4 PUSH2 0x1223 JUMP JUMPDEST SWAP3 POP DUP3 DUP3 ADD SWAP1 POP DUP1 DUP3 GT ISZERO PUSH2 0x168B JUMPI PUSH2 0x168A PUSH2 0x1462 JUMP JUMPDEST JUMPDEST SWAP3 SWAP2 POP POP JUMP JUMPDEST PUSH1 0x0 PUSH2 0x169C DUP3 PUSH2 0x1223 JUMP JUMPDEST SWAP2 POP PUSH32 0xFFFFFFFFFFFFFFFFFFFFFFFFFFFFFFFFFFFFFFFFFFFFFFFFFFFFFFFFFFFFFFFF DUP3 SUB PUSH2 0x16CE JUMPI PUSH2 0x16CD PUSH2 0x1462 JUMP JUMPDEST JUMPDEST PUSH1 0x1 DUP3 ADD SWAP1 POP SWAP2 SWAP1 POP JUMP JUMPDEST PUSH1 0x0 PUSH1 0x60 DUP3 ADD SWAP1 POP PUSH2 0x16EE PUSH1 0x0 DUP4 ADD DUP7 PUSH2 0x1060 JUMP JUMPDEST PUSH2 0x16FB PUSH1 0x20 DUP4 ADD DUP6 PUSH2 0x1060 JUMP JUMPDEST PUSH2 0x1708 PUSH1 0x40 DUP4 ADD DUP5 PUSH2 0x13E8 JUMP JUMPDEST SWAP5 SWAP4 POP POP POP POP JUMP JUMPDEST PUSH32 0x7472616E73666572206661696C65640000000000000000000000000000000000 PUSH1 0x0 DUP3 ADD MSTORE POP JUMP JUMPDEST PUSH1 0x0 PUSH2 0x1746 PUSH1 0xF DUP4 PUSH2 0xF45 JUMP JUMPDEST SWAP2 POP PUSH2 0x1751 DUP3 PUSH2 0x1710 JUMP JUMPDEST PUSH1 0x20 DUP3 ADD SWAP1 POP SWAP2 SWAP1 POP JUMP JUMPDEST PUSH1 0x0 PUSH1 0x20 DUP3 ADD SWAP1 POP DUP2 DUP2 SUB PUSH1 0x0 DUP4 ADD MSTORE PUSH2 0x1775 DUP2 PUSH2 0x1739 JUMP JUMPDEST SWAP1 POP SWAP2 SWAP1 POP JUMP JUMPDEST PUSH1 0x0 DUP2 MLOAD SWAP1 POP SWAP2 SWAP1 POP JUMP JUMPDEST PUSH1 0x0 DUP3 DUP3 MSTORE PUSH1 0x20 DUP3 ADD SWAP1 POP SWAP3 SWAP2 POP POP JUMP JUMPDEST PUSH1 0x0 JUMPDEST DUP4 DUP2 LT ISZERO PUSH2 0x17B6 JUMPI DUP1 DUP3 ADD MLOAD DUP2 DUP5 ADD MSTORE PUSH1 0x20 DUP2 ADD SWAP1 POP PUSH2 0x179B JUMP JUMPDEST PUSH1 0x0 DUP5 DUP5 ADD MSTORE POP POP POP POP JUMP JUMPDEST PUSH1 0x0 PUSH2 0x17CD DUP3 PUSH2 0x177C JUMP JUMPDEST PUSH2 0x17D7 DUP2 DUP6 PUSH2 0x1787 JUMP JUMPDEST SWAP4 POP PUSH2 0x17E7 DUP2 DUP6 PUSH1 0x20 DUP7 ADD PUSH2 0x1798 JUMP JUMPDEST PUSH2 0x17F0 DUP2 PUSH2 0x10A3 JUMP JUMPDEST DUP5 ADD SWAP2 POP POP SWAP3 SWAP2 POP POP JUMP JUMPDEST PUSH1 0x0 PUSH1 0x80 DUP3 ADD SWAP1 POP PUSH2 0x1810 PUSH1 0x0 DUP4 ADD DUP8 PUSH2 0x13E8 JUMP JUMPDEST PUSH2 0x181D PUSH1 0x20 DUP4 ADD DUP7 PUSH2 0x13E8 JUMP JUMPDEST PUSH2 0x182A PUSH1 0x40 DUP4 ADD DUP6 PUSH2 0x1060 JUMP JUMPDEST DUP2 DUP2 SUB PUSH1 0x60 DUP4 ADD MSTORE PUSH2 0x183C DUP2 DUP5 PUSH2 0x17C2 JUMP JUMPDEST SWAP1 POP SWAP6 SWAP5 POP POP POP POP POP JUMP JUMPDEST PUSH1 0x0 PUSH14 0xFFFFFFFFFFFFFFFFFFFFFFFFFFFF DUP3 AND SWAP1 POP SWAP2 SWAP1 POP JUMP JUMPDEST PUSH2 0x186A DUP2 PUSH2 0x1847 JUMP JUMPDEST DUP2 EQ PUSH2 0x1875 JUMPI PUSH1 0x0 DUP1 REVERT JUMPDEST POP JUMP JUMPDEST PUSH1 0x0 DUP2 MLOAD SWAP1 POP PUSH2 0x1887 DUP2 PUSH2 0x1861 JUMP JUMPDEST SWAP3 SWAP2 POP POP JUMP JUMPDEST PUSH1 0x0 PUSH4 0xFFFFFFFF DUP3 AND SWAP1 POP SWAP2 SWAP1 POP JUMP JUMPDEST PUSH2 0x18A6 DUP2 PUSH2 0x188D JUMP JUMPDEST DUP2 EQ PUSH2 0x18B1 JUMPI PUSH1 0x0 DUP1 REVERT JUMPDEST POP JUMP JUMPDEST PUSH1 0x0 DUP2 MLOAD SWAP1 POP PUSH2 0x18C3 DUP2 PUSH2 0x189D JUMP JUMPDEST SWAP3 SWAP2 POP POP JUMP JUMPDEST PUSH1 0x0 DUP1 PUSH1 0x0 PUSH1 0x60 DUP5 DUP7 SUB SLT ISZERO PUSH2 0x18E2 JUMPI PUSH2 0x18E1 PUSH2 0x1094 JUMP JUMPDEST JUMPDEST PUSH1 0x0 PUSH2 0x18F0 DUP7 DUP3 DUP8 ADD PUSH2 0x1878 JUMP JUMPDEST SWAP4 POP POP PUSH1 0x20 PUSH2 0x1901 DUP7 DUP3 DUP8 ADD PUSH2 0x1878 JUMP JUMPDEST SWAP3 POP POP PUSH1 0x40 PUSH2 0x1912 DUP7 DUP3 DUP8 ADD PUSH2 0x18B4 JUMP JUMPDEST SWAP2 POP POP SWAP3 POP SWAP3 POP SWAP3 JUMP JUMPDEST PUSH32 0x556E697377617056324C6962726172793A20494E53554646494349454E545F49 PUSH1 0x0 DUP3 ADD MSTORE PUSH32 0x4E5055545F414D4F554E54000000000000000000000000000000000000000000 PUSH1 0x20 DUP3 ADD MSTORE POP JUMP JUMPDEST PUSH1 0x0 PUSH2 0x1978 PUSH1 0x2B DUP4 PUSH2 0xF45 JUMP JUMPDEST SWAP2 POP PUSH2 0x1983 DUP3 PUSH2 0x191C JUMP JUMPDEST PUSH1 0x40 DUP3 ADD SWAP1 POP SWAP2 SWAP1 POP JUMP JUMPDEST PUSH1 0x0 PUSH1 0x20 DUP3 ADD SWAP1 POP DUP2 DUP2 SUB PUSH1 0x0 DUP4 ADD MSTORE PUSH2 0x19A7 DUP2 PUSH2 0x196B JUMP JUMPDEST SWAP1 POP SWAP2 SWAP1 POP JUMP JUMPDEST PUSH32 0x556E697377617056324C6962726172793A20494E53554646494349454E545F4C PUSH1 0x0 DUP3 ADD MSTORE PUSH32 0x4951554944495459000000000000000000000000000000000000000000000000 PUSH1 0x20 DUP3 ADD MSTORE POP JUMP JUMPDEST PUSH1 0x0 PUSH2 0x1A0A PUSH1 0x28 DUP4 PUSH2 0xF45 JUMP JUMPDEST SWAP2 POP PUSH2 0x1A15 DUP3 PUSH2 0x19AE JUMP JUMPDEST PUSH1 0x40 DUP3 ADD SWAP1 POP SWAP2 SWAP1 POP JUMP JUMPDEST PUSH1 0x0 PUSH1 0x20 DUP3 ADD SWAP1 POP DUP2 DUP2 SUB PUSH1 0x0 DUP4 ADD MSTORE PUSH2 0x1A39 DUP2 PUSH2 0x19FD JUMP JUMPDEST SWAP1 POP SWAP2 SWAP1 POP JUMP JUMPDEST PUSH32 0x4E487B7100000000000000000000000000000000000000000000000000000000 PUSH1 0x0 MSTORE PUSH1 0x12 PUSH1 0x4 MSTORE PUSH1 0x24 PUSH1 0x0 REVERT JUMPDEST PUSH1 0x0 PUSH2 0x1A7A DUP3 PUSH2 0x1223 JUMP JUMPDEST SWAP2 POP PUSH2 0x1A85 DUP4 PUSH2 0x1223 JUMP JUMPDEST SWAP3 POP DUP3 PUSH2 0x1A95 JUMPI PUSH2 0x1A94 PUSH2 0x1A40 JUMP JUMPDEST JUMPDEST DUP3 DUP3 DIV SWAP1 POP SWAP3 SWAP2 POP POP JUMP JUMPDEST PUSH32 0x556E697377617056324C6962726172793A204944454E544943414C5F41444452 PUSH1 0x0 DUP3 ADD MSTORE PUSH32 0x4553534553000000000000000000000000000000000000000000000000000000 PUSH1 0x20 DUP3 ADD MSTORE POP JUMP JUMPDEST PUSH1 0x0 PUSH2 0x1AFC PUSH1 0x25 DUP4 PUSH2 0xF45 JUMP JUMPDEST SWAP2 POP PUSH2 0x1B07 DUP3 PUSH2 0x1AA0 JUMP JUMPDEST PUSH1 0x40 DUP3 ADD SWAP1 POP SWAP2 SWAP1 POP JUMP JUMPDEST PUSH1 0x0 PUSH1 0x20 DUP3 ADD SWAP1 POP DUP2 DUP2 SUB PUSH1 0x0 DUP4 ADD MSTORE PUSH2 0x1B2B DUP2 PUSH2 0x1AEF JUMP JUMPDEST SWAP1 POP SWAP2 SWAP1 POP JUMP JUMPDEST PUSH32 0x556E697377617056324C6962726172793A205A45524F5F414444524553530000 PUSH1 0x0 DUP3 ADD MSTORE POP JUMP JUMPDEST PUSH1 0x0 PUSH2 0x1B68 PUSH1 0x1E DUP4 PUSH2 0xF45 JUMP JUMPDEST SWAP2 POP PUSH2 0x1B73 DUP3 PUSH2 0x1B32 JUMP JUMPDEST PUSH1 0x20 DUP3 ADD SWAP1 POP SWAP2 SWAP1 POP JUMP JUMPDEST PUSH1 0x0 PUSH1 0x20 DUP3 ADD SWAP1 POP DUP2 DUP2 SUB PUSH1 0x0 DUP4 ADD MSTORE PUSH2 0x1B97 DUP2 PUSH2 0x1B5B JUMP JUMPDEST SWAP1 POP SWAP2 SWAP1 POP JUMP JUMPDEST PUSH1 0x0 PUSH2 0x1BA9 DUP3 PUSH2 0x1223 JUMP JUMPDEST SWAP2 POP PUSH2 0x1BB4 DUP4 PUSH2 0x1223 JUMP JUMPDEST SWAP3 POP DUP3 DUP3 MUL PUSH2 0x1BC2 DUP2 PUSH2 0x1223 JUMP JUMPDEST SWAP2 POP DUP3 DUP3 DIV DUP5 EQ DUP4 ISZERO OR PUSH2 0x1BD9 JUMPI PUSH2 0x1BD8 PUSH2 0x1462 JUMP JUMPDEST JUMPDEST POP SWAP3 SWAP2 POP POP JUMP JUMPDEST PUSH32 0x64732D6D6174682D6D756C2D6F766572666C6F77000000000000000000000000 PUSH1 0x0 DUP3 ADD MSTORE POP JUMP JUMPDEST PUSH1 0x0 PUSH2 0x1C16 PUSH1 0x14 DUP4 PUSH2 0xF45 JUMP JUMPDEST SWAP2 POP PUSH2 0x1C21 DUP3 PUSH2 0x1BE0 JUMP JUMPDEST PUSH1 0x20 DUP3 ADD SWAP1 POP SWAP2 SWAP1 POP JUMP JUMPDEST PUSH1 0x0 PUSH1 0x20 DUP3 ADD SWAP1 POP DUP2 DUP2 SUB PUSH1 0x0 DUP4 ADD MSTORE PUSH2 0x1C45 DUP2 PUSH2 0x1C09 JUMP JUMPDEST SWAP1 POP SWAP2 SWAP1 POP JUMP JUMPDEST PUSH32 0x64732D6D6174682D6164642D6F766572666C6F77000000000000000000000000 PUSH1 0x0 DUP3 ADD MSTORE POP JUMP JUMPDEST PUSH1 0x0 PUSH2 0x1C82 PUSH1 0x14 DUP4 PUSH2 0xF45 JUMP JUMPDEST SWAP2 POP PUSH2 0x1C8D DUP3 PUSH2 0x1C4C JUMP JUMPDEST PUSH1 0x20 DUP3 ADD SWAP1 POP SWAP2 SWAP1 POP JUMP JUMPDEST PUSH1 0x0 PUSH1 0x20 DUP3 ADD SWAP1 POP DUP2 DUP2 SUB PUSH1 0x0 DUP4 ADD MSTORE PUSH2 0x1CB1 DUP2 PUSH2 0x1C75 JUMP JUMPDEST SWAP1 POP SWAP2 SWAP1 POP JUMP INVALID LOG2 PUSH5 0x6970667358 0x22 SLT KECCAK256 0x2D TIMESTAMP EXTCODEHASH SDIV PUSH16 0xA73251CDD006368B28445E0562EED926 PUSH3 0xEAF2FE 0xEE 0x24 CALLVALUE LOG4 0xE2 0x24 0xF9 PUSH5 0x736F6C6343 STOP ADDMOD SLT STOP CALLER "
        },
        "methodIdentifiers": {
          "WETH()": "ad5c4648",
          "liquidate()": "28a07025",
          "swap(address[],uint256,uint256,address,address,bool)": "d50bc57c"
        }
      }
    }
  }
}